{
	"contracts/CryptoKids.sol": {
		"CryptoKids": {
			"abi": [
				{
					"inputs": [],
					"stateMutability": "nonpayable",
					"type": "constructor"
				},
				{
					"anonymous": false,
					"inputs": [
						{
							"indexed": false,
							"internalType": "address",
							"name": "addr",
							"type": "address"
						},
						{
							"indexed": false,
							"internalType": "uint256",
							"name": "amount",
							"type": "uint256"
						},
						{
							"indexed": false,
							"internalType": "uint256",
							"name": "contractBalance",
							"type": "uint256"
						}
					],
					"name": "LogKidFundingReceived",
					"type": "event"
				},
				{
					"inputs": [
						{
							"internalType": "address",
							"name": "walletAddress",
							"type": "address"
						}
					],
					"name": "ableToWithdraw",
					"outputs": [
						{
							"internalType": "bool",
							"name": "",
							"type": "bool"
						}
					],
					"stateMutability": "nonpayable",
					"type": "function"
				},
				{
					"inputs": [
						{
							"internalType": "address payable",
							"name": "walletAddress",
							"type": "address"
						},
						{
							"internalType": "string",
							"name": "firstName",
							"type": "string"
						},
						{
							"internalType": "string",
							"name": "lastName",
							"type": "string"
						},
						{
							"internalType": "uint256",
							"name": "releaseTime",
							"type": "uint256"
						},
						{
							"internalType": "uint256",
							"name": "amount",
							"type": "uint256"
						},
						{
							"internalType": "bool",
							"name": "canWithdraw",
							"type": "bool"
						}
					],
					"name": "addKid",
					"outputs": [],
					"stateMutability": "nonpayable",
					"type": "function"
				},
				{
					"inputs": [],
					"name": "balanceOf",
					"outputs": [
						{
							"internalType": "uint256",
							"name": "",
							"type": "uint256"
						}
					],
					"stateMutability": "view",
					"type": "function"
				},
				{
					"inputs": [
						{
							"internalType": "address",
							"name": "walletAddress",
							"type": "address"
						}
					],
					"name": "deposit",
					"outputs": [],
					"stateMutability": "payable",
					"type": "function"
				},
				{
					"inputs": [
						{
							"internalType": "uint256",
							"name": "",
							"type": "uint256"
						}
					],
					"name": "kids",
					"outputs": [
						{
							"internalType": "address payable",
							"name": "walletAddress",
							"type": "address"
						},
						{
							"internalType": "string",
							"name": "firstName",
							"type": "string"
						},
						{
							"internalType": "string",
							"name": "lastName",
							"type": "string"
						},
						{
							"internalType": "uint256",
							"name": "releaseTime",
							"type": "uint256"
						},
						{
							"internalType": "uint256",
							"name": "amount",
							"type": "uint256"
						},
						{
							"internalType": "bool",
							"name": "canWithdraw",
							"type": "bool"
						}
					],
					"stateMutability": "view",
					"type": "function"
				},
				{
					"inputs": [
						{
							"internalType": "address payable",
							"name": "walletAddress",
							"type": "address"
						}
					],
					"name": "withdraw",
					"outputs": [],
					"stateMutability": "payable",
					"type": "function"
				}
			],
			"devdoc": {
				"kind": "dev",
				"methods": {},
				"version": 1
			},
			"evm": {
				"assembly": "    /* \"contracts/CryptoKids.sol\":68:3438  contract CryptoKids{\r... */\n  mstore(0x40, 0x80)\n    /* \"contracts/CryptoKids.sol\":257:355  constructor() {\r... */\n  callvalue\n  dup1\n  iszero\n  tag_1\n  jumpi\n  0x00\n  dup1\n  revert\ntag_1:\n  pop\n    /* \"contracts/CryptoKids.sol\":290:300  msg.sender */\n  caller\n    /* \"contracts/CryptoKids.sol\":282:287  owner */\n  0x00\n  dup1\n    /* \"contracts/CryptoKids.sol\":282:300  owner = msg.sender */\n  0x0100\n  exp\n  dup2\n  sload\n  dup2\n  0xffffffffffffffffffffffffffffffffffffffff\n  mul\n  not\n  and\n  swap1\n  dup4\n  0xffffffffffffffffffffffffffffffffffffffff\n  and\n  mul\n  or\n  swap1\n  sstore\n  pop\n    /* \"contracts/CryptoKids.sol\":68:3438  contract CryptoKids{\r... */\n  dataSize(sub_0)\n  dup1\n  dataOffset(sub_0)\n  0x00\n  codecopy\n  0x00\n  return\nstop\n\nsub_0: assembly {\n        /* \"contracts/CryptoKids.sol\":68:3438  contract CryptoKids{\r... */\n      mstore(0x40, 0x80)\n      jumpi(tag_1, lt(calldatasize, 0x04))\n      shr(0xe0, calldataload(0x00))\n      dup1\n      0x31d575c5\n      eq\n      tag_2\n      jumpi\n      dup1\n      0x51cff8d9\n      eq\n      tag_3\n      jumpi\n      dup1\n      0x722713f7\n      eq\n      tag_4\n      jumpi\n      dup1\n      0x7285fd3a\n      eq\n      tag_5\n      jumpi\n      dup1\n      0xdaa6b869\n      eq\n      tag_6\n      jumpi\n      dup1\n      0xf340fa01\n      eq\n      tag_7\n      jumpi\n    tag_1:\n      0x00\n      dup1\n      revert\n        /* \"contracts/CryptoKids.sol\":821:1174  function addKid(address payable walletAddress, string memory firstName, string memory lastName, uint releaseTime, uint amount, bool canWithdraw) public onlyOwner{\r... */\n    tag_2:\n      callvalue\n      dup1\n      iszero\n      tag_8\n      jumpi\n      0x00\n      dup1\n      revert\n    tag_8:\n      pop\n      tag_9\n      0x04\n      dup1\n      calldatasize\n      sub\n      dup2\n      add\n      swap1\n      tag_10\n      swap2\n      swap1\n      tag_11\n      jump\t// in\n    tag_10:\n      tag_12\n      jump\t// in\n    tag_9:\n      stop\n        /* \"contracts/CryptoKids.sol\":3017:3431  function withdraw(address payable walletAddress) payable public {\r... */\n    tag_3:\n      tag_13\n      0x04\n      dup1\n      calldatasize\n      sub\n      dup2\n      add\n      swap1\n      tag_14\n      swap2\n      swap1\n      tag_15\n      jump\t// in\n    tag_14:\n      tag_16\n      jump\t// in\n    tag_13:\n      stop\n        /* \"contracts/CryptoKids.sol\":1182:1327  function balanceOf() public view returns(uint) { // only executable locally (view) uses 0 gas\r... */\n    tag_4:\n      callvalue\n      dup1\n      iszero\n      tag_17\n      jumpi\n      0x00\n      dup1\n      revert\n    tag_17:\n      pop\n      tag_18\n      tag_19\n      jump\t// in\n    tag_18:\n      mload(0x40)\n      tag_20\n      swap2\n      swap1\n      tag_21\n      jump\t// in\n    tag_20:\n      mload(0x40)\n      dup1\n      swap2\n      sub\n      swap1\n      return\n        /* \"contracts/CryptoKids.sol\":609:626  Kid[] public kids */\n    tag_5:\n      callvalue\n      dup1\n      iszero\n      tag_22\n      jumpi\n      0x00\n      dup1\n      revert\n    tag_22:\n      pop\n      tag_23\n      0x04\n      dup1\n      calldatasize\n      sub\n      dup2\n      add\n      swap1\n      tag_24\n      swap2\n      swap1\n      tag_25\n      jump\t// in\n    tag_24:\n      tag_26\n      jump\t// in\n    tag_23:\n      mload(0x40)\n      tag_27\n      swap7\n      swap6\n      swap5\n      swap4\n      swap3\n      swap2\n      swap1\n      tag_28\n      jump\t// in\n    tag_27:\n      mload(0x40)\n      dup1\n      swap2\n      sub\n      swap1\n      return\n        /* \"contracts/CryptoKids.sol\":2473:2982  function ableToWithdraw(address walletAddress) public returns(bool) {\r... */\n    tag_6:\n      callvalue\n      dup1\n      iszero\n      tag_29\n      jumpi\n      0x00\n      dup1\n      revert\n    tag_29:\n      pop\n      tag_30\n      0x04\n      dup1\n      calldatasize\n      sub\n      dup2\n      add\n      swap1\n      tag_31\n      swap2\n      swap1\n      tag_32\n      jump\t// in\n    tag_31:\n      tag_33\n      jump\t// in\n    tag_30:\n      mload(0x40)\n      tag_34\n      swap2\n      swap1\n      tag_35\n      jump\t// in\n    tag_34:\n      mload(0x40)\n      dup1\n      swap2\n      sub\n      swap1\n      return\n        /* \"contracts/CryptoKids.sol\":1393:1494  function deposit(address walletAddress) payable public {\r... */\n    tag_7:\n      tag_36\n      0x04\n      dup1\n      calldatasize\n      sub\n      dup2\n      add\n      swap1\n      tag_37\n      swap2\n      swap1\n      tag_32\n      jump\t// in\n    tag_37:\n      tag_38\n      jump\t// in\n    tag_36:\n      stop\n        /* \"contracts/CryptoKids.sol\":821:1174  function addKid(address payable walletAddress, string memory firstName, string memory lastName, uint releaseTime, uint amount, bool canWithdraw) public onlyOwner{\r... */\n    tag_12:\n        /* \"contracts/CryptoKids.sol\":727:732  owner */\n      0x00\n      dup1\n      sload\n      swap1\n      0x0100\n      exp\n      swap1\n      div\n      0xffffffffffffffffffffffffffffffffffffffff\n      and\n        /* \"contracts/CryptoKids.sol\":713:732  msg.sender == owner */\n      0xffffffffffffffffffffffffffffffffffffffff\n      and\n        /* \"contracts/CryptoKids.sol\":713:723  msg.sender */\n      caller\n        /* \"contracts/CryptoKids.sol\":713:732  msg.sender == owner */\n      0xffffffffffffffffffffffffffffffffffffffff\n      and\n      eq\n        /* \"contracts/CryptoKids.sol\":704:767  require (msg.sender == owner, \"only owner is able to add kids\") */\n      tag_40\n      jumpi\n      mload(0x40)\n      0x08c379a000000000000000000000000000000000000000000000000000000000\n      dup2\n      mstore\n      0x04\n      add\n      tag_41\n      swap1\n      tag_42\n      jump\t// in\n    tag_41:\n      mload(0x40)\n      dup1\n      swap2\n      sub\n      swap1\n      revert\n    tag_40:\n        /* \"contracts/CryptoKids.sol\":993:997  kids */\n      0x01\n        /* \"contracts/CryptoKids.sol\":1003:1165  Kid(\r... */\n      mload(0x40)\n      dup1\n      0xc0\n      add\n      0x40\n      mstore\n      dup1\n        /* \"contracts/CryptoKids.sol\":1021:1034  walletAddress */\n      dup9\n        /* \"contracts/CryptoKids.sol\":1003:1165  Kid(\r... */\n      0xffffffffffffffffffffffffffffffffffffffff\n      and\n      dup2\n      mstore\n      0x20\n      add\n        /* \"contracts/CryptoKids.sol\":1049:1058  firstName */\n      dup8\n        /* \"contracts/CryptoKids.sol\":1003:1165  Kid(\r... */\n      dup2\n      mstore\n      0x20\n      add\n        /* \"contracts/CryptoKids.sol\":1073:1081  lastName */\n      dup7\n        /* \"contracts/CryptoKids.sol\":1003:1165  Kid(\r... */\n      dup2\n      mstore\n      0x20\n      add\n        /* \"contracts/CryptoKids.sol\":1096:1107  releaseTime */\n      dup6\n        /* \"contracts/CryptoKids.sol\":1003:1165  Kid(\r... */\n      dup2\n      mstore\n      0x20\n      add\n        /* \"contracts/CryptoKids.sol\":1122:1128  amount */\n      dup5\n        /* \"contracts/CryptoKids.sol\":1003:1165  Kid(\r... */\n      dup2\n      mstore\n      0x20\n      add\n        /* \"contracts/CryptoKids.sol\":1143:1154  canWithdraw */\n      dup4\n        /* \"contracts/CryptoKids.sol\":1003:1165  Kid(\r... */\n      iszero\n      iszero\n      dup2\n      mstore\n      pop\n        /* \"contracts/CryptoKids.sol\":993:1166  kids.push(Kid(\r... */\n      swap1\n      dup1\n      0x01\n      dup2\n      sload\n      add\n      dup1\n      dup3\n      sstore\n      dup1\n      swap2\n      pop\n      pop\n      0x01\n      swap1\n      sub\n      swap1\n      0x00\n      mstore\n      keccak256(0x00, 0x20)\n      swap1\n      0x06\n      mul\n      add\n      0x00\n      swap1\n      swap2\n      swap1\n      swap2\n      swap1\n      swap2\n      pop\n      0x00\n      dup3\n      add\n      mload\n      dup2\n      0x00\n      add\n      exp(0x0100, 0x00)\n      dup2\n      sload\n      dup2\n      0xffffffffffffffffffffffffffffffffffffffff\n      mul\n      not\n      and\n      swap1\n      dup4\n      0xffffffffffffffffffffffffffffffffffffffff\n      and\n      mul\n      or\n      swap1\n      sstore\n      pop\n      0x20\n      dup3\n      add\n      mload\n      dup2\n      0x01\n      add\n      swap1\n      dup1\n      mload\n      swap1\n      0x20\n      add\n      swap1\n      tag_45\n      swap3\n      swap2\n      swap1\n      tag_46\n      jump\t// in\n    tag_45:\n      pop\n      0x40\n      dup3\n      add\n      mload\n      dup2\n      0x02\n      add\n      swap1\n      dup1\n      mload\n      swap1\n      0x20\n      add\n      swap1\n      tag_47\n      swap3\n      swap2\n      swap1\n      tag_46\n      jump\t// in\n    tag_47:\n      pop\n      0x60\n      dup3\n      add\n      mload\n      dup2\n      0x03\n      add\n      sstore\n      0x80\n      dup3\n      add\n      mload\n      dup2\n      0x04\n      add\n      sstore\n      0xa0\n      dup3\n      add\n      mload\n      dup2\n      0x05\n      add\n      exp(0x0100, 0x00)\n      dup2\n      sload\n      dup2\n      0xff\n      mul\n      not\n      and\n      swap1\n      dup4\n      iszero\n      iszero\n      mul\n      or\n      swap1\n      sstore\n      pop\n      pop\n      pop\n        /* \"contracts/CryptoKids.sol\":821:1174  function addKid(address payable walletAddress, string memory firstName, string memory lastName, uint releaseTime, uint amount, bool canWithdraw) public onlyOwner{\r... */\n      pop\n      pop\n      pop\n      pop\n      pop\n      pop\n      jump\t// out\n        /* \"contracts/CryptoKids.sol\":3017:3431  function withdraw(address payable walletAddress) payable public {\r... */\n    tag_16:\n        /* \"contracts/CryptoKids.sol\":3092:3098  uint i */\n      0x00\n        /* \"contracts/CryptoKids.sol\":3101:3124  getIndex(walletAddress) */\n      tag_49\n        /* \"contracts/CryptoKids.sol\":3110:3123  walletAddress */\n      dup3\n        /* \"contracts/CryptoKids.sol\":3101:3109  getIndex */\n      tag_50\n        /* \"contracts/CryptoKids.sol\":3101:3124  getIndex(walletAddress) */\n      jump\t// in\n    tag_49:\n        /* \"contracts/CryptoKids.sol\":3092:3124  uint i = getIndex(walletAddress) */\n      swap1\n      pop\n        /* \"contracts/CryptoKids.sol\":3157:3161  kids */\n      0x01\n        /* \"contracts/CryptoKids.sol\":3162:3163  i */\n      dup2\n        /* \"contracts/CryptoKids.sol\":3157:3164  kids[i] */\n      dup2\n      sload\n      dup2\n      lt\n      tag_51\n      jumpi\n      tag_52\n      tag_53\n      jump\t// in\n    tag_52:\n    tag_51:\n      swap1\n      0x00\n      mstore\n      keccak256(0x00, 0x20)\n      swap1\n      0x06\n      mul\n      add\n        /* \"contracts/CryptoKids.sol\":3157:3178  kids[i].walletAddress */\n      0x00\n      add\n      0x00\n      swap1\n      sload\n      swap1\n      0x0100\n      exp\n      swap1\n      div\n      0xffffffffffffffffffffffffffffffffffffffff\n      and\n        /* \"contracts/CryptoKids.sol\":3143:3178  msg.sender == kids[i].walletAddress */\n      0xffffffffffffffffffffffffffffffffffffffff\n      and\n        /* \"contracts/CryptoKids.sol\":3143:3153  msg.sender */\n      caller\n        /* \"contracts/CryptoKids.sol\":3143:3178  msg.sender == kids[i].walletAddress */\n      0xffffffffffffffffffffffffffffffffffffffff\n      and\n      eq\n        /* \"contracts/CryptoKids.sol\":3135:3214  require(msg.sender == kids[i].walletAddress, \"You must be the kid to withdraw\") */\n      tag_55\n      jumpi\n      mload(0x40)\n      0x08c379a000000000000000000000000000000000000000000000000000000000\n      dup2\n      mstore\n      0x04\n      add\n      tag_56\n      swap1\n      tag_57\n      jump\t// in\n    tag_56:\n      mload(0x40)\n      dup1\n      swap2\n      sub\n      swap1\n      revert\n    tag_55:\n        /* \"contracts/CryptoKids.sol\":3316:3320  true */\n      0x01\n        /* \"contracts/CryptoKids.sol\":3293:3320  kids[i].canWithdraw == true */\n      iszero\n      iszero\n        /* \"contracts/CryptoKids.sol\":3293:3297  kids */\n      0x01\n        /* \"contracts/CryptoKids.sol\":3298:3299  i */\n      dup3\n        /* \"contracts/CryptoKids.sol\":3293:3300  kids[i] */\n      dup2\n      sload\n      dup2\n      lt\n      tag_58\n      jumpi\n      tag_59\n      tag_53\n      jump\t// in\n    tag_59:\n    tag_58:\n      swap1\n      0x00\n      mstore\n      keccak256(0x00, 0x20)\n      swap1\n      0x06\n      mul\n      add\n        /* \"contracts/CryptoKids.sol\":3293:3312  kids[i].canWithdraw */\n      0x05\n      add\n      0x00\n      swap1\n      sload\n      swap1\n      0x0100\n      exp\n      swap1\n      div\n      0xff\n      and\n        /* \"contracts/CryptoKids.sol\":3293:3320  kids[i].canWithdraw == true */\n      iszero\n      iszero\n      eq\n        /* \"contracts/CryptoKids.sol\":3285:3366  require(kids[i].canWithdraw == true, \"you are not able to withdraw at this time\") */\n      tag_61\n      jumpi\n      mload(0x40)\n      0x08c379a000000000000000000000000000000000000000000000000000000000\n      dup2\n      mstore\n      0x04\n      add\n      tag_62\n      swap1\n      tag_63\n      jump\t// in\n    tag_62:\n      mload(0x40)\n      dup1\n      swap2\n      sub\n      swap1\n      revert\n    tag_61:\n        /* \"contracts/CryptoKids.sol\":3377:3381  kids */\n      0x01\n        /* \"contracts/CryptoKids.sol\":3382:3383  i */\n      dup2\n        /* \"contracts/CryptoKids.sol\":3377:3384  kids[i] */\n      dup2\n      sload\n      dup2\n      lt\n      tag_64\n      jumpi\n      tag_65\n      tag_53\n      jump\t// in\n    tag_65:\n    tag_64:\n      swap1\n      0x00\n      mstore\n      keccak256(0x00, 0x20)\n      swap1\n      0x06\n      mul\n      add\n        /* \"contracts/CryptoKids.sol\":3377:3398  kids[i].walletAddress */\n      0x00\n      add\n      0x00\n      swap1\n      sload\n      swap1\n      0x0100\n      exp\n      swap1\n      div\n      0xffffffffffffffffffffffffffffffffffffffff\n      and\n        /* \"contracts/CryptoKids.sol\":3377:3407  kids[i].walletAddress.transfer */\n      0xffffffffffffffffffffffffffffffffffffffff\n      and\n        /* \"contracts/CryptoKids.sol\":3377:3423  kids[i].walletAddress.transfer(kids[i].amount) */\n      0x08fc\n        /* \"contracts/CryptoKids.sol\":3408:3412  kids */\n      0x01\n        /* \"contracts/CryptoKids.sol\":3413:3414  i */\n      dup4\n        /* \"contracts/CryptoKids.sol\":3408:3415  kids[i] */\n      dup2\n      sload\n      dup2\n      lt\n      tag_67\n      jumpi\n      tag_68\n      tag_53\n      jump\t// in\n    tag_68:\n    tag_67:\n      swap1\n      0x00\n      mstore\n      keccak256(0x00, 0x20)\n      swap1\n      0x06\n      mul\n      add\n        /* \"contracts/CryptoKids.sol\":3408:3422  kids[i].amount */\n      0x04\n      add\n      sload\n        /* \"contracts/CryptoKids.sol\":3377:3423  kids[i].walletAddress.transfer(kids[i].amount) */\n      swap1\n      dup2\n      iszero\n      mul\n      swap1\n      mload(0x40)\n      0x00\n      mload(0x40)\n      dup1\n      dup4\n      sub\n      dup2\n      dup6\n      dup9\n      dup9\n      call\n      swap4\n      pop\n      pop\n      pop\n      pop\n      iszero\n      dup1\n      iszero\n      tag_71\n      jumpi\n      returndatasize\n      0x00\n      dup1\n      returndatacopy\n      revert(0x00, returndatasize)\n    tag_71:\n      pop\n        /* \"contracts/CryptoKids.sol\":3081:3431  {\r... */\n      pop\n        /* \"contracts/CryptoKids.sol\":3017:3431  function withdraw(address payable walletAddress) payable public {\r... */\n      pop\n      jump\t// out\n        /* \"contracts/CryptoKids.sol\":1182:1327  function balanceOf() public view returns(uint) { // only executable locally (view) uses 0 gas\r... */\n    tag_19:\n        /* \"contracts/CryptoKids.sol\":1223:1227  uint */\n      0x00\n        /* \"contracts/CryptoKids.sol\":1292:1313  address(this).balance */\n      selfbalance\n        /* \"contracts/CryptoKids.sol\":1285:1313  return address(this).balance */\n      swap1\n      pop\n        /* \"contracts/CryptoKids.sol\":1182:1327  function balanceOf() public view returns(uint) { // only executable locally (view) uses 0 gas\r... */\n      swap1\n      jump\t// out\n        /* \"contracts/CryptoKids.sol\":609:626  Kid[] public kids */\n    tag_26:\n      0x01\n      dup2\n      dup2\n      sload\n      dup2\n      lt\n      tag_73\n      jumpi\n      0x00\n      dup1\n      revert\n    tag_73:\n      swap1\n      0x00\n      mstore\n      keccak256(0x00, 0x20)\n      swap1\n      0x06\n      mul\n      add\n      0x00\n      swap2\n      pop\n      swap1\n      pop\n      dup1\n      0x00\n      add\n      0x00\n      swap1\n      sload\n      swap1\n      0x0100\n      exp\n      swap1\n      div\n      0xffffffffffffffffffffffffffffffffffffffff\n      and\n      swap1\n      dup1\n      0x01\n      add\n      dup1\n      sload\n      tag_75\n      swap1\n      tag_76\n      jump\t// in\n    tag_75:\n      dup1\n      0x1f\n      add\n      0x20\n      dup1\n      swap2\n      div\n      mul\n      0x20\n      add\n      mload(0x40)\n      swap1\n      dup2\n      add\n      0x40\n      mstore\n      dup1\n      swap3\n      swap2\n      swap1\n      dup2\n      dup2\n      mstore\n      0x20\n      add\n      dup3\n      dup1\n      sload\n      tag_77\n      swap1\n      tag_76\n      jump\t// in\n    tag_77:\n      dup1\n      iszero\n      tag_78\n      jumpi\n      dup1\n      0x1f\n      lt\n      tag_79\n      jumpi\n      0x0100\n      dup1\n      dup4\n      sload\n      div\n      mul\n      dup4\n      mstore\n      swap2\n      0x20\n      add\n      swap2\n      jump(tag_78)\n    tag_79:\n      dup3\n      add\n      swap2\n      swap1\n      0x00\n      mstore\n      keccak256(0x00, 0x20)\n      swap1\n    tag_80:\n      dup2\n      sload\n      dup2\n      mstore\n      swap1\n      0x01\n      add\n      swap1\n      0x20\n      add\n      dup1\n      dup4\n      gt\n      tag_80\n      jumpi\n      dup3\n      swap1\n      sub\n      0x1f\n      and\n      dup3\n      add\n      swap2\n    tag_78:\n      pop\n      pop\n      pop\n      pop\n      pop\n      swap1\n      dup1\n      0x02\n      add\n      dup1\n      sload\n      tag_81\n      swap1\n      tag_76\n      jump\t// in\n    tag_81:\n      dup1\n      0x1f\n      add\n      0x20\n      dup1\n      swap2\n      div\n      mul\n      0x20\n      add\n      mload(0x40)\n      swap1\n      dup2\n      add\n      0x40\n      mstore\n      dup1\n      swap3\n      swap2\n      swap1\n      dup2\n      dup2\n      mstore\n      0x20\n      add\n      dup3\n      dup1\n      sload\n      tag_82\n      swap1\n      tag_76\n      jump\t// in\n    tag_82:\n      dup1\n      iszero\n      tag_83\n      jumpi\n      dup1\n      0x1f\n      lt\n      tag_84\n      jumpi\n      0x0100\n      dup1\n      dup4\n      sload\n      div\n      mul\n      dup4\n      mstore\n      swap2\n      0x20\n      add\n      swap2\n      jump(tag_83)\n    tag_84:\n      dup3\n      add\n      swap2\n      swap1\n      0x00\n      mstore\n      keccak256(0x00, 0x20)\n      swap1\n    tag_85:\n      dup2\n      sload\n      dup2\n      mstore\n      swap1\n      0x01\n      add\n      swap1\n      0x20\n      add\n      dup1\n      dup4\n      gt\n      tag_85\n      jumpi\n      dup3\n      swap1\n      sub\n      0x1f\n      and\n      dup3\n      add\n      swap2\n    tag_83:\n      pop\n      pop\n      pop\n      pop\n      pop\n      swap1\n      dup1\n      0x03\n      add\n      sload\n      swap1\n      dup1\n      0x04\n      add\n      sload\n      swap1\n      dup1\n      0x05\n      add\n      0x00\n      swap1\n      sload\n      swap1\n      0x0100\n      exp\n      swap1\n      div\n      0xff\n      and\n      swap1\n      pop\n      dup7\n      jump\t// out\n        /* \"contracts/CryptoKids.sol\":2473:2982  function ableToWithdraw(address walletAddress) public returns(bool) {\r... */\n    tag_33:\n        /* \"contracts/CryptoKids.sol\":2535:2539  bool */\n      0x00\n        /* \"contracts/CryptoKids.sol\":2552:2558  uint i */\n      dup1\n        /* \"contracts/CryptoKids.sol\":2561:2584  getIndex(walletAddress) */\n      tag_87\n        /* \"contracts/CryptoKids.sol\":2570:2583  walletAddress */\n      dup4\n        /* \"contracts/CryptoKids.sol\":2561:2569  getIndex */\n      tag_50\n        /* \"contracts/CryptoKids.sol\":2561:2584  getIndex(walletAddress) */\n      jump\t// in\n    tag_87:\n        /* \"contracts/CryptoKids.sol\":2552:2584  uint i = getIndex(walletAddress) */\n      swap1\n      pop\n        /* \"contracts/CryptoKids.sol\":2621:2625  kids */\n      0x01\n        /* \"contracts/CryptoKids.sol\":2626:2627  i */\n      dup2\n        /* \"contracts/CryptoKids.sol\":2621:2628  kids[i] */\n      dup2\n      sload\n      dup2\n      lt\n      tag_88\n      jumpi\n      tag_89\n      tag_53\n      jump\t// in\n    tag_89:\n    tag_88:\n      swap1\n      0x00\n      mstore\n      keccak256(0x00, 0x20)\n      swap1\n      0x06\n      mul\n      add\n        /* \"contracts/CryptoKids.sol\":2621:2640  kids[i].releaseTime */\n      0x03\n      add\n      sload\n        /* \"contracts/CryptoKids.sol\":2603:2618  block.timestamp */\n      timestamp\n        /* \"contracts/CryptoKids.sol\":2603:2640  block.timestamp > kids[i].releaseTime */\n      gt\n        /* \"contracts/CryptoKids.sol\":2595:2668  require(block.timestamp > kids[i].releaseTime, \"Unable to withdraw yet!\") */\n      tag_91\n      jumpi\n      mload(0x40)\n      0x08c379a000000000000000000000000000000000000000000000000000000000\n      dup2\n      mstore\n      0x04\n      add\n      tag_92\n      swap1\n      tag_93\n      jump\t// in\n    tag_92:\n      mload(0x40)\n      dup1\n      swap2\n      sub\n      swap1\n      revert\n    tag_91:\n        /* \"contracts/CryptoKids.sol\":2700:2704  kids */\n      0x01\n        /* \"contracts/CryptoKids.sol\":2705:2706  i */\n      dup2\n        /* \"contracts/CryptoKids.sol\":2700:2707  kids[i] */\n      dup2\n      sload\n      dup2\n      lt\n      tag_94\n      jumpi\n      tag_95\n      tag_53\n      jump\t// in\n    tag_95:\n    tag_94:\n      swap1\n      0x00\n      mstore\n      keccak256(0x00, 0x20)\n      swap1\n      0x06\n      mul\n      add\n        /* \"contracts/CryptoKids.sol\":2700:2719  kids[i].releaseTime */\n      0x03\n      add\n      sload\n        /* \"contracts/CryptoKids.sol\":2682:2697  block.timestamp */\n      timestamp\n        /* \"contracts/CryptoKids.sol\":2682:2719  block.timestamp > kids[i].releaseTime */\n      gt\n        /* \"contracts/CryptoKids.sol\":2679:2971  if(block.timestamp > kids[i].releaseTime){ //timestamp can be potentia fraud issue when small amounts of time matter. This is years, not an issue\r... */\n      iszero\n      tag_97\n      jumpi\n        /* \"contracts/CryptoKids.sol\":2860:2864  true */\n      0x01\n        /* \"contracts/CryptoKids.sol\":2838:2842  kids */\n      dup1\n        /* \"contracts/CryptoKids.sol\":2843:2844  i */\n      dup3\n        /* \"contracts/CryptoKids.sol\":2838:2845  kids[i] */\n      dup2\n      sload\n      dup2\n      lt\n      tag_98\n      jumpi\n      tag_99\n      tag_53\n      jump\t// in\n    tag_99:\n    tag_98:\n      swap1\n      0x00\n      mstore\n      keccak256(0x00, 0x20)\n      swap1\n      0x06\n      mul\n      add\n        /* \"contracts/CryptoKids.sol\":2838:2857  kids[i].canWithdraw */\n      0x05\n      add\n      0x00\n        /* \"contracts/CryptoKids.sol\":2838:2864  kids[i].canWithdraw = true */\n      0x0100\n      exp\n      dup2\n      sload\n      dup2\n      0xff\n      mul\n      not\n      and\n      swap1\n      dup4\n      iszero\n      iszero\n      mul\n      or\n      swap1\n      sstore\n      pop\n        /* \"contracts/CryptoKids.sol\":2886:2890  true */\n      0x01\n        /* \"contracts/CryptoKids.sol\":2879:2890  return true */\n      swap2\n      pop\n      pop\n      jump(tag_86)\n        /* \"contracts/CryptoKids.sol\":2679:2971  if(block.timestamp > kids[i].releaseTime){ //timestamp can be potentia fraud issue when small amounts of time matter. This is years, not an issue\r... */\n    tag_97:\n        /* \"contracts/CryptoKids.sol\":2940:2945  false */\n      0x00\n        /* \"contracts/CryptoKids.sol\":2933:2945  return false */\n      swap2\n      pop\n      pop\n        /* \"contracts/CryptoKids.sol\":2473:2982  function ableToWithdraw(address walletAddress) public returns(bool) {\r... */\n    tag_86:\n      swap2\n      swap1\n      pop\n      jump\t// out\n        /* \"contracts/CryptoKids.sol\":1393:1494  function deposit(address walletAddress) payable public {\r... */\n    tag_38:\n        /* \"contracts/CryptoKids.sol\":1459:1490  addToKidsBalance(walletAddress) */\n      tag_103\n        /* \"contracts/CryptoKids.sol\":1476:1489  walletAddress */\n      dup2\n        /* \"contracts/CryptoKids.sol\":1459:1475  addToKidsBalance */\n      tag_104\n        /* \"contracts/CryptoKids.sol\":1459:1490  addToKidsBalance(walletAddress) */\n      jump\t// in\n    tag_103:\n        /* \"contracts/CryptoKids.sol\":1393:1494  function deposit(address walletAddress) payable public {\r... */\n      pop\n      jump\t// out\n        /* \"contracts/CryptoKids.sol\":2056:2387  function getIndex(address walletAddress) view private returns(uint) {\r... */\n    tag_50:\n        /* \"contracts/CryptoKids.sol\":2118:2122  uint */\n      0x00\n        /* \"contracts/CryptoKids.sol\":2139:2145  uint i */\n      dup1\n        /* \"contracts/CryptoKids.sol\":2148:2149  0 */\n      0x00\n        /* \"contracts/CryptoKids.sol\":2139:2149  uint i = 0 */\n      swap1\n      pop\n        /* \"contracts/CryptoKids.sol\":2135:2288  for(uint i = 0; i < kids.length; i++) {\r... */\n    tag_106:\n        /* \"contracts/CryptoKids.sol\":2155:2159  kids */\n      0x01\n        /* \"contracts/CryptoKids.sol\":2155:2166  kids.length */\n      dup1\n      sload\n      swap1\n      pop\n        /* \"contracts/CryptoKids.sol\":2151:2152  i */\n      dup2\n        /* \"contracts/CryptoKids.sol\":2151:2166  i < kids.length */\n      lt\n        /* \"contracts/CryptoKids.sol\":2135:2288  for(uint i = 0; i < kids.length; i++) {\r... */\n      iszero\n      tag_107\n      jumpi\n        /* \"contracts/CryptoKids.sol\":2217:2230  walletAddress */\n      dup3\n        /* \"contracts/CryptoKids.sol\":2192:2230  kids[i].walletAddress == walletAddress */\n      0xffffffffffffffffffffffffffffffffffffffff\n      and\n        /* \"contracts/CryptoKids.sol\":2192:2196  kids */\n      0x01\n        /* \"contracts/CryptoKids.sol\":2197:2198  i */\n      dup3\n        /* \"contracts/CryptoKids.sol\":2192:2199  kids[i] */\n      dup2\n      sload\n      dup2\n      lt\n      tag_109\n      jumpi\n      tag_110\n      tag_53\n      jump\t// in\n    tag_110:\n    tag_109:\n      swap1\n      0x00\n      mstore\n      keccak256(0x00, 0x20)\n      swap1\n      0x06\n      mul\n      add\n        /* \"contracts/CryptoKids.sol\":2192:2213  kids[i].walletAddress */\n      0x00\n      add\n      0x00\n      swap1\n      sload\n      swap1\n      0x0100\n      exp\n      swap1\n      div\n      0xffffffffffffffffffffffffffffffffffffffff\n      and\n        /* \"contracts/CryptoKids.sol\":2192:2230  kids[i].walletAddress == walletAddress */\n      0xffffffffffffffffffffffffffffffffffffffff\n      and\n      eq\n        /* \"contracts/CryptoKids.sol\":2188:2277  if (kids[i].walletAddress == walletAddress) {\r... */\n      iszero\n      tag_112\n      jumpi\n        /* \"contracts/CryptoKids.sol\":2258:2259  i */\n      dup1\n        /* \"contracts/CryptoKids.sol\":2251:2259  return i */\n      swap2\n      pop\n      pop\n      jump(tag_105)\n        /* \"contracts/CryptoKids.sol\":2188:2277  if (kids[i].walletAddress == walletAddress) {\r... */\n    tag_112:\n        /* \"contracts/CryptoKids.sol\":2168:2171  i++ */\n      dup1\n      dup1\n      tag_113\n      swap1\n      tag_114\n      jump\t// in\n    tag_113:\n      swap2\n      pop\n      pop\n        /* \"contracts/CryptoKids.sol\":2135:2288  for(uint i = 0; i < kids.length; i++) {\r... */\n      jump(tag_106)\n    tag_107:\n      pop\n        /* \"contracts/CryptoKids.sol\":2305:2307  50 */\n      0x32\n        /* \"contracts/CryptoKids.sol\":2298:2307  return 50 */\n      swap1\n      pop\n        /* \"contracts/CryptoKids.sol\":2056:2387  function getIndex(address walletAddress) view private returns(uint) {\r... */\n    tag_105:\n      swap2\n      swap1\n      pop\n      jump\t// out\n        /* \"contracts/CryptoKids.sol\":1506:2047  function addToKidsBalance(address walletAddress) private {\r... */\n    tag_104:\n        /* \"contracts/CryptoKids.sol\":1578:1584  uint i */\n      0x00\n        /* \"contracts/CryptoKids.sol\":1574:2038  for(uint i = 0; i < kids.length; i++ ) {                //just like java except for uint\r... */\n    tag_116:\n        /* \"contracts/CryptoKids.sol\":1594:1598  kids */\n      0x01\n        /* \"contracts/CryptoKids.sol\":1594:1605  kids.length */\n      dup1\n      sload\n      swap1\n      pop\n        /* \"contracts/CryptoKids.sol\":1590:1591  i */\n      dup2\n        /* \"contracts/CryptoKids.sol\":1590:1605  i < kids.length */\n      lt\n        /* \"contracts/CryptoKids.sol\":1574:2038  for(uint i = 0; i < kids.length; i++ ) {                //just like java except for uint\r... */\n      iszero\n      tag_117\n      jumpi\n        /* \"contracts/CryptoKids.sol\":1704:1717  walletAddress */\n      dup2\n        /* \"contracts/CryptoKids.sol\":1679:1717  kids[i].walletAddress == walletAddress */\n      0xffffffffffffffffffffffffffffffffffffffff\n      and\n        /* \"contracts/CryptoKids.sol\":1679:1683  kids */\n      0x01\n        /* \"contracts/CryptoKids.sol\":1684:1685  i */\n      dup3\n        /* \"contracts/CryptoKids.sol\":1679:1686  kids[i] */\n      dup2\n      sload\n      dup2\n      lt\n      tag_119\n      jumpi\n      tag_120\n      tag_53\n      jump\t// in\n    tag_120:\n    tag_119:\n      swap1\n      0x00\n      mstore\n      keccak256(0x00, 0x20)\n      swap1\n      0x06\n      mul\n      add\n        /* \"contracts/CryptoKids.sol\":1679:1700  kids[i].walletAddress */\n      0x00\n      add\n      0x00\n      swap1\n      sload\n      swap1\n      0x0100\n      exp\n      swap1\n      div\n      0xffffffffffffffffffffffffffffffffffffffff\n      and\n        /* \"contracts/CryptoKids.sol\":1679:1717  kids[i].walletAddress == walletAddress */\n      0xffffffffffffffffffffffffffffffffffffffff\n      and\n      eq\n        /* \"contracts/CryptoKids.sol\":1676:2025  if(kids[i].walletAddress == walletAddress) {        //loop goes through all the potential kids wallet address and finds the one that equals desired addr.\r... */\n      iszero\n      tag_122\n      jumpi\n        /* \"contracts/CryptoKids.sol\":1865:1874  msg.value */\n      callvalue\n        /* \"contracts/CryptoKids.sol\":1847:1851  kids */\n      0x01\n        /* \"contracts/CryptoKids.sol\":1852:1853  i */\n      dup3\n        /* \"contracts/CryptoKids.sol\":1847:1854  kids[i] */\n      dup2\n      sload\n      dup2\n      lt\n      tag_123\n      jumpi\n      tag_124\n      tag_53\n      jump\t// in\n    tag_124:\n    tag_123:\n      swap1\n      0x00\n      mstore\n      keccak256(0x00, 0x20)\n      swap1\n      0x06\n      mul\n      add\n        /* \"contracts/CryptoKids.sol\":1847:1861  kids[i].amount */\n      0x04\n      add\n      0x00\n        /* \"contracts/CryptoKids.sol\":1847:1874  kids[i].amount += msg.value */\n      dup3\n      dup3\n      sload\n      tag_126\n      swap2\n      swap1\n      tag_127\n      jump\t// in\n    tag_126:\n      swap3\n      pop\n      pop\n      dup2\n      swap1\n      sstore\n      pop\n        /* \"contracts/CryptoKids.sol\":1949:2009  LogKidFundingReceived(walletAddress, msg.value, balanceOf()) */\n      0xdfa390b0c1c515579c441209b0f88953b3383e444305380136073b84d9ae5eaf\n        /* \"contracts/CryptoKids.sol\":1971:1984  walletAddress */\n      dup3\n        /* \"contracts/CryptoKids.sol\":1986:1995  msg.value */\n      callvalue\n        /* \"contracts/CryptoKids.sol\":1997:2008  balanceOf() */\n      tag_128\n        /* \"contracts/CryptoKids.sol\":1997:2006  balanceOf */\n      tag_19\n        /* \"contracts/CryptoKids.sol\":1997:2008  balanceOf() */\n      jump\t// in\n    tag_128:\n        /* \"contracts/CryptoKids.sol\":1949:2009  LogKidFundingReceived(walletAddress, msg.value, balanceOf()) */\n      mload(0x40)\n      tag_129\n      swap4\n      swap3\n      swap2\n      swap1\n      tag_130\n      jump\t// in\n    tag_129:\n      mload(0x40)\n      dup1\n      swap2\n      sub\n      swap1\n      log1\n        /* \"contracts/CryptoKids.sol\":1676:2025  if(kids[i].walletAddress == walletAddress) {        //loop goes through all the potential kids wallet address and finds the one that equals desired addr.\r... */\n    tag_122:\n        /* \"contracts/CryptoKids.sol\":1607:1610  i++ */\n      dup1\n      dup1\n      tag_131\n      swap1\n      tag_114\n      jump\t// in\n    tag_131:\n      swap2\n      pop\n      pop\n        /* \"contracts/CryptoKids.sol\":1574:2038  for(uint i = 0; i < kids.length; i++ ) {                //just like java except for uint\r... */\n      jump(tag_116)\n    tag_117:\n      pop\n        /* \"contracts/CryptoKids.sol\":1506:2047  function addToKidsBalance(address walletAddress) private {\r... */\n      pop\n      jump\t// out\n    tag_46:\n      dup3\n      dup1\n      sload\n      tag_132\n      swap1\n      tag_76\n      jump\t// in\n    tag_132:\n      swap1\n      0x00\n      mstore\n      keccak256(0x00, 0x20)\n      swap1\n      0x1f\n      add\n      0x20\n      swap1\n      div\n      dup2\n      add\n      swap3\n      dup3\n      tag_134\n      jumpi\n      0x00\n      dup6\n      sstore\n      jump(tag_133)\n    tag_134:\n      dup3\n      0x1f\n      lt\n      tag_135\n      jumpi\n      dup1\n      mload\n      not(0xff)\n      and\n      dup4\n      dup1\n      add\n      or\n      dup6\n      sstore\n      jump(tag_133)\n    tag_135:\n      dup3\n      dup1\n      add\n      0x01\n      add\n      dup6\n      sstore\n      dup3\n      iszero\n      tag_133\n      jumpi\n      swap2\n      dup3\n      add\n    tag_136:\n      dup3\n      dup2\n      gt\n      iszero\n      tag_137\n      jumpi\n      dup3\n      mload\n      dup3\n      sstore\n      swap2\n      0x20\n      add\n      swap2\n      swap1\n      0x01\n      add\n      swap1\n      jump(tag_136)\n    tag_137:\n    tag_133:\n      pop\n      swap1\n      pop\n      tag_138\n      swap2\n      swap1\n      tag_139\n      jump\t// in\n    tag_138:\n      pop\n      swap1\n      jump\t// out\n    tag_139:\n    tag_140:\n      dup1\n      dup3\n      gt\n      iszero\n      tag_141\n      jumpi\n      0x00\n      dup2\n      0x00\n      swap1\n      sstore\n      pop\n      0x01\n      add\n      jump(tag_140)\n    tag_141:\n      pop\n      swap1\n      jump\t// out\n        /* \"#utility.yul\":7:419   */\n    tag_143:\n        /* \"#utility.yul\":85:90   */\n      0x00\n        /* \"#utility.yul\":110:176   */\n      tag_145\n        /* \"#utility.yul\":126:175   */\n      tag_146\n        /* \"#utility.yul\":168:174   */\n      dup5\n        /* \"#utility.yul\":126:175   */\n      tag_147\n      jump\t// in\n    tag_146:\n        /* \"#utility.yul\":110:176   */\n      tag_148\n      jump\t// in\n    tag_145:\n        /* \"#utility.yul\":101:176   */\n      swap1\n      pop\n        /* \"#utility.yul\":199:205   */\n      dup3\n        /* \"#utility.yul\":192:197   */\n      dup2\n        /* \"#utility.yul\":185:206   */\n      mstore\n        /* \"#utility.yul\":237:241   */\n      0x20\n        /* \"#utility.yul\":230:235   */\n      dup2\n        /* \"#utility.yul\":226:242   */\n      add\n        /* \"#utility.yul\":275:278   */\n      dup5\n        /* \"#utility.yul\":266:272   */\n      dup5\n        /* \"#utility.yul\":261:264   */\n      dup5\n        /* \"#utility.yul\":257:273   */\n      add\n        /* \"#utility.yul\":254:279   */\n      gt\n        /* \"#utility.yul\":251:363   */\n      iszero\n      tag_149\n      jumpi\n        /* \"#utility.yul\":282:361   */\n      tag_150\n      tag_151\n      jump\t// in\n    tag_150:\n        /* \"#utility.yul\":251:363   */\n    tag_149:\n        /* \"#utility.yul\":372:413   */\n      tag_152\n        /* \"#utility.yul\":406:412   */\n      dup5\n        /* \"#utility.yul\":401:404   */\n      dup3\n        /* \"#utility.yul\":396:399   */\n      dup6\n        /* \"#utility.yul\":372:413   */\n      tag_153\n      jump\t// in\n    tag_152:\n        /* \"#utility.yul\":91:419   */\n      pop\n        /* \"#utility.yul\":7:419   */\n      swap4\n      swap3\n      pop\n      pop\n      pop\n      jump\t// out\n        /* \"#utility.yul\":425:564   */\n    tag_154:\n        /* \"#utility.yul\":471:476   */\n      0x00\n        /* \"#utility.yul\":509:515   */\n      dup2\n        /* \"#utility.yul\":496:516   */\n      calldataload\n        /* \"#utility.yul\":487:516   */\n      swap1\n      pop\n        /* \"#utility.yul\":525:558   */\n      tag_156\n        /* \"#utility.yul\":552:557   */\n      dup2\n        /* \"#utility.yul\":525:558   */\n      tag_157\n      jump\t// in\n    tag_156:\n        /* \"#utility.yul\":425:564   */\n      swap3\n      swap2\n      pop\n      pop\n      jump\t// out\n        /* \"#utility.yul\":570:725   */\n    tag_158:\n        /* \"#utility.yul\":624:629   */\n      0x00\n        /* \"#utility.yul\":662:668   */\n      dup2\n        /* \"#utility.yul\":649:669   */\n      calldataload\n        /* \"#utility.yul\":640:669   */\n      swap1\n      pop\n        /* \"#utility.yul\":678:719   */\n      tag_160\n        /* \"#utility.yul\":713:718   */\n      dup2\n        /* \"#utility.yul\":678:719   */\n      tag_161\n      jump\t// in\n    tag_160:\n        /* \"#utility.yul\":570:725   */\n      swap3\n      swap2\n      pop\n      pop\n      jump\t// out\n        /* \"#utility.yul\":731:864   */\n    tag_162:\n        /* \"#utility.yul\":774:779   */\n      0x00\n        /* \"#utility.yul\":812:818   */\n      dup2\n        /* \"#utility.yul\":799:819   */\n      calldataload\n        /* \"#utility.yul\":790:819   */\n      swap1\n      pop\n        /* \"#utility.yul\":828:858   */\n      tag_164\n        /* \"#utility.yul\":852:857   */\n      dup2\n        /* \"#utility.yul\":828:858   */\n      tag_165\n      jump\t// in\n    tag_164:\n        /* \"#utility.yul\":731:864   */\n      swap3\n      swap2\n      pop\n      pop\n      jump\t// out\n        /* \"#utility.yul\":884:1224   */\n    tag_166:\n        /* \"#utility.yul\":940:945   */\n      0x00\n        /* \"#utility.yul\":989:992   */\n      dup3\n        /* \"#utility.yul\":982:986   */\n      0x1f\n        /* \"#utility.yul\":974:980   */\n      dup4\n        /* \"#utility.yul\":970:987   */\n      add\n        /* \"#utility.yul\":966:993   */\n      slt\n        /* \"#utility.yul\":956:1078   */\n      tag_168\n      jumpi\n        /* \"#utility.yul\":997:1076   */\n      tag_169\n      tag_170\n      jump\t// in\n    tag_169:\n        /* \"#utility.yul\":956:1078   */\n    tag_168:\n        /* \"#utility.yul\":1114:1120   */\n      dup2\n        /* \"#utility.yul\":1101:1121   */\n      calldataload\n        /* \"#utility.yul\":1139:1218   */\n      tag_171\n        /* \"#utility.yul\":1214:1217   */\n      dup5\n        /* \"#utility.yul\":1206:1212   */\n      dup3\n        /* \"#utility.yul\":1199:1203   */\n      0x20\n        /* \"#utility.yul\":1191:1197   */\n      dup7\n        /* \"#utility.yul\":1187:1204   */\n      add\n        /* \"#utility.yul\":1139:1218   */\n      tag_143\n      jump\t// in\n    tag_171:\n        /* \"#utility.yul\":1130:1218   */\n      swap2\n      pop\n        /* \"#utility.yul\":946:1224   */\n      pop\n        /* \"#utility.yul\":884:1224   */\n      swap3\n      swap2\n      pop\n      pop\n      jump\t// out\n        /* \"#utility.yul\":1230:1369   */\n    tag_172:\n        /* \"#utility.yul\":1276:1281   */\n      0x00\n        /* \"#utility.yul\":1314:1320   */\n      dup2\n        /* \"#utility.yul\":1301:1321   */\n      calldataload\n        /* \"#utility.yul\":1292:1321   */\n      swap1\n      pop\n        /* \"#utility.yul\":1330:1363   */\n      tag_174\n        /* \"#utility.yul\":1357:1362   */\n      dup2\n        /* \"#utility.yul\":1330:1363   */\n      tag_175\n      jump\t// in\n    tag_174:\n        /* \"#utility.yul\":1230:1369   */\n      swap3\n      swap2\n      pop\n      pop\n      jump\t// out\n        /* \"#utility.yul\":1375:1704   */\n    tag_32:\n        /* \"#utility.yul\":1434:1440   */\n      0x00\n        /* \"#utility.yul\":1483:1485   */\n      0x20\n        /* \"#utility.yul\":1471:1480   */\n      dup3\n        /* \"#utility.yul\":1462:1469   */\n      dup5\n        /* \"#utility.yul\":1458:1481   */\n      sub\n        /* \"#utility.yul\":1454:1486   */\n      slt\n        /* \"#utility.yul\":1451:1570   */\n      iszero\n      tag_177\n      jumpi\n        /* \"#utility.yul\":1489:1568   */\n      tag_178\n      tag_179\n      jump\t// in\n    tag_178:\n        /* \"#utility.yul\":1451:1570   */\n    tag_177:\n        /* \"#utility.yul\":1609:1610   */\n      0x00\n        /* \"#utility.yul\":1634:1687   */\n      tag_180\n        /* \"#utility.yul\":1679:1686   */\n      dup5\n        /* \"#utility.yul\":1670:1676   */\n      dup3\n        /* \"#utility.yul\":1659:1668   */\n      dup6\n        /* \"#utility.yul\":1655:1677   */\n      add\n        /* \"#utility.yul\":1634:1687   */\n      tag_154\n      jump\t// in\n    tag_180:\n        /* \"#utility.yul\":1624:1687   */\n      swap2\n      pop\n        /* \"#utility.yul\":1580:1697   */\n      pop\n        /* \"#utility.yul\":1375:1704   */\n      swap3\n      swap2\n      pop\n      pop\n      jump\t// out\n        /* \"#utility.yul\":1710:2055   */\n    tag_15:\n        /* \"#utility.yul\":1777:1783   */\n      0x00\n        /* \"#utility.yul\":1826:1828   */\n      0x20\n        /* \"#utility.yul\":1814:1823   */\n      dup3\n        /* \"#utility.yul\":1805:1812   */\n      dup5\n        /* \"#utility.yul\":1801:1824   */\n      sub\n        /* \"#utility.yul\":1797:1829   */\n      slt\n        /* \"#utility.yul\":1794:1913   */\n      iszero\n      tag_182\n      jumpi\n        /* \"#utility.yul\":1832:1911   */\n      tag_183\n      tag_179\n      jump\t// in\n    tag_183:\n        /* \"#utility.yul\":1794:1913   */\n    tag_182:\n        /* \"#utility.yul\":1952:1953   */\n      0x00\n        /* \"#utility.yul\":1977:2038   */\n      tag_184\n        /* \"#utility.yul\":2030:2037   */\n      dup5\n        /* \"#utility.yul\":2021:2027   */\n      dup3\n        /* \"#utility.yul\":2010:2019   */\n      dup6\n        /* \"#utility.yul\":2006:2028   */\n      add\n        /* \"#utility.yul\":1977:2038   */\n      tag_158\n      jump\t// in\n    tag_184:\n        /* \"#utility.yul\":1967:2038   */\n      swap2\n      pop\n        /* \"#utility.yul\":1923:2048   */\n      pop\n        /* \"#utility.yul\":1710:2055   */\n      swap3\n      swap2\n      pop\n      pop\n      jump\t// out\n        /* \"#utility.yul\":2061:3488   */\n    tag_11:\n        /* \"#utility.yul\":2190:2196   */\n      0x00\n        /* \"#utility.yul\":2198:2204   */\n      dup1\n        /* \"#utility.yul\":2206:2212   */\n      0x00\n        /* \"#utility.yul\":2214:2220   */\n      dup1\n        /* \"#utility.yul\":2222:2228   */\n      0x00\n        /* \"#utility.yul\":2230:2236   */\n      dup1\n        /* \"#utility.yul\":2279:2282   */\n      0xc0\n        /* \"#utility.yul\":2267:2276   */\n      dup8\n        /* \"#utility.yul\":2258:2265   */\n      dup10\n        /* \"#utility.yul\":2254:2277   */\n      sub\n        /* \"#utility.yul\":2250:2283   */\n      slt\n        /* \"#utility.yul\":2247:2367   */\n      iszero\n      tag_186\n      jumpi\n        /* \"#utility.yul\":2286:2365   */\n      tag_187\n      tag_179\n      jump\t// in\n    tag_187:\n        /* \"#utility.yul\":2247:2367   */\n    tag_186:\n        /* \"#utility.yul\":2406:2407   */\n      0x00\n        /* \"#utility.yul\":2431:2492   */\n      tag_188\n        /* \"#utility.yul\":2484:2491   */\n      dup10\n        /* \"#utility.yul\":2475:2481   */\n      dup3\n        /* \"#utility.yul\":2464:2473   */\n      dup11\n        /* \"#utility.yul\":2460:2482   */\n      add\n        /* \"#utility.yul\":2431:2492   */\n      tag_158\n      jump\t// in\n    tag_188:\n        /* \"#utility.yul\":2421:2492   */\n      swap7\n      pop\n        /* \"#utility.yul\":2377:2502   */\n      pop\n        /* \"#utility.yul\":2569:2571   */\n      0x20\n        /* \"#utility.yul\":2558:2567   */\n      dup8\n        /* \"#utility.yul\":2554:2572   */\n      add\n        /* \"#utility.yul\":2541:2573   */\n      calldataload\n        /* \"#utility.yul\":2600:2618   */\n      0xffffffffffffffff\n        /* \"#utility.yul\":2592:2598   */\n      dup2\n        /* \"#utility.yul\":2589:2619   */\n      gt\n        /* \"#utility.yul\":2586:2703   */\n      iszero\n      tag_189\n      jumpi\n        /* \"#utility.yul\":2622:2701   */\n      tag_190\n      tag_191\n      jump\t// in\n    tag_190:\n        /* \"#utility.yul\":2586:2703   */\n    tag_189:\n        /* \"#utility.yul\":2727:2790   */\n      tag_192\n        /* \"#utility.yul\":2782:2789   */\n      dup10\n        /* \"#utility.yul\":2773:2779   */\n      dup3\n        /* \"#utility.yul\":2762:2771   */\n      dup11\n        /* \"#utility.yul\":2758:2780   */\n      add\n        /* \"#utility.yul\":2727:2790   */\n      tag_166\n      jump\t// in\n    tag_192:\n        /* \"#utility.yul\":2717:2790   */\n      swap6\n      pop\n        /* \"#utility.yul\":2512:2800   */\n      pop\n        /* \"#utility.yul\":2867:2869   */\n      0x40\n        /* \"#utility.yul\":2856:2865   */\n      dup8\n        /* \"#utility.yul\":2852:2870   */\n      add\n        /* \"#utility.yul\":2839:2871   */\n      calldataload\n        /* \"#utility.yul\":2898:2916   */\n      0xffffffffffffffff\n        /* \"#utility.yul\":2890:2896   */\n      dup2\n        /* \"#utility.yul\":2887:2917   */\n      gt\n        /* \"#utility.yul\":2884:3001   */\n      iszero\n      tag_193\n      jumpi\n        /* \"#utility.yul\":2920:2999   */\n      tag_194\n      tag_191\n      jump\t// in\n    tag_194:\n        /* \"#utility.yul\":2884:3001   */\n    tag_193:\n        /* \"#utility.yul\":3025:3088   */\n      tag_195\n        /* \"#utility.yul\":3080:3087   */\n      dup10\n        /* \"#utility.yul\":3071:3077   */\n      dup3\n        /* \"#utility.yul\":3060:3069   */\n      dup11\n        /* \"#utility.yul\":3056:3078   */\n      add\n        /* \"#utility.yul\":3025:3088   */\n      tag_166\n      jump\t// in\n    tag_195:\n        /* \"#utility.yul\":3015:3088   */\n      swap5\n      pop\n        /* \"#utility.yul\":2810:3098   */\n      pop\n        /* \"#utility.yul\":3137:3139   */\n      0x60\n        /* \"#utility.yul\":3163:3216   */\n      tag_196\n        /* \"#utility.yul\":3208:3215   */\n      dup10\n        /* \"#utility.yul\":3199:3205   */\n      dup3\n        /* \"#utility.yul\":3188:3197   */\n      dup11\n        /* \"#utility.yul\":3184:3206   */\n      add\n        /* \"#utility.yul\":3163:3216   */\n      tag_172\n      jump\t// in\n    tag_196:\n        /* \"#utility.yul\":3153:3216   */\n      swap4\n      pop\n        /* \"#utility.yul\":3108:3226   */\n      pop\n        /* \"#utility.yul\":3265:3268   */\n      0x80\n        /* \"#utility.yul\":3292:3345   */\n      tag_197\n        /* \"#utility.yul\":3337:3344   */\n      dup10\n        /* \"#utility.yul\":3328:3334   */\n      dup3\n        /* \"#utility.yul\":3317:3326   */\n      dup11\n        /* \"#utility.yul\":3313:3335   */\n      add\n        /* \"#utility.yul\":3292:3345   */\n      tag_172\n      jump\t// in\n    tag_197:\n        /* \"#utility.yul\":3282:3345   */\n      swap3\n      pop\n        /* \"#utility.yul\":3236:3355   */\n      pop\n        /* \"#utility.yul\":3394:3397   */\n      0xa0\n        /* \"#utility.yul\":3421:3471   */\n      tag_198\n        /* \"#utility.yul\":3463:3470   */\n      dup10\n        /* \"#utility.yul\":3454:3460   */\n      dup3\n        /* \"#utility.yul\":3443:3452   */\n      dup11\n        /* \"#utility.yul\":3439:3461   */\n      add\n        /* \"#utility.yul\":3421:3471   */\n      tag_162\n      jump\t// in\n    tag_198:\n        /* \"#utility.yul\":3411:3471   */\n      swap2\n      pop\n        /* \"#utility.yul\":3365:3481   */\n      pop\n        /* \"#utility.yul\":2061:3488   */\n      swap3\n      swap6\n      pop\n      swap3\n      swap6\n      pop\n      swap3\n      swap6\n      jump\t// out\n        /* \"#utility.yul\":3494:3823   */\n    tag_25:\n        /* \"#utility.yul\":3553:3559   */\n      0x00\n        /* \"#utility.yul\":3602:3604   */\n      0x20\n        /* \"#utility.yul\":3590:3599   */\n      dup3\n        /* \"#utility.yul\":3581:3588   */\n      dup5\n        /* \"#utility.yul\":3577:3600   */\n      sub\n        /* \"#utility.yul\":3573:3605   */\n      slt\n        /* \"#utility.yul\":3570:3689   */\n      iszero\n      tag_200\n      jumpi\n        /* \"#utility.yul\":3608:3687   */\n      tag_201\n      tag_179\n      jump\t// in\n    tag_201:\n        /* \"#utility.yul\":3570:3689   */\n    tag_200:\n        /* \"#utility.yul\":3728:3729   */\n      0x00\n        /* \"#utility.yul\":3753:3806   */\n      tag_202\n        /* \"#utility.yul\":3798:3805   */\n      dup5\n        /* \"#utility.yul\":3789:3795   */\n      dup3\n        /* \"#utility.yul\":3778:3787   */\n      dup6\n        /* \"#utility.yul\":3774:3796   */\n      add\n        /* \"#utility.yul\":3753:3806   */\n      tag_172\n      jump\t// in\n    tag_202:\n        /* \"#utility.yul\":3743:3806   */\n      swap2\n      pop\n        /* \"#utility.yul\":3699:3816   */\n      pop\n        /* \"#utility.yul\":3494:3823   */\n      swap3\n      swap2\n      pop\n      pop\n      jump\t// out\n        /* \"#utility.yul\":3829:3971   */\n    tag_203:\n        /* \"#utility.yul\":3932:3964   */\n      tag_205\n        /* \"#utility.yul\":3958:3963   */\n      dup2\n        /* \"#utility.yul\":3932:3964   */\n      tag_206\n      jump\t// in\n    tag_205:\n        /* \"#utility.yul\":3927:3930   */\n      dup3\n        /* \"#utility.yul\":3920:3965   */\n      mstore\n        /* \"#utility.yul\":3829:3971   */\n      pop\n      pop\n      jump\t// out\n        /* \"#utility.yul\":3977:4095   */\n    tag_207:\n        /* \"#utility.yul\":4064:4088   */\n      tag_209\n        /* \"#utility.yul\":4082:4087   */\n      dup2\n        /* \"#utility.yul\":4064:4088   */\n      tag_210\n      jump\t// in\n    tag_209:\n        /* \"#utility.yul\":4059:4062   */\n      dup3\n        /* \"#utility.yul\":4052:4089   */\n      mstore\n        /* \"#utility.yul\":3977:4095   */\n      pop\n      pop\n      jump\t// out\n        /* \"#utility.yul\":4101:4210   */\n    tag_211:\n        /* \"#utility.yul\":4182:4203   */\n      tag_213\n        /* \"#utility.yul\":4197:4202   */\n      dup2\n        /* \"#utility.yul\":4182:4203   */\n      tag_214\n      jump\t// in\n    tag_213:\n        /* \"#utility.yul\":4177:4180   */\n      dup3\n        /* \"#utility.yul\":4170:4204   */\n      mstore\n        /* \"#utility.yul\":4101:4210   */\n      pop\n      pop\n      jump\t// out\n        /* \"#utility.yul\":4216:4580   */\n    tag_215:\n        /* \"#utility.yul\":4304:4307   */\n      0x00\n        /* \"#utility.yul\":4332:4371   */\n      tag_217\n        /* \"#utility.yul\":4365:4370   */\n      dup3\n        /* \"#utility.yul\":4332:4371   */\n      tag_218\n      jump\t// in\n    tag_217:\n        /* \"#utility.yul\":4387:4458   */\n      tag_219\n        /* \"#utility.yul\":4451:4457   */\n      dup2\n        /* \"#utility.yul\":4446:4449   */\n      dup6\n        /* \"#utility.yul\":4387:4458   */\n      tag_220\n      jump\t// in\n    tag_219:\n        /* \"#utility.yul\":4380:4458   */\n      swap4\n      pop\n        /* \"#utility.yul\":4467:4519   */\n      tag_221\n        /* \"#utility.yul\":4512:4518   */\n      dup2\n        /* \"#utility.yul\":4507:4510   */\n      dup6\n        /* \"#utility.yul\":4500:4504   */\n      0x20\n        /* \"#utility.yul\":4493:4498   */\n      dup7\n        /* \"#utility.yul\":4489:4505   */\n      add\n        /* \"#utility.yul\":4467:4519   */\n      tag_222\n      jump\t// in\n    tag_221:\n        /* \"#utility.yul\":4544:4573   */\n      tag_223\n        /* \"#utility.yul\":4566:4572   */\n      dup2\n        /* \"#utility.yul\":4544:4573   */\n      tag_224\n      jump\t// in\n    tag_223:\n        /* \"#utility.yul\":4539:4542   */\n      dup5\n        /* \"#utility.yul\":4535:4574   */\n      add\n        /* \"#utility.yul\":4528:4574   */\n      swap2\n      pop\n        /* \"#utility.yul\":4308:4580   */\n      pop\n        /* \"#utility.yul\":4216:4580   */\n      swap3\n      swap2\n      pop\n      pop\n      jump\t// out\n        /* \"#utility.yul\":4586:4952   */\n    tag_225:\n        /* \"#utility.yul\":4728:4731   */\n      0x00\n        /* \"#utility.yul\":4749:4816   */\n      tag_227\n        /* \"#utility.yul\":4813:4815   */\n      0x1e\n        /* \"#utility.yul\":4808:4811   */\n      dup4\n        /* \"#utility.yul\":4749:4816   */\n      tag_220\n      jump\t// in\n    tag_227:\n        /* \"#utility.yul\":4742:4816   */\n      swap2\n      pop\n        /* \"#utility.yul\":4825:4918   */\n      tag_228\n        /* \"#utility.yul\":4914:4917   */\n      dup3\n        /* \"#utility.yul\":4825:4918   */\n      tag_229\n      jump\t// in\n    tag_228:\n        /* \"#utility.yul\":4943:4945   */\n      0x20\n        /* \"#utility.yul\":4938:4941   */\n      dup3\n        /* \"#utility.yul\":4934:4946   */\n      add\n        /* \"#utility.yul\":4927:4946   */\n      swap1\n      pop\n        /* \"#utility.yul\":4586:4952   */\n      swap2\n      swap1\n      pop\n      jump\t// out\n        /* \"#utility.yul\":4958:5324   */\n    tag_230:\n        /* \"#utility.yul\":5100:5103   */\n      0x00\n        /* \"#utility.yul\":5121:5188   */\n      tag_232\n        /* \"#utility.yul\":5185:5187   */\n      0x29\n        /* \"#utility.yul\":5180:5183   */\n      dup4\n        /* \"#utility.yul\":5121:5188   */\n      tag_220\n      jump\t// in\n    tag_232:\n        /* \"#utility.yul\":5114:5188   */\n      swap2\n      pop\n        /* \"#utility.yul\":5197:5290   */\n      tag_233\n        /* \"#utility.yul\":5286:5289   */\n      dup3\n        /* \"#utility.yul\":5197:5290   */\n      tag_234\n      jump\t// in\n    tag_233:\n        /* \"#utility.yul\":5315:5317   */\n      0x40\n        /* \"#utility.yul\":5310:5313   */\n      dup3\n        /* \"#utility.yul\":5306:5318   */\n      add\n        /* \"#utility.yul\":5299:5318   */\n      swap1\n      pop\n        /* \"#utility.yul\":4958:5324   */\n      swap2\n      swap1\n      pop\n      jump\t// out\n        /* \"#utility.yul\":5330:5696   */\n    tag_235:\n        /* \"#utility.yul\":5472:5475   */\n      0x00\n        /* \"#utility.yul\":5493:5560   */\n      tag_237\n        /* \"#utility.yul\":5557:5559   */\n      0x1f\n        /* \"#utility.yul\":5552:5555   */\n      dup4\n        /* \"#utility.yul\":5493:5560   */\n      tag_220\n      jump\t// in\n    tag_237:\n        /* \"#utility.yul\":5486:5560   */\n      swap2\n      pop\n        /* \"#utility.yul\":5569:5662   */\n      tag_238\n        /* \"#utility.yul\":5658:5661   */\n      dup3\n        /* \"#utility.yul\":5569:5662   */\n      tag_239\n      jump\t// in\n    tag_238:\n        /* \"#utility.yul\":5687:5689   */\n      0x20\n        /* \"#utility.yul\":5682:5685   */\n      dup3\n        /* \"#utility.yul\":5678:5690   */\n      add\n        /* \"#utility.yul\":5671:5690   */\n      swap1\n      pop\n        /* \"#utility.yul\":5330:5696   */\n      swap2\n      swap1\n      pop\n      jump\t// out\n        /* \"#utility.yul\":5702:6068   */\n    tag_240:\n        /* \"#utility.yul\":5844:5847   */\n      0x00\n        /* \"#utility.yul\":5865:5932   */\n      tag_242\n        /* \"#utility.yul\":5929:5931   */\n      0x17\n        /* \"#utility.yul\":5924:5927   */\n      dup4\n        /* \"#utility.yul\":5865:5932   */\n      tag_220\n      jump\t// in\n    tag_242:\n        /* \"#utility.yul\":5858:5932   */\n      swap2\n      pop\n        /* \"#utility.yul\":5941:6034   */\n      tag_243\n        /* \"#utility.yul\":6030:6033   */\n      dup3\n        /* \"#utility.yul\":5941:6034   */\n      tag_244\n      jump\t// in\n    tag_243:\n        /* \"#utility.yul\":6059:6061   */\n      0x20\n        /* \"#utility.yul\":6054:6057   */\n      dup3\n        /* \"#utility.yul\":6050:6062   */\n      add\n        /* \"#utility.yul\":6043:6062   */\n      swap1\n      pop\n        /* \"#utility.yul\":5702:6068   */\n      swap2\n      swap1\n      pop\n      jump\t// out\n        /* \"#utility.yul\":6074:6192   */\n    tag_245:\n        /* \"#utility.yul\":6161:6185   */\n      tag_247\n        /* \"#utility.yul\":6179:6184   */\n      dup2\n        /* \"#utility.yul\":6161:6185   */\n      tag_248\n      jump\t// in\n    tag_247:\n        /* \"#utility.yul\":6156:6159   */\n      dup3\n        /* \"#utility.yul\":6149:6186   */\n      mstore\n        /* \"#utility.yul\":6074:6192   */\n      pop\n      pop\n      jump\t// out\n        /* \"#utility.yul\":6198:7175   */\n    tag_28:\n        /* \"#utility.yul\":6481:6485   */\n      0x00\n        /* \"#utility.yul\":6519:6522   */\n      0xc0\n        /* \"#utility.yul\":6508:6517   */\n      dup3\n        /* \"#utility.yul\":6504:6523   */\n      add\n        /* \"#utility.yul\":6496:6523   */\n      swap1\n      pop\n        /* \"#utility.yul\":6533:6620   */\n      tag_250\n        /* \"#utility.yul\":6617:6618   */\n      0x00\n        /* \"#utility.yul\":6606:6615   */\n      dup4\n        /* \"#utility.yul\":6602:6619   */\n      add\n        /* \"#utility.yul\":6593:6599   */\n      dup10\n        /* \"#utility.yul\":6533:6620   */\n      tag_203\n      jump\t// in\n    tag_250:\n        /* \"#utility.yul\":6667:6676   */\n      dup2\n        /* \"#utility.yul\":6661:6665   */\n      dup2\n        /* \"#utility.yul\":6657:6677   */\n      sub\n        /* \"#utility.yul\":6652:6654   */\n      0x20\n        /* \"#utility.yul\":6641:6650   */\n      dup4\n        /* \"#utility.yul\":6637:6655   */\n      add\n        /* \"#utility.yul\":6630:6678   */\n      mstore\n        /* \"#utility.yul\":6695:6773   */\n      tag_251\n        /* \"#utility.yul\":6768:6772   */\n      dup2\n        /* \"#utility.yul\":6759:6765   */\n      dup9\n        /* \"#utility.yul\":6695:6773   */\n      tag_215\n      jump\t// in\n    tag_251:\n        /* \"#utility.yul\":6687:6773   */\n      swap1\n      pop\n        /* \"#utility.yul\":6820:6829   */\n      dup2\n        /* \"#utility.yul\":6814:6818   */\n      dup2\n        /* \"#utility.yul\":6810:6830   */\n      sub\n        /* \"#utility.yul\":6805:6807   */\n      0x40\n        /* \"#utility.yul\":6794:6803   */\n      dup4\n        /* \"#utility.yul\":6790:6808   */\n      add\n        /* \"#utility.yul\":6783:6831   */\n      mstore\n        /* \"#utility.yul\":6848:6926   */\n      tag_252\n        /* \"#utility.yul\":6921:6925   */\n      dup2\n        /* \"#utility.yul\":6912:6918   */\n      dup8\n        /* \"#utility.yul\":6848:6926   */\n      tag_215\n      jump\t// in\n    tag_252:\n        /* \"#utility.yul\":6840:6926   */\n      swap1\n      pop\n        /* \"#utility.yul\":6936:7008   */\n      tag_253\n        /* \"#utility.yul\":7004:7006   */\n      0x60\n        /* \"#utility.yul\":6993:7002   */\n      dup4\n        /* \"#utility.yul\":6989:7007   */\n      add\n        /* \"#utility.yul\":6980:6986   */\n      dup7\n        /* \"#utility.yul\":6936:7008   */\n      tag_245\n      jump\t// in\n    tag_253:\n        /* \"#utility.yul\":7018:7091   */\n      tag_254\n        /* \"#utility.yul\":7086:7089   */\n      0x80\n        /* \"#utility.yul\":7075:7084   */\n      dup4\n        /* \"#utility.yul\":7071:7090   */\n      add\n        /* \"#utility.yul\":7062:7068   */\n      dup6\n        /* \"#utility.yul\":7018:7091   */\n      tag_245\n      jump\t// in\n    tag_254:\n        /* \"#utility.yul\":7101:7168   */\n      tag_255\n        /* \"#utility.yul\":7163:7166   */\n      0xa0\n        /* \"#utility.yul\":7152:7161   */\n      dup4\n        /* \"#utility.yul\":7148:7167   */\n      add\n        /* \"#utility.yul\":7139:7145   */\n      dup5\n        /* \"#utility.yul\":7101:7168   */\n      tag_211\n      jump\t// in\n    tag_255:\n        /* \"#utility.yul\":6198:7175   */\n      swap8\n      swap7\n      pop\n      pop\n      pop\n      pop\n      pop\n      pop\n      pop\n      jump\t// out\n        /* \"#utility.yul\":7181:7623   */\n    tag_130:\n        /* \"#utility.yul\":7330:7334   */\n      0x00\n        /* \"#utility.yul\":7368:7370   */\n      0x60\n        /* \"#utility.yul\":7357:7366   */\n      dup3\n        /* \"#utility.yul\":7353:7371   */\n      add\n        /* \"#utility.yul\":7345:7371   */\n      swap1\n      pop\n        /* \"#utility.yul\":7381:7452   */\n      tag_257\n        /* \"#utility.yul\":7449:7450   */\n      0x00\n        /* \"#utility.yul\":7438:7447   */\n      dup4\n        /* \"#utility.yul\":7434:7451   */\n      add\n        /* \"#utility.yul\":7425:7431   */\n      dup7\n        /* \"#utility.yul\":7381:7452   */\n      tag_207\n      jump\t// in\n    tag_257:\n        /* \"#utility.yul\":7462:7534   */\n      tag_258\n        /* \"#utility.yul\":7530:7532   */\n      0x20\n        /* \"#utility.yul\":7519:7528   */\n      dup4\n        /* \"#utility.yul\":7515:7533   */\n      add\n        /* \"#utility.yul\":7506:7512   */\n      dup6\n        /* \"#utility.yul\":7462:7534   */\n      tag_245\n      jump\t// in\n    tag_258:\n        /* \"#utility.yul\":7544:7616   */\n      tag_259\n        /* \"#utility.yul\":7612:7614   */\n      0x40\n        /* \"#utility.yul\":7601:7610   */\n      dup4\n        /* \"#utility.yul\":7597:7615   */\n      add\n        /* \"#utility.yul\":7588:7594   */\n      dup5\n        /* \"#utility.yul\":7544:7616   */\n      tag_245\n      jump\t// in\n    tag_259:\n        /* \"#utility.yul\":7181:7623   */\n      swap5\n      swap4\n      pop\n      pop\n      pop\n      pop\n      jump\t// out\n        /* \"#utility.yul\":7629:7839   */\n    tag_35:\n        /* \"#utility.yul\":7716:7720   */\n      0x00\n        /* \"#utility.yul\":7754:7756   */\n      0x20\n        /* \"#utility.yul\":7743:7752   */\n      dup3\n        /* \"#utility.yul\":7739:7757   */\n      add\n        /* \"#utility.yul\":7731:7757   */\n      swap1\n      pop\n        /* \"#utility.yul\":7767:7832   */\n      tag_261\n        /* \"#utility.yul\":7829:7830   */\n      0x00\n        /* \"#utility.yul\":7818:7827   */\n      dup4\n        /* \"#utility.yul\":7814:7831   */\n      add\n        /* \"#utility.yul\":7805:7811   */\n      dup5\n        /* \"#utility.yul\":7767:7832   */\n      tag_211\n      jump\t// in\n    tag_261:\n        /* \"#utility.yul\":7629:7839   */\n      swap3\n      swap2\n      pop\n      pop\n      jump\t// out\n        /* \"#utility.yul\":7845:8264   */\n    tag_42:\n        /* \"#utility.yul\":8011:8015   */\n      0x00\n        /* \"#utility.yul\":8049:8051   */\n      0x20\n        /* \"#utility.yul\":8038:8047   */\n      dup3\n        /* \"#utility.yul\":8034:8052   */\n      add\n        /* \"#utility.yul\":8026:8052   */\n      swap1\n      pop\n        /* \"#utility.yul\":8098:8107   */\n      dup2\n        /* \"#utility.yul\":8092:8096   */\n      dup2\n        /* \"#utility.yul\":8088:8108   */\n      sub\n        /* \"#utility.yul\":8084:8085   */\n      0x00\n        /* \"#utility.yul\":8073:8082   */\n      dup4\n        /* \"#utility.yul\":8069:8086   */\n      add\n        /* \"#utility.yul\":8062:8109   */\n      mstore\n        /* \"#utility.yul\":8126:8257   */\n      tag_263\n        /* \"#utility.yul\":8252:8256   */\n      dup2\n        /* \"#utility.yul\":8126:8257   */\n      tag_225\n      jump\t// in\n    tag_263:\n        /* \"#utility.yul\":8118:8257   */\n      swap1\n      pop\n        /* \"#utility.yul\":7845:8264   */\n      swap2\n      swap1\n      pop\n      jump\t// out\n        /* \"#utility.yul\":8270:8689   */\n    tag_63:\n        /* \"#utility.yul\":8436:8440   */\n      0x00\n        /* \"#utility.yul\":8474:8476   */\n      0x20\n        /* \"#utility.yul\":8463:8472   */\n      dup3\n        /* \"#utility.yul\":8459:8477   */\n      add\n        /* \"#utility.yul\":8451:8477   */\n      swap1\n      pop\n        /* \"#utility.yul\":8523:8532   */\n      dup2\n        /* \"#utility.yul\":8517:8521   */\n      dup2\n        /* \"#utility.yul\":8513:8533   */\n      sub\n        /* \"#utility.yul\":8509:8510   */\n      0x00\n        /* \"#utility.yul\":8498:8507   */\n      dup4\n        /* \"#utility.yul\":8494:8511   */\n      add\n        /* \"#utility.yul\":8487:8534   */\n      mstore\n        /* \"#utility.yul\":8551:8682   */\n      tag_265\n        /* \"#utility.yul\":8677:8681   */\n      dup2\n        /* \"#utility.yul\":8551:8682   */\n      tag_230\n      jump\t// in\n    tag_265:\n        /* \"#utility.yul\":8543:8682   */\n      swap1\n      pop\n        /* \"#utility.yul\":8270:8689   */\n      swap2\n      swap1\n      pop\n      jump\t// out\n        /* \"#utility.yul\":8695:9114   */\n    tag_57:\n        /* \"#utility.yul\":8861:8865   */\n      0x00\n        /* \"#utility.yul\":8899:8901   */\n      0x20\n        /* \"#utility.yul\":8888:8897   */\n      dup3\n        /* \"#utility.yul\":8884:8902   */\n      add\n        /* \"#utility.yul\":8876:8902   */\n      swap1\n      pop\n        /* \"#utility.yul\":8948:8957   */\n      dup2\n        /* \"#utility.yul\":8942:8946   */\n      dup2\n        /* \"#utility.yul\":8938:8958   */\n      sub\n        /* \"#utility.yul\":8934:8935   */\n      0x00\n        /* \"#utility.yul\":8923:8932   */\n      dup4\n        /* \"#utility.yul\":8919:8936   */\n      add\n        /* \"#utility.yul\":8912:8959   */\n      mstore\n        /* \"#utility.yul\":8976:9107   */\n      tag_267\n        /* \"#utility.yul\":9102:9106   */\n      dup2\n        /* \"#utility.yul\":8976:9107   */\n      tag_235\n      jump\t// in\n    tag_267:\n        /* \"#utility.yul\":8968:9107   */\n      swap1\n      pop\n        /* \"#utility.yul\":8695:9114   */\n      swap2\n      swap1\n      pop\n      jump\t// out\n        /* \"#utility.yul\":9120:9539   */\n    tag_93:\n        /* \"#utility.yul\":9286:9290   */\n      0x00\n        /* \"#utility.yul\":9324:9326   */\n      0x20\n        /* \"#utility.yul\":9313:9322   */\n      dup3\n        /* \"#utility.yul\":9309:9327   */\n      add\n        /* \"#utility.yul\":9301:9327   */\n      swap1\n      pop\n        /* \"#utility.yul\":9373:9382   */\n      dup2\n        /* \"#utility.yul\":9367:9371   */\n      dup2\n        /* \"#utility.yul\":9363:9383   */\n      sub\n        /* \"#utility.yul\":9359:9360   */\n      0x00\n        /* \"#utility.yul\":9348:9357   */\n      dup4\n        /* \"#utility.yul\":9344:9361   */\n      add\n        /* \"#utility.yul\":9337:9384   */\n      mstore\n        /* \"#utility.yul\":9401:9532   */\n      tag_269\n        /* \"#utility.yul\":9527:9531   */\n      dup2\n        /* \"#utility.yul\":9401:9532   */\n      tag_240\n      jump\t// in\n    tag_269:\n        /* \"#utility.yul\":9393:9532   */\n      swap1\n      pop\n        /* \"#utility.yul\":9120:9539   */\n      swap2\n      swap1\n      pop\n      jump\t// out\n        /* \"#utility.yul\":9545:9767   */\n    tag_21:\n        /* \"#utility.yul\":9638:9642   */\n      0x00\n        /* \"#utility.yul\":9676:9678   */\n      0x20\n        /* \"#utility.yul\":9665:9674   */\n      dup3\n        /* \"#utility.yul\":9661:9679   */\n      add\n        /* \"#utility.yul\":9653:9679   */\n      swap1\n      pop\n        /* \"#utility.yul\":9689:9760   */\n      tag_271\n        /* \"#utility.yul\":9757:9758   */\n      0x00\n        /* \"#utility.yul\":9746:9755   */\n      dup4\n        /* \"#utility.yul\":9742:9759   */\n      add\n        /* \"#utility.yul\":9733:9739   */\n      dup5\n        /* \"#utility.yul\":9689:9760   */\n      tag_245\n      jump\t// in\n    tag_271:\n        /* \"#utility.yul\":9545:9767   */\n      swap3\n      swap2\n      pop\n      pop\n      jump\t// out\n        /* \"#utility.yul\":9773:9902   */\n    tag_148:\n        /* \"#utility.yul\":9807:9813   */\n      0x00\n        /* \"#utility.yul\":9834:9854   */\n      tag_273\n      tag_274\n      jump\t// in\n    tag_273:\n        /* \"#utility.yul\":9824:9854   */\n      swap1\n      pop\n        /* \"#utility.yul\":9863:9896   */\n      tag_275\n        /* \"#utility.yul\":9891:9895   */\n      dup3\n        /* \"#utility.yul\":9883:9889   */\n      dup3\n        /* \"#utility.yul\":9863:9896   */\n      tag_276\n      jump\t// in\n    tag_275:\n        /* \"#utility.yul\":9773:9902   */\n      swap2\n      swap1\n      pop\n      jump\t// out\n        /* \"#utility.yul\":9908:9983   */\n    tag_274:\n        /* \"#utility.yul\":9941:9947   */\n      0x00\n        /* \"#utility.yul\":9974:9976   */\n      0x40\n        /* \"#utility.yul\":9968:9977   */\n      mload\n        /* \"#utility.yul\":9958:9977   */\n      swap1\n      pop\n        /* \"#utility.yul\":9908:9983   */\n      swap1\n      jump\t// out\n        /* \"#utility.yul\":9989:10297   */\n    tag_147:\n        /* \"#utility.yul\":10051:10055   */\n      0x00\n        /* \"#utility.yul\":10141:10159   */\n      0xffffffffffffffff\n        /* \"#utility.yul\":10133:10139   */\n      dup3\n        /* \"#utility.yul\":10130:10160   */\n      gt\n        /* \"#utility.yul\":10127:10183   */\n      iszero\n      tag_279\n      jumpi\n        /* \"#utility.yul\":10163:10181   */\n      tag_280\n      tag_281\n      jump\t// in\n    tag_280:\n        /* \"#utility.yul\":10127:10183   */\n    tag_279:\n        /* \"#utility.yul\":10201:10230   */\n      tag_282\n        /* \"#utility.yul\":10223:10229   */\n      dup3\n        /* \"#utility.yul\":10201:10230   */\n      tag_224\n      jump\t// in\n    tag_282:\n        /* \"#utility.yul\":10193:10230   */\n      swap1\n      pop\n        /* \"#utility.yul\":10285:10289   */\n      0x20\n        /* \"#utility.yul\":10279:10283   */\n      dup2\n        /* \"#utility.yul\":10275:10290   */\n      add\n        /* \"#utility.yul\":10267:10290   */\n      swap1\n      pop\n        /* \"#utility.yul\":9989:10297   */\n      swap2\n      swap1\n      pop\n      jump\t// out\n        /* \"#utility.yul\":10303:10402   */\n    tag_218:\n        /* \"#utility.yul\":10355:10361   */\n      0x00\n        /* \"#utility.yul\":10389:10394   */\n      dup2\n        /* \"#utility.yul\":10383:10395   */\n      mload\n        /* \"#utility.yul\":10373:10395   */\n      swap1\n      pop\n        /* \"#utility.yul\":10303:10402   */\n      swap2\n      swap1\n      pop\n      jump\t// out\n        /* \"#utility.yul\":10408:10577   */\n    tag_220:\n        /* \"#utility.yul\":10492:10503   */\n      0x00\n        /* \"#utility.yul\":10526:10532   */\n      dup3\n        /* \"#utility.yul\":10521:10524   */\n      dup3\n        /* \"#utility.yul\":10514:10533   */\n      mstore\n        /* \"#utility.yul\":10566:10570   */\n      0x20\n        /* \"#utility.yul\":10561:10564   */\n      dup3\n        /* \"#utility.yul\":10557:10571   */\n      add\n        /* \"#utility.yul\":10542:10571   */\n      swap1\n      pop\n        /* \"#utility.yul\":10408:10577   */\n      swap3\n      swap2\n      pop\n      pop\n      jump\t// out\n        /* \"#utility.yul\":10583:10888   */\n    tag_127:\n        /* \"#utility.yul\":10623:10626   */\n      0x00\n        /* \"#utility.yul\":10642:10662   */\n      tag_286\n        /* \"#utility.yul\":10660:10661   */\n      dup3\n        /* \"#utility.yul\":10642:10662   */\n      tag_248\n      jump\t// in\n    tag_286:\n        /* \"#utility.yul\":10637:10662   */\n      swap2\n      pop\n        /* \"#utility.yul\":10676:10696   */\n      tag_287\n        /* \"#utility.yul\":10694:10695   */\n      dup4\n        /* \"#utility.yul\":10676:10696   */\n      tag_248\n      jump\t// in\n    tag_287:\n        /* \"#utility.yul\":10671:10696   */\n      swap3\n      pop\n        /* \"#utility.yul\":10830:10831   */\n      dup3\n        /* \"#utility.yul\":10762:10828   */\n      0xffffffffffffffffffffffffffffffffffffffffffffffffffffffffffffffff\n        /* \"#utility.yul\":10758:10832   */\n      sub\n        /* \"#utility.yul\":10755:10756   */\n      dup3\n        /* \"#utility.yul\":10752:10833   */\n      gt\n        /* \"#utility.yul\":10749:10856   */\n      iszero\n      tag_288\n      jumpi\n        /* \"#utility.yul\":10836:10854   */\n      tag_289\n      tag_290\n      jump\t// in\n    tag_289:\n        /* \"#utility.yul\":10749:10856   */\n    tag_288:\n        /* \"#utility.yul\":10880:10881   */\n      dup3\n        /* \"#utility.yul\":10877:10878   */\n      dup3\n        /* \"#utility.yul\":10873:10882   */\n      add\n        /* \"#utility.yul\":10866:10882   */\n      swap1\n      pop\n        /* \"#utility.yul\":10583:10888   */\n      swap3\n      swap2\n      pop\n      pop\n      jump\t// out\n        /* \"#utility.yul\":10894:10990   */\n    tag_210:\n        /* \"#utility.yul\":10931:10938   */\n      0x00\n        /* \"#utility.yul\":10960:10984   */\n      tag_292\n        /* \"#utility.yul\":10978:10983   */\n      dup3\n        /* \"#utility.yul\":10960:10984   */\n      tag_293\n      jump\t// in\n    tag_292:\n        /* \"#utility.yul\":10949:10984   */\n      swap1\n      pop\n        /* \"#utility.yul\":10894:10990   */\n      swap2\n      swap1\n      pop\n      jump\t// out\n        /* \"#utility.yul\":10996:11100   */\n    tag_206:\n        /* \"#utility.yul\":11041:11048   */\n      0x00\n        /* \"#utility.yul\":11070:11094   */\n      tag_295\n        /* \"#utility.yul\":11088:11093   */\n      dup3\n        /* \"#utility.yul\":11070:11094   */\n      tag_293\n      jump\t// in\n    tag_295:\n        /* \"#utility.yul\":11059:11094   */\n      swap1\n      pop\n        /* \"#utility.yul\":10996:11100   */\n      swap2\n      swap1\n      pop\n      jump\t// out\n        /* \"#utility.yul\":11106:11196   */\n    tag_214:\n        /* \"#utility.yul\":11140:11147   */\n      0x00\n        /* \"#utility.yul\":11183:11188   */\n      dup2\n        /* \"#utility.yul\":11176:11189   */\n      iszero\n        /* \"#utility.yul\":11169:11190   */\n      iszero\n        /* \"#utility.yul\":11158:11190   */\n      swap1\n      pop\n        /* \"#utility.yul\":11106:11196   */\n      swap2\n      swap1\n      pop\n      jump\t// out\n        /* \"#utility.yul\":11202:11328   */\n    tag_293:\n        /* \"#utility.yul\":11239:11246   */\n      0x00\n        /* \"#utility.yul\":11279:11321   */\n      0xffffffffffffffffffffffffffffffffffffffff\n        /* \"#utility.yul\":11272:11277   */\n      dup3\n        /* \"#utility.yul\":11268:11322   */\n      and\n        /* \"#utility.yul\":11257:11322   */\n      swap1\n      pop\n        /* \"#utility.yul\":11202:11328   */\n      swap2\n      swap1\n      pop\n      jump\t// out\n        /* \"#utility.yul\":11334:11411   */\n    tag_248:\n        /* \"#utility.yul\":11371:11378   */\n      0x00\n        /* \"#utility.yul\":11400:11405   */\n      dup2\n        /* \"#utility.yul\":11389:11405   */\n      swap1\n      pop\n        /* \"#utility.yul\":11334:11411   */\n      swap2\n      swap1\n      pop\n      jump\t// out\n        /* \"#utility.yul\":11417:11571   */\n    tag_153:\n        /* \"#utility.yul\":11501:11507   */\n      dup3\n        /* \"#utility.yul\":11496:11499   */\n      dup2\n        /* \"#utility.yul\":11491:11494   */\n      dup4\n        /* \"#utility.yul\":11478:11508   */\n      calldatacopy\n        /* \"#utility.yul\":11563:11564   */\n      0x00\n        /* \"#utility.yul\":11554:11560   */\n      dup4\n        /* \"#utility.yul\":11549:11552   */\n      dup4\n        /* \"#utility.yul\":11545:11561   */\n      add\n        /* \"#utility.yul\":11538:11565   */\n      mstore\n        /* \"#utility.yul\":11417:11571   */\n      pop\n      pop\n      pop\n      jump\t// out\n        /* \"#utility.yul\":11577:11884   */\n    tag_222:\n        /* \"#utility.yul\":11645:11646   */\n      0x00\n        /* \"#utility.yul\":11655:11768   */\n    tag_301:\n        /* \"#utility.yul\":11669:11675   */\n      dup4\n        /* \"#utility.yul\":11666:11667   */\n      dup2\n        /* \"#utility.yul\":11663:11676   */\n      lt\n        /* \"#utility.yul\":11655:11768   */\n      iszero\n      tag_303\n      jumpi\n        /* \"#utility.yul\":11754:11755   */\n      dup1\n        /* \"#utility.yul\":11749:11752   */\n      dup3\n        /* \"#utility.yul\":11745:11756   */\n      add\n        /* \"#utility.yul\":11739:11757   */\n      mload\n        /* \"#utility.yul\":11735:11736   */\n      dup2\n        /* \"#utility.yul\":11730:11733   */\n      dup5\n        /* \"#utility.yul\":11726:11737   */\n      add\n        /* \"#utility.yul\":11719:11758   */\n      mstore\n        /* \"#utility.yul\":11691:11693   */\n      0x20\n        /* \"#utility.yul\":11688:11689   */\n      dup2\n        /* \"#utility.yul\":11684:11694   */\n      add\n        /* \"#utility.yul\":11679:11694   */\n      swap1\n      pop\n        /* \"#utility.yul\":11655:11768   */\n      jump(tag_301)\n    tag_303:\n        /* \"#utility.yul\":11786:11792   */\n      dup4\n        /* \"#utility.yul\":11783:11784   */\n      dup2\n        /* \"#utility.yul\":11780:11793   */\n      gt\n        /* \"#utility.yul\":11777:11878   */\n      iszero\n      tag_304\n      jumpi\n        /* \"#utility.yul\":11866:11867   */\n      0x00\n        /* \"#utility.yul\":11857:11863   */\n      dup5\n        /* \"#utility.yul\":11852:11855   */\n      dup5\n        /* \"#utility.yul\":11848:11864   */\n      add\n        /* \"#utility.yul\":11841:11868   */\n      mstore\n        /* \"#utility.yul\":11777:11878   */\n    tag_304:\n        /* \"#utility.yul\":11626:11884   */\n      pop\n        /* \"#utility.yul\":11577:11884   */\n      pop\n      pop\n      pop\n      jump\t// out\n        /* \"#utility.yul\":11890:12210   */\n    tag_76:\n        /* \"#utility.yul\":11934:11940   */\n      0x00\n        /* \"#utility.yul\":11971:11972   */\n      0x02\n        /* \"#utility.yul\":11965:11969   */\n      dup3\n        /* \"#utility.yul\":11961:11973   */\n      div\n        /* \"#utility.yul\":11951:11973   */\n      swap1\n      pop\n        /* \"#utility.yul\":12018:12019   */\n      0x01\n        /* \"#utility.yul\":12012:12016   */\n      dup3\n        /* \"#utility.yul\":12008:12020   */\n      and\n        /* \"#utility.yul\":12039:12057   */\n      dup1\n        /* \"#utility.yul\":12029:12110   */\n      tag_306\n      jumpi\n        /* \"#utility.yul\":12095:12099   */\n      0x7f\n        /* \"#utility.yul\":12087:12093   */\n      dup3\n        /* \"#utility.yul\":12083:12100   */\n      and\n        /* \"#utility.yul\":12073:12100   */\n      swap2\n      pop\n        /* \"#utility.yul\":12029:12110   */\n    tag_306:\n        /* \"#utility.yul\":12157:12159   */\n      0x20\n        /* \"#utility.yul\":12149:12155   */\n      dup3\n        /* \"#utility.yul\":12146:12160   */\n      lt\n        /* \"#utility.yul\":12126:12144   */\n      dup2\n        /* \"#utility.yul\":12123:12161   */\n      eq\n        /* \"#utility.yul\":12120:12204   */\n      iszero\n      tag_307\n      jumpi\n        /* \"#utility.yul\":12176:12194   */\n      tag_308\n      tag_309\n      jump\t// in\n    tag_308:\n        /* \"#utility.yul\":12120:12204   */\n    tag_307:\n        /* \"#utility.yul\":11941:12210   */\n      pop\n        /* \"#utility.yul\":11890:12210   */\n      swap2\n      swap1\n      pop\n      jump\t// out\n        /* \"#utility.yul\":12216:12497   */\n    tag_276:\n        /* \"#utility.yul\":12299:12326   */\n      tag_311\n        /* \"#utility.yul\":12321:12325   */\n      dup3\n        /* \"#utility.yul\":12299:12326   */\n      tag_224\n      jump\t// in\n    tag_311:\n        /* \"#utility.yul\":12291:12297   */\n      dup2\n        /* \"#utility.yul\":12287:12327   */\n      add\n        /* \"#utility.yul\":12429:12435   */\n      dup2\n        /* \"#utility.yul\":12417:12427   */\n      dup2\n        /* \"#utility.yul\":12414:12436   */\n      lt\n        /* \"#utility.yul\":12393:12411   */\n      0xffffffffffffffff\n        /* \"#utility.yul\":12381:12391   */\n      dup3\n        /* \"#utility.yul\":12378:12412   */\n      gt\n        /* \"#utility.yul\":12375:12437   */\n      or\n        /* \"#utility.yul\":12372:12460   */\n      iszero\n      tag_312\n      jumpi\n        /* \"#utility.yul\":12440:12458   */\n      tag_313\n      tag_281\n      jump\t// in\n    tag_313:\n        /* \"#utility.yul\":12372:12460   */\n    tag_312:\n        /* \"#utility.yul\":12480:12490   */\n      dup1\n        /* \"#utility.yul\":12476:12478   */\n      0x40\n        /* \"#utility.yul\":12469:12491   */\n      mstore\n        /* \"#utility.yul\":12259:12497   */\n      pop\n        /* \"#utility.yul\":12216:12497   */\n      pop\n      pop\n      jump\t// out\n        /* \"#utility.yul\":12503:12736   */\n    tag_114:\n        /* \"#utility.yul\":12542:12545   */\n      0x00\n        /* \"#utility.yul\":12565:12589   */\n      tag_315\n        /* \"#utility.yul\":12583:12588   */\n      dup3\n        /* \"#utility.yul\":12565:12589   */\n      tag_248\n      jump\t// in\n    tag_315:\n        /* \"#utility.yul\":12556:12589   */\n      swap2\n      pop\n        /* \"#utility.yul\":12611:12677   */\n      0xffffffffffffffffffffffffffffffffffffffffffffffffffffffffffffffff\n        /* \"#utility.yul\":12604:12609   */\n      dup3\n        /* \"#utility.yul\":12601:12678   */\n      eq\n        /* \"#utility.yul\":12598:12701   */\n      iszero\n      tag_316\n      jumpi\n        /* \"#utility.yul\":12681:12699   */\n      tag_317\n      tag_290\n      jump\t// in\n    tag_317:\n        /* \"#utility.yul\":12598:12701   */\n    tag_316:\n        /* \"#utility.yul\":12728:12729   */\n      0x01\n        /* \"#utility.yul\":12721:12726   */\n      dup3\n        /* \"#utility.yul\":12717:12730   */\n      add\n        /* \"#utility.yul\":12710:12730   */\n      swap1\n      pop\n        /* \"#utility.yul\":12503:12736   */\n      swap2\n      swap1\n      pop\n      jump\t// out\n        /* \"#utility.yul\":12742:12922   */\n    tag_290:\n        /* \"#utility.yul\":12790:12867   */\n      0x4e487b7100000000000000000000000000000000000000000000000000000000\n        /* \"#utility.yul\":12787:12788   */\n      0x00\n        /* \"#utility.yul\":12780:12868   */\n      mstore\n        /* \"#utility.yul\":12887:12891   */\n      0x11\n        /* \"#utility.yul\":12884:12885   */\n      0x04\n        /* \"#utility.yul\":12877:12892   */\n      mstore\n        /* \"#utility.yul\":12911:12915   */\n      0x24\n        /* \"#utility.yul\":12908:12909   */\n      0x00\n        /* \"#utility.yul\":12901:12916   */\n      revert\n        /* \"#utility.yul\":12928:13108   */\n    tag_309:\n        /* \"#utility.yul\":12976:13053   */\n      0x4e487b7100000000000000000000000000000000000000000000000000000000\n        /* \"#utility.yul\":12973:12974   */\n      0x00\n        /* \"#utility.yul\":12966:13054   */\n      mstore\n        /* \"#utility.yul\":13073:13077   */\n      0x22\n        /* \"#utility.yul\":13070:13071   */\n      0x04\n        /* \"#utility.yul\":13063:13078   */\n      mstore\n        /* \"#utility.yul\":13097:13101   */\n      0x24\n        /* \"#utility.yul\":13094:13095   */\n      0x00\n        /* \"#utility.yul\":13087:13102   */\n      revert\n        /* \"#utility.yul\":13114:13294   */\n    tag_53:\n        /* \"#utility.yul\":13162:13239   */\n      0x4e487b7100000000000000000000000000000000000000000000000000000000\n        /* \"#utility.yul\":13159:13160   */\n      0x00\n        /* \"#utility.yul\":13152:13240   */\n      mstore\n        /* \"#utility.yul\":13259:13263   */\n      0x32\n        /* \"#utility.yul\":13256:13257   */\n      0x04\n        /* \"#utility.yul\":13249:13264   */\n      mstore\n        /* \"#utility.yul\":13283:13287   */\n      0x24\n        /* \"#utility.yul\":13280:13281   */\n      0x00\n        /* \"#utility.yul\":13273:13288   */\n      revert\n        /* \"#utility.yul\":13300:13480   */\n    tag_281:\n        /* \"#utility.yul\":13348:13425   */\n      0x4e487b7100000000000000000000000000000000000000000000000000000000\n        /* \"#utility.yul\":13345:13346   */\n      0x00\n        /* \"#utility.yul\":13338:13426   */\n      mstore\n        /* \"#utility.yul\":13445:13449   */\n      0x41\n        /* \"#utility.yul\":13442:13443   */\n      0x04\n        /* \"#utility.yul\":13435:13450   */\n      mstore\n        /* \"#utility.yul\":13469:13473   */\n      0x24\n        /* \"#utility.yul\":13466:13467   */\n      0x00\n        /* \"#utility.yul\":13459:13474   */\n      revert\n        /* \"#utility.yul\":13486:13603   */\n    tag_170:\n        /* \"#utility.yul\":13595:13596   */\n      0x00\n        /* \"#utility.yul\":13592:13593   */\n      dup1\n        /* \"#utility.yul\":13585:13597   */\n      revert\n        /* \"#utility.yul\":13609:13726   */\n    tag_151:\n        /* \"#utility.yul\":13718:13719   */\n      0x00\n        /* \"#utility.yul\":13715:13716   */\n      dup1\n        /* \"#utility.yul\":13708:13720   */\n      revert\n        /* \"#utility.yul\":13732:13849   */\n    tag_191:\n        /* \"#utility.yul\":13841:13842   */\n      0x00\n        /* \"#utility.yul\":13838:13839   */\n      dup1\n        /* \"#utility.yul\":13831:13843   */\n      revert\n        /* \"#utility.yul\":13855:13972   */\n    tag_179:\n        /* \"#utility.yul\":13964:13965   */\n      0x00\n        /* \"#utility.yul\":13961:13962   */\n      dup1\n        /* \"#utility.yul\":13954:13966   */\n      revert\n        /* \"#utility.yul\":13978:14080   */\n    tag_224:\n        /* \"#utility.yul\":14019:14025   */\n      0x00\n        /* \"#utility.yul\":14070:14072   */\n      0x1f\n        /* \"#utility.yul\":14066:14073   */\n      not\n        /* \"#utility.yul\":14061:14063   */\n      0x1f\n        /* \"#utility.yul\":14054:14059   */\n      dup4\n        /* \"#utility.yul\":14050:14064   */\n      add\n        /* \"#utility.yul\":14046:14074   */\n      and\n        /* \"#utility.yul\":14036:14074   */\n      swap1\n      pop\n        /* \"#utility.yul\":13978:14080   */\n      swap2\n      swap1\n      pop\n      jump\t// out\n        /* \"#utility.yul\":14086:14266   */\n    tag_229:\n        /* \"#utility.yul\":14226:14258   */\n      0x6f6e6c79206f776e65722069732061626c6520746f20616464206b6964730000\n        /* \"#utility.yul\":14222:14223   */\n      0x00\n        /* \"#utility.yul\":14214:14220   */\n      dup3\n        /* \"#utility.yul\":14210:14224   */\n      add\n        /* \"#utility.yul\":14203:14259   */\n      mstore\n        /* \"#utility.yul\":14086:14266   */\n      pop\n      jump\t// out\n        /* \"#utility.yul\":14272:14500   */\n    tag_234:\n        /* \"#utility.yul\":14412:14446   */\n      0x796f7520617265206e6f742061626c6520746f20776974686472617720617420\n        /* \"#utility.yul\":14408:14409   */\n      0x00\n        /* \"#utility.yul\":14400:14406   */\n      dup3\n        /* \"#utility.yul\":14396:14410   */\n      add\n        /* \"#utility.yul\":14389:14447   */\n      mstore\n        /* \"#utility.yul\":14481:14492   */\n      0x746869732074696d650000000000000000000000000000000000000000000000\n        /* \"#utility.yul\":14476:14478   */\n      0x20\n        /* \"#utility.yul\":14468:14474   */\n      dup3\n        /* \"#utility.yul\":14464:14479   */\n      add\n        /* \"#utility.yul\":14457:14493   */\n      mstore\n        /* \"#utility.yul\":14272:14500   */\n      pop\n      jump\t// out\n        /* \"#utility.yul\":14506:14687   */\n    tag_239:\n        /* \"#utility.yul\":14646:14679   */\n      0x596f75206d75737420626520746865206b696420746f20776974686472617700\n        /* \"#utility.yul\":14642:14643   */\n      0x00\n        /* \"#utility.yul\":14634:14640   */\n      dup3\n        /* \"#utility.yul\":14630:14644   */\n      add\n        /* \"#utility.yul\":14623:14680   */\n      mstore\n        /* \"#utility.yul\":14506:14687   */\n      pop\n      jump\t// out\n        /* \"#utility.yul\":14693:14866   */\n    tag_244:\n        /* \"#utility.yul\":14833:14858   */\n      0x556e61626c6520746f2077697468647261772079657421000000000000000000\n        /* \"#utility.yul\":14829:14830   */\n      0x00\n        /* \"#utility.yul\":14821:14827   */\n      dup3\n        /* \"#utility.yul\":14817:14831   */\n      add\n        /* \"#utility.yul\":14810:14859   */\n      mstore\n        /* \"#utility.yul\":14693:14866   */\n      pop\n      jump\t// out\n        /* \"#utility.yul\":14872:14994   */\n    tag_157:\n        /* \"#utility.yul\":14945:14969   */\n      tag_332\n        /* \"#utility.yul\":14963:14968   */\n      dup2\n        /* \"#utility.yul\":14945:14969   */\n      tag_210\n      jump\t// in\n    tag_332:\n        /* \"#utility.yul\":14938:14943   */\n      dup2\n        /* \"#utility.yul\":14935:14970   */\n      eq\n        /* \"#utility.yul\":14925:14988   */\n      tag_333\n      jumpi\n        /* \"#utility.yul\":14984:14985   */\n      0x00\n        /* \"#utility.yul\":14981:14982   */\n      dup1\n        /* \"#utility.yul\":14974:14986   */\n      revert\n        /* \"#utility.yul\":14925:14988   */\n    tag_333:\n        /* \"#utility.yul\":14872:14994   */\n      pop\n      jump\t// out\n        /* \"#utility.yul\":15000:15138   */\n    tag_161:\n        /* \"#utility.yul\":15081:15113   */\n      tag_335\n        /* \"#utility.yul\":15107:15112   */\n      dup2\n        /* \"#utility.yul\":15081:15113   */\n      tag_206\n      jump\t// in\n    tag_335:\n        /* \"#utility.yul\":15074:15079   */\n      dup2\n        /* \"#utility.yul\":15071:15114   */\n      eq\n        /* \"#utility.yul\":15061:15132   */\n      tag_336\n      jumpi\n        /* \"#utility.yul\":15128:15129   */\n      0x00\n        /* \"#utility.yul\":15125:15126   */\n      dup1\n        /* \"#utility.yul\":15118:15130   */\n      revert\n        /* \"#utility.yul\":15061:15132   */\n    tag_336:\n        /* \"#utility.yul\":15000:15138   */\n      pop\n      jump\t// out\n        /* \"#utility.yul\":15144:15260   */\n    tag_165:\n        /* \"#utility.yul\":15214:15235   */\n      tag_338\n        /* \"#utility.yul\":15229:15234   */\n      dup2\n        /* \"#utility.yul\":15214:15235   */\n      tag_214\n      jump\t// in\n    tag_338:\n        /* \"#utility.yul\":15207:15212   */\n      dup2\n        /* \"#utility.yul\":15204:15236   */\n      eq\n        /* \"#utility.yul\":15194:15254   */\n      tag_339\n      jumpi\n        /* \"#utility.yul\":15250:15251   */\n      0x00\n        /* \"#utility.yul\":15247:15248   */\n      dup1\n        /* \"#utility.yul\":15240:15252   */\n      revert\n        /* \"#utility.yul\":15194:15254   */\n    tag_339:\n        /* \"#utility.yul\":15144:15260   */\n      pop\n      jump\t// out\n        /* \"#utility.yul\":15266:15388   */\n    tag_175:\n        /* \"#utility.yul\":15339:15363   */\n      tag_341\n        /* \"#utility.yul\":15357:15362   */\n      dup2\n        /* \"#utility.yul\":15339:15363   */\n      tag_248\n      jump\t// in\n    tag_341:\n        /* \"#utility.yul\":15332:15337   */\n      dup2\n        /* \"#utility.yul\":15329:15364   */\n      eq\n        /* \"#utility.yul\":15319:15382   */\n      tag_342\n      jumpi\n        /* \"#utility.yul\":15378:15379   */\n      0x00\n        /* \"#utility.yul\":15375:15376   */\n      dup1\n        /* \"#utility.yul\":15368:15380   */\n      revert\n        /* \"#utility.yul\":15319:15382   */\n    tag_342:\n        /* \"#utility.yul\":15266:15388   */\n      pop\n      jump\t// out\n\n    auxdata: 0xa2646970667358221220acc6537eaf6e46a70b2ee863718d3906832470ab4ad5841949f613eaf1cd682964736f6c63430008070033\n}\n",
				"bytecode": {
					"linkReferences": {},
					"object": "608060405234801561001057600080fd5b50336000806101000a81548173ffffffffffffffffffffffffffffffffffffffff021916908373ffffffffffffffffffffffffffffffffffffffff1602179055506112d2806100606000396000f3fe6080604052600436106100555760003560e01c806331d575c51461005a57806351cff8d914610083578063722713f71461009f5780637285fd3a146100ca578063daa6b8691461010c578063f340fa0114610149575b600080fd5b34801561006657600080fd5b50610081600480360381019061007c9190610b36565b610165565b005b61009d60048036038101906100989190610b09565b610322565b005b3480156100ab57600080fd5b506100b4610510565b6040516100c19190610e6a565b60405180910390f35b3480156100d657600080fd5b506100f160048036038101906100ec9190610bfb565b610518565b60405161010396959493929190610d29565b60405180910390f35b34801561011857600080fd5b50610133600480360381019061012e9190610adc565b6106a1565b6040516101409190610dcf565b60405180910390f35b610163600480360381019061015e9190610adc565b610795565b005b60008054906101000a900473ffffffffffffffffffffffffffffffffffffffff1673ffffffffffffffffffffffffffffffffffffffff163373ffffffffffffffffffffffffffffffffffffffff16146101f3576040517f08c379a00000000000000000000000000000000000000000000000000000000081526004016101ea90610dea565b60405180910390fd5b60016040518060c001604052808873ffffffffffffffffffffffffffffffffffffffff168152602001878152602001868152602001858152602001848152602001831515815250908060018154018082558091505060019003906000526020600020906006020160009091909190915060008201518160000160006101000a81548173ffffffffffffffffffffffffffffffffffffffff021916908373ffffffffffffffffffffffffffffffffffffffff16021790555060208201518160010190805190602001906102c6929190610975565b5060408201518160020190805190602001906102e3929190610975565b50606082015181600301556080820151816004015560a08201518160050160006101000a81548160ff0219169083151502179055505050505050505050565b600061032d826107a1565b905060018181548110610343576103426110f3565b5b906000526020600020906006020160000160009054906101000a900473ffffffffffffffffffffffffffffffffffffffff1673ffffffffffffffffffffffffffffffffffffffff163373ffffffffffffffffffffffffffffffffffffffff16146103e2576040517f08c379a00000000000000000000000000000000000000000000000000000000081526004016103d990610e2a565b60405180910390fd5b60011515600182815481106103fa576103f96110f3565b5b906000526020600020906006020160050160009054906101000a900460ff1615151461045b576040517f08c379a000000000000000000000000000000000000000000000000000000000815260040161045290610e0a565b60405180910390fd5b6001818154811061046f5761046e6110f3565b5b906000526020600020906006020160000160009054906101000a900473ffffffffffffffffffffffffffffffffffffffff1673ffffffffffffffffffffffffffffffffffffffff166108fc600183815481106104ce576104cd6110f3565b5b9060005260206000209060060201600401549081150290604051600060405180830381858888f1935050505015801561050b573d6000803e3d6000fd5b505050565b600047905090565b6001818154811061052857600080fd5b90600052602060002090600602016000915090508060000160009054906101000a900473ffffffffffffffffffffffffffffffffffffffff169080600101805461057190610fe9565b80601f016020809104026020016040519081016040528092919081815260200182805461059d90610fe9565b80156105ea5780601f106105bf576101008083540402835291602001916105ea565b820191906000526020600020905b8154815290600101906020018083116105cd57829003601f168201915b5050505050908060020180546105ff90610fe9565b80601f016020809104026020016040519081016040528092919081815260200182805461062b90610fe9565b80156106785780601f1061064d57610100808354040283529160200191610678565b820191906000526020600020905b81548152906001019060200180831161065b57829003601f168201915b5050505050908060030154908060040154908060050160009054906101000a900460ff16905086565b6000806106ad836107a1565b9050600181815481106106c3576106c26110f3565b5b9060005260206000209060060201600301544211610716576040517f08c379a000000000000000000000000000000000000000000000000000000000815260040161070d90610e4a565b60405180910390fd5b6001818154811061072a576107296110f3565b5b90600052602060002090600602016003015442111561078a576001808281548110610758576107576110f3565b5b906000526020600020906006020160050160006101000a81548160ff0219169083151502179055506001915050610790565b60009150505b919050565b61079e81610856565b50565b600080600090505b60018054905081101561084b578273ffffffffffffffffffffffffffffffffffffffff16600182815481106107e1576107e06110f3565b5b906000526020600020906006020160000160009054906101000a900473ffffffffffffffffffffffffffffffffffffffff1673ffffffffffffffffffffffffffffffffffffffff1614156108385780915050610851565b80806108439061104c565b9150506107a9565b50603290505b919050565b60005b600180549050811015610971578173ffffffffffffffffffffffffffffffffffffffff1660018281548110610891576108906110f3565b5b906000526020600020906006020160000160009054906101000a900473ffffffffffffffffffffffffffffffffffffffff1673ffffffffffffffffffffffffffffffffffffffff16141561095e5734600182815481106108f4576108f36110f3565b5b906000526020600020906006020160040160008282546109149190610ef7565b925050819055507fdfa390b0c1c515579c441209b0f88953b3383e444305380136073b84d9ae5eaf8234610946610510565b60405161095593929190610d98565b60405180910390a15b80806109699061104c565b915050610859565b5050565b82805461098190610fe9565b90600052602060002090601f0160209004810192826109a357600085556109ea565b82601f106109bc57805160ff19168380011785556109ea565b828001600101855582156109ea579182015b828111156109e95782518255916020019190600101906109ce565b5b5090506109f791906109fb565b5090565b5b80821115610a145760008160009055506001016109fc565b5090565b6000610a2b610a2684610eaa565b610e85565b905082815260208101848484011115610a4757610a46611156565b5b610a52848285610fa7565b509392505050565b600081359050610a6981611240565b92915050565b600081359050610a7e81611257565b92915050565b600081359050610a938161126e565b92915050565b600082601f830112610aae57610aad611151565b5b8135610abe848260208601610a18565b91505092915050565b600081359050610ad681611285565b92915050565b600060208284031215610af257610af1611160565b5b6000610b0084828501610a5a565b91505092915050565b600060208284031215610b1f57610b1e611160565b5b6000610b2d84828501610a6f565b91505092915050565b60008060008060008060c08789031215610b5357610b52611160565b5b6000610b6189828a01610a6f565b965050602087013567ffffffffffffffff811115610b8257610b8161115b565b5b610b8e89828a01610a99565b955050604087013567ffffffffffffffff811115610baf57610bae61115b565b5b610bbb89828a01610a99565b9450506060610bcc89828a01610ac7565b9350506080610bdd89828a01610ac7565b92505060a0610bee89828a01610a84565b9150509295509295509295565b600060208284031215610c1157610c10611160565b5b6000610c1f84828501610ac7565b91505092915050565b610c3181610f5f565b82525050565b610c4081610f4d565b82525050565b610c4f81610f71565b82525050565b6000610c6082610edb565b610c6a8185610ee6565b9350610c7a818560208601610fb6565b610c8381611165565b840191505092915050565b6000610c9b601e83610ee6565b9150610ca682611176565b602082019050919050565b6000610cbe602983610ee6565b9150610cc98261119f565b604082019050919050565b6000610ce1601f83610ee6565b9150610cec826111ee565b602082019050919050565b6000610d04601783610ee6565b9150610d0f82611217565b602082019050919050565b610d2381610f9d565b82525050565b600060c082019050610d3e6000830189610c28565b8181036020830152610d508188610c55565b90508181036040830152610d648187610c55565b9050610d736060830186610d1a565b610d806080830185610d1a565b610d8d60a0830184610c46565b979650505050505050565b6000606082019050610dad6000830186610c37565b610dba6020830185610d1a565b610dc76040830184610d1a565b949350505050565b6000602082019050610de46000830184610c46565b92915050565b60006020820190508181036000830152610e0381610c8e565b9050919050565b60006020820190508181036000830152610e2381610cb1565b9050919050565b60006020820190508181036000830152610e4381610cd4565b9050919050565b60006020820190508181036000830152610e6381610cf7565b9050919050565b6000602082019050610e7f6000830184610d1a565b92915050565b6000610e8f610ea0565b9050610e9b828261101b565b919050565b6000604051905090565b600067ffffffffffffffff821115610ec557610ec4611122565b5b610ece82611165565b9050602081019050919050565b600081519050919050565b600082825260208201905092915050565b6000610f0282610f9d565b9150610f0d83610f9d565b9250827fffffffffffffffffffffffffffffffffffffffffffffffffffffffffffffffff03821115610f4257610f41611095565b5b828201905092915050565b6000610f5882610f7d565b9050919050565b6000610f6a82610f7d565b9050919050565b60008115159050919050565b600073ffffffffffffffffffffffffffffffffffffffff82169050919050565b6000819050919050565b82818337600083830152505050565b60005b83811015610fd4578082015181840152602081019050610fb9565b83811115610fe3576000848401525b50505050565b6000600282049050600182168061100157607f821691505b60208210811415611015576110146110c4565b5b50919050565b61102482611165565b810181811067ffffffffffffffff8211171561104357611042611122565b5b80604052505050565b600061105782610f9d565b91507fffffffffffffffffffffffffffffffffffffffffffffffffffffffffffffffff82141561108a57611089611095565b5b600182019050919050565b7f4e487b7100000000000000000000000000000000000000000000000000000000600052601160045260246000fd5b7f4e487b7100000000000000000000000000000000000000000000000000000000600052602260045260246000fd5b7f4e487b7100000000000000000000000000000000000000000000000000000000600052603260045260246000fd5b7f4e487b7100000000000000000000000000000000000000000000000000000000600052604160045260246000fd5b600080fd5b600080fd5b600080fd5b600080fd5b6000601f19601f8301169050919050565b7f6f6e6c79206f776e65722069732061626c6520746f20616464206b6964730000600082015250565b7f796f7520617265206e6f742061626c6520746f2077697468647261772061742060008201527f746869732074696d650000000000000000000000000000000000000000000000602082015250565b7f596f75206d75737420626520746865206b696420746f20776974686472617700600082015250565b7f556e61626c6520746f2077697468647261772079657421000000000000000000600082015250565b61124981610f4d565b811461125457600080fd5b50565b61126081610f5f565b811461126b57600080fd5b50565b61127781610f71565b811461128257600080fd5b50565b61128e81610f9d565b811461129957600080fd5b5056fea2646970667358221220acc6537eaf6e46a70b2ee863718d3906832470ab4ad5841949f613eaf1cd682964736f6c63430008070033",
					"opcodes": "PUSH1 0x80 PUSH1 0x40 MSTORE CALLVALUE DUP1 ISZERO PUSH2 0x10 JUMPI PUSH1 0x0 DUP1 REVERT JUMPDEST POP CALLER PUSH1 0x0 DUP1 PUSH2 0x100 EXP DUP2 SLOAD DUP2 PUSH20 0xFFFFFFFFFFFFFFFFFFFFFFFFFFFFFFFFFFFFFFFF MUL NOT AND SWAP1 DUP4 PUSH20 0xFFFFFFFFFFFFFFFFFFFFFFFFFFFFFFFFFFFFFFFF AND MUL OR SWAP1 SSTORE POP PUSH2 0x12D2 DUP1 PUSH2 0x60 PUSH1 0x0 CODECOPY PUSH1 0x0 RETURN INVALID PUSH1 0x80 PUSH1 0x40 MSTORE PUSH1 0x4 CALLDATASIZE LT PUSH2 0x55 JUMPI PUSH1 0x0 CALLDATALOAD PUSH1 0xE0 SHR DUP1 PUSH4 0x31D575C5 EQ PUSH2 0x5A JUMPI DUP1 PUSH4 0x51CFF8D9 EQ PUSH2 0x83 JUMPI DUP1 PUSH4 0x722713F7 EQ PUSH2 0x9F JUMPI DUP1 PUSH4 0x7285FD3A EQ PUSH2 0xCA JUMPI DUP1 PUSH4 0xDAA6B869 EQ PUSH2 0x10C JUMPI DUP1 PUSH4 0xF340FA01 EQ PUSH2 0x149 JUMPI JUMPDEST PUSH1 0x0 DUP1 REVERT JUMPDEST CALLVALUE DUP1 ISZERO PUSH2 0x66 JUMPI PUSH1 0x0 DUP1 REVERT JUMPDEST POP PUSH2 0x81 PUSH1 0x4 DUP1 CALLDATASIZE SUB DUP2 ADD SWAP1 PUSH2 0x7C SWAP2 SWAP1 PUSH2 0xB36 JUMP JUMPDEST PUSH2 0x165 JUMP JUMPDEST STOP JUMPDEST PUSH2 0x9D PUSH1 0x4 DUP1 CALLDATASIZE SUB DUP2 ADD SWAP1 PUSH2 0x98 SWAP2 SWAP1 PUSH2 0xB09 JUMP JUMPDEST PUSH2 0x322 JUMP JUMPDEST STOP JUMPDEST CALLVALUE DUP1 ISZERO PUSH2 0xAB JUMPI PUSH1 0x0 DUP1 REVERT JUMPDEST POP PUSH2 0xB4 PUSH2 0x510 JUMP JUMPDEST PUSH1 0x40 MLOAD PUSH2 0xC1 SWAP2 SWAP1 PUSH2 0xE6A JUMP JUMPDEST PUSH1 0x40 MLOAD DUP1 SWAP2 SUB SWAP1 RETURN JUMPDEST CALLVALUE DUP1 ISZERO PUSH2 0xD6 JUMPI PUSH1 0x0 DUP1 REVERT JUMPDEST POP PUSH2 0xF1 PUSH1 0x4 DUP1 CALLDATASIZE SUB DUP2 ADD SWAP1 PUSH2 0xEC SWAP2 SWAP1 PUSH2 0xBFB JUMP JUMPDEST PUSH2 0x518 JUMP JUMPDEST PUSH1 0x40 MLOAD PUSH2 0x103 SWAP7 SWAP6 SWAP5 SWAP4 SWAP3 SWAP2 SWAP1 PUSH2 0xD29 JUMP JUMPDEST PUSH1 0x40 MLOAD DUP1 SWAP2 SUB SWAP1 RETURN JUMPDEST CALLVALUE DUP1 ISZERO PUSH2 0x118 JUMPI PUSH1 0x0 DUP1 REVERT JUMPDEST POP PUSH2 0x133 PUSH1 0x4 DUP1 CALLDATASIZE SUB DUP2 ADD SWAP1 PUSH2 0x12E SWAP2 SWAP1 PUSH2 0xADC JUMP JUMPDEST PUSH2 0x6A1 JUMP JUMPDEST PUSH1 0x40 MLOAD PUSH2 0x140 SWAP2 SWAP1 PUSH2 0xDCF JUMP JUMPDEST PUSH1 0x40 MLOAD DUP1 SWAP2 SUB SWAP1 RETURN JUMPDEST PUSH2 0x163 PUSH1 0x4 DUP1 CALLDATASIZE SUB DUP2 ADD SWAP1 PUSH2 0x15E SWAP2 SWAP1 PUSH2 0xADC JUMP JUMPDEST PUSH2 0x795 JUMP JUMPDEST STOP JUMPDEST PUSH1 0x0 DUP1 SLOAD SWAP1 PUSH2 0x100 EXP SWAP1 DIV PUSH20 0xFFFFFFFFFFFFFFFFFFFFFFFFFFFFFFFFFFFFFFFF AND PUSH20 0xFFFFFFFFFFFFFFFFFFFFFFFFFFFFFFFFFFFFFFFF AND CALLER PUSH20 0xFFFFFFFFFFFFFFFFFFFFFFFFFFFFFFFFFFFFFFFF AND EQ PUSH2 0x1F3 JUMPI PUSH1 0x40 MLOAD PUSH32 0x8C379A000000000000000000000000000000000000000000000000000000000 DUP2 MSTORE PUSH1 0x4 ADD PUSH2 0x1EA SWAP1 PUSH2 0xDEA JUMP JUMPDEST PUSH1 0x40 MLOAD DUP1 SWAP2 SUB SWAP1 REVERT JUMPDEST PUSH1 0x1 PUSH1 0x40 MLOAD DUP1 PUSH1 0xC0 ADD PUSH1 0x40 MSTORE DUP1 DUP9 PUSH20 0xFFFFFFFFFFFFFFFFFFFFFFFFFFFFFFFFFFFFFFFF AND DUP2 MSTORE PUSH1 0x20 ADD DUP8 DUP2 MSTORE PUSH1 0x20 ADD DUP7 DUP2 MSTORE PUSH1 0x20 ADD DUP6 DUP2 MSTORE PUSH1 0x20 ADD DUP5 DUP2 MSTORE PUSH1 0x20 ADD DUP4 ISZERO ISZERO DUP2 MSTORE POP SWAP1 DUP1 PUSH1 0x1 DUP2 SLOAD ADD DUP1 DUP3 SSTORE DUP1 SWAP2 POP POP PUSH1 0x1 SWAP1 SUB SWAP1 PUSH1 0x0 MSTORE PUSH1 0x20 PUSH1 0x0 KECCAK256 SWAP1 PUSH1 0x6 MUL ADD PUSH1 0x0 SWAP1 SWAP2 SWAP1 SWAP2 SWAP1 SWAP2 POP PUSH1 0x0 DUP3 ADD MLOAD DUP2 PUSH1 0x0 ADD PUSH1 0x0 PUSH2 0x100 EXP DUP2 SLOAD DUP2 PUSH20 0xFFFFFFFFFFFFFFFFFFFFFFFFFFFFFFFFFFFFFFFF MUL NOT AND SWAP1 DUP4 PUSH20 0xFFFFFFFFFFFFFFFFFFFFFFFFFFFFFFFFFFFFFFFF AND MUL OR SWAP1 SSTORE POP PUSH1 0x20 DUP3 ADD MLOAD DUP2 PUSH1 0x1 ADD SWAP1 DUP1 MLOAD SWAP1 PUSH1 0x20 ADD SWAP1 PUSH2 0x2C6 SWAP3 SWAP2 SWAP1 PUSH2 0x975 JUMP JUMPDEST POP PUSH1 0x40 DUP3 ADD MLOAD DUP2 PUSH1 0x2 ADD SWAP1 DUP1 MLOAD SWAP1 PUSH1 0x20 ADD SWAP1 PUSH2 0x2E3 SWAP3 SWAP2 SWAP1 PUSH2 0x975 JUMP JUMPDEST POP PUSH1 0x60 DUP3 ADD MLOAD DUP2 PUSH1 0x3 ADD SSTORE PUSH1 0x80 DUP3 ADD MLOAD DUP2 PUSH1 0x4 ADD SSTORE PUSH1 0xA0 DUP3 ADD MLOAD DUP2 PUSH1 0x5 ADD PUSH1 0x0 PUSH2 0x100 EXP DUP2 SLOAD DUP2 PUSH1 0xFF MUL NOT AND SWAP1 DUP4 ISZERO ISZERO MUL OR SWAP1 SSTORE POP POP POP POP POP POP POP POP POP JUMP JUMPDEST PUSH1 0x0 PUSH2 0x32D DUP3 PUSH2 0x7A1 JUMP JUMPDEST SWAP1 POP PUSH1 0x1 DUP2 DUP2 SLOAD DUP2 LT PUSH2 0x343 JUMPI PUSH2 0x342 PUSH2 0x10F3 JUMP JUMPDEST JUMPDEST SWAP1 PUSH1 0x0 MSTORE PUSH1 0x20 PUSH1 0x0 KECCAK256 SWAP1 PUSH1 0x6 MUL ADD PUSH1 0x0 ADD PUSH1 0x0 SWAP1 SLOAD SWAP1 PUSH2 0x100 EXP SWAP1 DIV PUSH20 0xFFFFFFFFFFFFFFFFFFFFFFFFFFFFFFFFFFFFFFFF AND PUSH20 0xFFFFFFFFFFFFFFFFFFFFFFFFFFFFFFFFFFFFFFFF AND CALLER PUSH20 0xFFFFFFFFFFFFFFFFFFFFFFFFFFFFFFFFFFFFFFFF AND EQ PUSH2 0x3E2 JUMPI PUSH1 0x40 MLOAD PUSH32 0x8C379A000000000000000000000000000000000000000000000000000000000 DUP2 MSTORE PUSH1 0x4 ADD PUSH2 0x3D9 SWAP1 PUSH2 0xE2A JUMP JUMPDEST PUSH1 0x40 MLOAD DUP1 SWAP2 SUB SWAP1 REVERT JUMPDEST PUSH1 0x1 ISZERO ISZERO PUSH1 0x1 DUP3 DUP2 SLOAD DUP2 LT PUSH2 0x3FA JUMPI PUSH2 0x3F9 PUSH2 0x10F3 JUMP JUMPDEST JUMPDEST SWAP1 PUSH1 0x0 MSTORE PUSH1 0x20 PUSH1 0x0 KECCAK256 SWAP1 PUSH1 0x6 MUL ADD PUSH1 0x5 ADD PUSH1 0x0 SWAP1 SLOAD SWAP1 PUSH2 0x100 EXP SWAP1 DIV PUSH1 0xFF AND ISZERO ISZERO EQ PUSH2 0x45B JUMPI PUSH1 0x40 MLOAD PUSH32 0x8C379A000000000000000000000000000000000000000000000000000000000 DUP2 MSTORE PUSH1 0x4 ADD PUSH2 0x452 SWAP1 PUSH2 0xE0A JUMP JUMPDEST PUSH1 0x40 MLOAD DUP1 SWAP2 SUB SWAP1 REVERT JUMPDEST PUSH1 0x1 DUP2 DUP2 SLOAD DUP2 LT PUSH2 0x46F JUMPI PUSH2 0x46E PUSH2 0x10F3 JUMP JUMPDEST JUMPDEST SWAP1 PUSH1 0x0 MSTORE PUSH1 0x20 PUSH1 0x0 KECCAK256 SWAP1 PUSH1 0x6 MUL ADD PUSH1 0x0 ADD PUSH1 0x0 SWAP1 SLOAD SWAP1 PUSH2 0x100 EXP SWAP1 DIV PUSH20 0xFFFFFFFFFFFFFFFFFFFFFFFFFFFFFFFFFFFFFFFF AND PUSH20 0xFFFFFFFFFFFFFFFFFFFFFFFFFFFFFFFFFFFFFFFF AND PUSH2 0x8FC PUSH1 0x1 DUP4 DUP2 SLOAD DUP2 LT PUSH2 0x4CE JUMPI PUSH2 0x4CD PUSH2 0x10F3 JUMP JUMPDEST JUMPDEST SWAP1 PUSH1 0x0 MSTORE PUSH1 0x20 PUSH1 0x0 KECCAK256 SWAP1 PUSH1 0x6 MUL ADD PUSH1 0x4 ADD SLOAD SWAP1 DUP2 ISZERO MUL SWAP1 PUSH1 0x40 MLOAD PUSH1 0x0 PUSH1 0x40 MLOAD DUP1 DUP4 SUB DUP2 DUP6 DUP9 DUP9 CALL SWAP4 POP POP POP POP ISZERO DUP1 ISZERO PUSH2 0x50B JUMPI RETURNDATASIZE PUSH1 0x0 DUP1 RETURNDATACOPY RETURNDATASIZE PUSH1 0x0 REVERT JUMPDEST POP POP POP JUMP JUMPDEST PUSH1 0x0 SELFBALANCE SWAP1 POP SWAP1 JUMP JUMPDEST PUSH1 0x1 DUP2 DUP2 SLOAD DUP2 LT PUSH2 0x528 JUMPI PUSH1 0x0 DUP1 REVERT JUMPDEST SWAP1 PUSH1 0x0 MSTORE PUSH1 0x20 PUSH1 0x0 KECCAK256 SWAP1 PUSH1 0x6 MUL ADD PUSH1 0x0 SWAP2 POP SWAP1 POP DUP1 PUSH1 0x0 ADD PUSH1 0x0 SWAP1 SLOAD SWAP1 PUSH2 0x100 EXP SWAP1 DIV PUSH20 0xFFFFFFFFFFFFFFFFFFFFFFFFFFFFFFFFFFFFFFFF AND SWAP1 DUP1 PUSH1 0x1 ADD DUP1 SLOAD PUSH2 0x571 SWAP1 PUSH2 0xFE9 JUMP JUMPDEST DUP1 PUSH1 0x1F ADD PUSH1 0x20 DUP1 SWAP2 DIV MUL PUSH1 0x20 ADD PUSH1 0x40 MLOAD SWAP1 DUP2 ADD PUSH1 0x40 MSTORE DUP1 SWAP3 SWAP2 SWAP1 DUP2 DUP2 MSTORE PUSH1 0x20 ADD DUP3 DUP1 SLOAD PUSH2 0x59D SWAP1 PUSH2 0xFE9 JUMP JUMPDEST DUP1 ISZERO PUSH2 0x5EA JUMPI DUP1 PUSH1 0x1F LT PUSH2 0x5BF JUMPI PUSH2 0x100 DUP1 DUP4 SLOAD DIV MUL DUP4 MSTORE SWAP2 PUSH1 0x20 ADD SWAP2 PUSH2 0x5EA JUMP JUMPDEST DUP3 ADD SWAP2 SWAP1 PUSH1 0x0 MSTORE PUSH1 0x20 PUSH1 0x0 KECCAK256 SWAP1 JUMPDEST DUP2 SLOAD DUP2 MSTORE SWAP1 PUSH1 0x1 ADD SWAP1 PUSH1 0x20 ADD DUP1 DUP4 GT PUSH2 0x5CD JUMPI DUP3 SWAP1 SUB PUSH1 0x1F AND DUP3 ADD SWAP2 JUMPDEST POP POP POP POP POP SWAP1 DUP1 PUSH1 0x2 ADD DUP1 SLOAD PUSH2 0x5FF SWAP1 PUSH2 0xFE9 JUMP JUMPDEST DUP1 PUSH1 0x1F ADD PUSH1 0x20 DUP1 SWAP2 DIV MUL PUSH1 0x20 ADD PUSH1 0x40 MLOAD SWAP1 DUP2 ADD PUSH1 0x40 MSTORE DUP1 SWAP3 SWAP2 SWAP1 DUP2 DUP2 MSTORE PUSH1 0x20 ADD DUP3 DUP1 SLOAD PUSH2 0x62B SWAP1 PUSH2 0xFE9 JUMP JUMPDEST DUP1 ISZERO PUSH2 0x678 JUMPI DUP1 PUSH1 0x1F LT PUSH2 0x64D JUMPI PUSH2 0x100 DUP1 DUP4 SLOAD DIV MUL DUP4 MSTORE SWAP2 PUSH1 0x20 ADD SWAP2 PUSH2 0x678 JUMP JUMPDEST DUP3 ADD SWAP2 SWAP1 PUSH1 0x0 MSTORE PUSH1 0x20 PUSH1 0x0 KECCAK256 SWAP1 JUMPDEST DUP2 SLOAD DUP2 MSTORE SWAP1 PUSH1 0x1 ADD SWAP1 PUSH1 0x20 ADD DUP1 DUP4 GT PUSH2 0x65B JUMPI DUP3 SWAP1 SUB PUSH1 0x1F AND DUP3 ADD SWAP2 JUMPDEST POP POP POP POP POP SWAP1 DUP1 PUSH1 0x3 ADD SLOAD SWAP1 DUP1 PUSH1 0x4 ADD SLOAD SWAP1 DUP1 PUSH1 0x5 ADD PUSH1 0x0 SWAP1 SLOAD SWAP1 PUSH2 0x100 EXP SWAP1 DIV PUSH1 0xFF AND SWAP1 POP DUP7 JUMP JUMPDEST PUSH1 0x0 DUP1 PUSH2 0x6AD DUP4 PUSH2 0x7A1 JUMP JUMPDEST SWAP1 POP PUSH1 0x1 DUP2 DUP2 SLOAD DUP2 LT PUSH2 0x6C3 JUMPI PUSH2 0x6C2 PUSH2 0x10F3 JUMP JUMPDEST JUMPDEST SWAP1 PUSH1 0x0 MSTORE PUSH1 0x20 PUSH1 0x0 KECCAK256 SWAP1 PUSH1 0x6 MUL ADD PUSH1 0x3 ADD SLOAD TIMESTAMP GT PUSH2 0x716 JUMPI PUSH1 0x40 MLOAD PUSH32 0x8C379A000000000000000000000000000000000000000000000000000000000 DUP2 MSTORE PUSH1 0x4 ADD PUSH2 0x70D SWAP1 PUSH2 0xE4A JUMP JUMPDEST PUSH1 0x40 MLOAD DUP1 SWAP2 SUB SWAP1 REVERT JUMPDEST PUSH1 0x1 DUP2 DUP2 SLOAD DUP2 LT PUSH2 0x72A JUMPI PUSH2 0x729 PUSH2 0x10F3 JUMP JUMPDEST JUMPDEST SWAP1 PUSH1 0x0 MSTORE PUSH1 0x20 PUSH1 0x0 KECCAK256 SWAP1 PUSH1 0x6 MUL ADD PUSH1 0x3 ADD SLOAD TIMESTAMP GT ISZERO PUSH2 0x78A JUMPI PUSH1 0x1 DUP1 DUP3 DUP2 SLOAD DUP2 LT PUSH2 0x758 JUMPI PUSH2 0x757 PUSH2 0x10F3 JUMP JUMPDEST JUMPDEST SWAP1 PUSH1 0x0 MSTORE PUSH1 0x20 PUSH1 0x0 KECCAK256 SWAP1 PUSH1 0x6 MUL ADD PUSH1 0x5 ADD PUSH1 0x0 PUSH2 0x100 EXP DUP2 SLOAD DUP2 PUSH1 0xFF MUL NOT AND SWAP1 DUP4 ISZERO ISZERO MUL OR SWAP1 SSTORE POP PUSH1 0x1 SWAP2 POP POP PUSH2 0x790 JUMP JUMPDEST PUSH1 0x0 SWAP2 POP POP JUMPDEST SWAP2 SWAP1 POP JUMP JUMPDEST PUSH2 0x79E DUP2 PUSH2 0x856 JUMP JUMPDEST POP JUMP JUMPDEST PUSH1 0x0 DUP1 PUSH1 0x0 SWAP1 POP JUMPDEST PUSH1 0x1 DUP1 SLOAD SWAP1 POP DUP2 LT ISZERO PUSH2 0x84B JUMPI DUP3 PUSH20 0xFFFFFFFFFFFFFFFFFFFFFFFFFFFFFFFFFFFFFFFF AND PUSH1 0x1 DUP3 DUP2 SLOAD DUP2 LT PUSH2 0x7E1 JUMPI PUSH2 0x7E0 PUSH2 0x10F3 JUMP JUMPDEST JUMPDEST SWAP1 PUSH1 0x0 MSTORE PUSH1 0x20 PUSH1 0x0 KECCAK256 SWAP1 PUSH1 0x6 MUL ADD PUSH1 0x0 ADD PUSH1 0x0 SWAP1 SLOAD SWAP1 PUSH2 0x100 EXP SWAP1 DIV PUSH20 0xFFFFFFFFFFFFFFFFFFFFFFFFFFFFFFFFFFFFFFFF AND PUSH20 0xFFFFFFFFFFFFFFFFFFFFFFFFFFFFFFFFFFFFFFFF AND EQ ISZERO PUSH2 0x838 JUMPI DUP1 SWAP2 POP POP PUSH2 0x851 JUMP JUMPDEST DUP1 DUP1 PUSH2 0x843 SWAP1 PUSH2 0x104C JUMP JUMPDEST SWAP2 POP POP PUSH2 0x7A9 JUMP JUMPDEST POP PUSH1 0x32 SWAP1 POP JUMPDEST SWAP2 SWAP1 POP JUMP JUMPDEST PUSH1 0x0 JUMPDEST PUSH1 0x1 DUP1 SLOAD SWAP1 POP DUP2 LT ISZERO PUSH2 0x971 JUMPI DUP2 PUSH20 0xFFFFFFFFFFFFFFFFFFFFFFFFFFFFFFFFFFFFFFFF AND PUSH1 0x1 DUP3 DUP2 SLOAD DUP2 LT PUSH2 0x891 JUMPI PUSH2 0x890 PUSH2 0x10F3 JUMP JUMPDEST JUMPDEST SWAP1 PUSH1 0x0 MSTORE PUSH1 0x20 PUSH1 0x0 KECCAK256 SWAP1 PUSH1 0x6 MUL ADD PUSH1 0x0 ADD PUSH1 0x0 SWAP1 SLOAD SWAP1 PUSH2 0x100 EXP SWAP1 DIV PUSH20 0xFFFFFFFFFFFFFFFFFFFFFFFFFFFFFFFFFFFFFFFF AND PUSH20 0xFFFFFFFFFFFFFFFFFFFFFFFFFFFFFFFFFFFFFFFF AND EQ ISZERO PUSH2 0x95E JUMPI CALLVALUE PUSH1 0x1 DUP3 DUP2 SLOAD DUP2 LT PUSH2 0x8F4 JUMPI PUSH2 0x8F3 PUSH2 0x10F3 JUMP JUMPDEST JUMPDEST SWAP1 PUSH1 0x0 MSTORE PUSH1 0x20 PUSH1 0x0 KECCAK256 SWAP1 PUSH1 0x6 MUL ADD PUSH1 0x4 ADD PUSH1 0x0 DUP3 DUP3 SLOAD PUSH2 0x914 SWAP2 SWAP1 PUSH2 0xEF7 JUMP JUMPDEST SWAP3 POP POP DUP2 SWAP1 SSTORE POP PUSH32 0xDFA390B0C1C515579C441209B0F88953B3383E444305380136073B84D9AE5EAF DUP3 CALLVALUE PUSH2 0x946 PUSH2 0x510 JUMP JUMPDEST PUSH1 0x40 MLOAD PUSH2 0x955 SWAP4 SWAP3 SWAP2 SWAP1 PUSH2 0xD98 JUMP JUMPDEST PUSH1 0x40 MLOAD DUP1 SWAP2 SUB SWAP1 LOG1 JUMPDEST DUP1 DUP1 PUSH2 0x969 SWAP1 PUSH2 0x104C JUMP JUMPDEST SWAP2 POP POP PUSH2 0x859 JUMP JUMPDEST POP POP JUMP JUMPDEST DUP3 DUP1 SLOAD PUSH2 0x981 SWAP1 PUSH2 0xFE9 JUMP JUMPDEST SWAP1 PUSH1 0x0 MSTORE PUSH1 0x20 PUSH1 0x0 KECCAK256 SWAP1 PUSH1 0x1F ADD PUSH1 0x20 SWAP1 DIV DUP2 ADD SWAP3 DUP3 PUSH2 0x9A3 JUMPI PUSH1 0x0 DUP6 SSTORE PUSH2 0x9EA JUMP JUMPDEST DUP3 PUSH1 0x1F LT PUSH2 0x9BC JUMPI DUP1 MLOAD PUSH1 0xFF NOT AND DUP4 DUP1 ADD OR DUP6 SSTORE PUSH2 0x9EA JUMP JUMPDEST DUP3 DUP1 ADD PUSH1 0x1 ADD DUP6 SSTORE DUP3 ISZERO PUSH2 0x9EA JUMPI SWAP2 DUP3 ADD JUMPDEST DUP3 DUP2 GT ISZERO PUSH2 0x9E9 JUMPI DUP3 MLOAD DUP3 SSTORE SWAP2 PUSH1 0x20 ADD SWAP2 SWAP1 PUSH1 0x1 ADD SWAP1 PUSH2 0x9CE JUMP JUMPDEST JUMPDEST POP SWAP1 POP PUSH2 0x9F7 SWAP2 SWAP1 PUSH2 0x9FB JUMP JUMPDEST POP SWAP1 JUMP JUMPDEST JUMPDEST DUP1 DUP3 GT ISZERO PUSH2 0xA14 JUMPI PUSH1 0x0 DUP2 PUSH1 0x0 SWAP1 SSTORE POP PUSH1 0x1 ADD PUSH2 0x9FC JUMP JUMPDEST POP SWAP1 JUMP JUMPDEST PUSH1 0x0 PUSH2 0xA2B PUSH2 0xA26 DUP5 PUSH2 0xEAA JUMP JUMPDEST PUSH2 0xE85 JUMP JUMPDEST SWAP1 POP DUP3 DUP2 MSTORE PUSH1 0x20 DUP2 ADD DUP5 DUP5 DUP5 ADD GT ISZERO PUSH2 0xA47 JUMPI PUSH2 0xA46 PUSH2 0x1156 JUMP JUMPDEST JUMPDEST PUSH2 0xA52 DUP5 DUP3 DUP6 PUSH2 0xFA7 JUMP JUMPDEST POP SWAP4 SWAP3 POP POP POP JUMP JUMPDEST PUSH1 0x0 DUP2 CALLDATALOAD SWAP1 POP PUSH2 0xA69 DUP2 PUSH2 0x1240 JUMP JUMPDEST SWAP3 SWAP2 POP POP JUMP JUMPDEST PUSH1 0x0 DUP2 CALLDATALOAD SWAP1 POP PUSH2 0xA7E DUP2 PUSH2 0x1257 JUMP JUMPDEST SWAP3 SWAP2 POP POP JUMP JUMPDEST PUSH1 0x0 DUP2 CALLDATALOAD SWAP1 POP PUSH2 0xA93 DUP2 PUSH2 0x126E JUMP JUMPDEST SWAP3 SWAP2 POP POP JUMP JUMPDEST PUSH1 0x0 DUP3 PUSH1 0x1F DUP4 ADD SLT PUSH2 0xAAE JUMPI PUSH2 0xAAD PUSH2 0x1151 JUMP JUMPDEST JUMPDEST DUP2 CALLDATALOAD PUSH2 0xABE DUP5 DUP3 PUSH1 0x20 DUP7 ADD PUSH2 0xA18 JUMP JUMPDEST SWAP2 POP POP SWAP3 SWAP2 POP POP JUMP JUMPDEST PUSH1 0x0 DUP2 CALLDATALOAD SWAP1 POP PUSH2 0xAD6 DUP2 PUSH2 0x1285 JUMP JUMPDEST SWAP3 SWAP2 POP POP JUMP JUMPDEST PUSH1 0x0 PUSH1 0x20 DUP3 DUP5 SUB SLT ISZERO PUSH2 0xAF2 JUMPI PUSH2 0xAF1 PUSH2 0x1160 JUMP JUMPDEST JUMPDEST PUSH1 0x0 PUSH2 0xB00 DUP5 DUP3 DUP6 ADD PUSH2 0xA5A JUMP JUMPDEST SWAP2 POP POP SWAP3 SWAP2 POP POP JUMP JUMPDEST PUSH1 0x0 PUSH1 0x20 DUP3 DUP5 SUB SLT ISZERO PUSH2 0xB1F JUMPI PUSH2 0xB1E PUSH2 0x1160 JUMP JUMPDEST JUMPDEST PUSH1 0x0 PUSH2 0xB2D DUP5 DUP3 DUP6 ADD PUSH2 0xA6F JUMP JUMPDEST SWAP2 POP POP SWAP3 SWAP2 POP POP JUMP JUMPDEST PUSH1 0x0 DUP1 PUSH1 0x0 DUP1 PUSH1 0x0 DUP1 PUSH1 0xC0 DUP8 DUP10 SUB SLT ISZERO PUSH2 0xB53 JUMPI PUSH2 0xB52 PUSH2 0x1160 JUMP JUMPDEST JUMPDEST PUSH1 0x0 PUSH2 0xB61 DUP10 DUP3 DUP11 ADD PUSH2 0xA6F JUMP JUMPDEST SWAP7 POP POP PUSH1 0x20 DUP8 ADD CALLDATALOAD PUSH8 0xFFFFFFFFFFFFFFFF DUP2 GT ISZERO PUSH2 0xB82 JUMPI PUSH2 0xB81 PUSH2 0x115B JUMP JUMPDEST JUMPDEST PUSH2 0xB8E DUP10 DUP3 DUP11 ADD PUSH2 0xA99 JUMP JUMPDEST SWAP6 POP POP PUSH1 0x40 DUP8 ADD CALLDATALOAD PUSH8 0xFFFFFFFFFFFFFFFF DUP2 GT ISZERO PUSH2 0xBAF JUMPI PUSH2 0xBAE PUSH2 0x115B JUMP JUMPDEST JUMPDEST PUSH2 0xBBB DUP10 DUP3 DUP11 ADD PUSH2 0xA99 JUMP JUMPDEST SWAP5 POP POP PUSH1 0x60 PUSH2 0xBCC DUP10 DUP3 DUP11 ADD PUSH2 0xAC7 JUMP JUMPDEST SWAP4 POP POP PUSH1 0x80 PUSH2 0xBDD DUP10 DUP3 DUP11 ADD PUSH2 0xAC7 JUMP JUMPDEST SWAP3 POP POP PUSH1 0xA0 PUSH2 0xBEE DUP10 DUP3 DUP11 ADD PUSH2 0xA84 JUMP JUMPDEST SWAP2 POP POP SWAP3 SWAP6 POP SWAP3 SWAP6 POP SWAP3 SWAP6 JUMP JUMPDEST PUSH1 0x0 PUSH1 0x20 DUP3 DUP5 SUB SLT ISZERO PUSH2 0xC11 JUMPI PUSH2 0xC10 PUSH2 0x1160 JUMP JUMPDEST JUMPDEST PUSH1 0x0 PUSH2 0xC1F DUP5 DUP3 DUP6 ADD PUSH2 0xAC7 JUMP JUMPDEST SWAP2 POP POP SWAP3 SWAP2 POP POP JUMP JUMPDEST PUSH2 0xC31 DUP2 PUSH2 0xF5F JUMP JUMPDEST DUP3 MSTORE POP POP JUMP JUMPDEST PUSH2 0xC40 DUP2 PUSH2 0xF4D JUMP JUMPDEST DUP3 MSTORE POP POP JUMP JUMPDEST PUSH2 0xC4F DUP2 PUSH2 0xF71 JUMP JUMPDEST DUP3 MSTORE POP POP JUMP JUMPDEST PUSH1 0x0 PUSH2 0xC60 DUP3 PUSH2 0xEDB JUMP JUMPDEST PUSH2 0xC6A DUP2 DUP6 PUSH2 0xEE6 JUMP JUMPDEST SWAP4 POP PUSH2 0xC7A DUP2 DUP6 PUSH1 0x20 DUP7 ADD PUSH2 0xFB6 JUMP JUMPDEST PUSH2 0xC83 DUP2 PUSH2 0x1165 JUMP JUMPDEST DUP5 ADD SWAP2 POP POP SWAP3 SWAP2 POP POP JUMP JUMPDEST PUSH1 0x0 PUSH2 0xC9B PUSH1 0x1E DUP4 PUSH2 0xEE6 JUMP JUMPDEST SWAP2 POP PUSH2 0xCA6 DUP3 PUSH2 0x1176 JUMP JUMPDEST PUSH1 0x20 DUP3 ADD SWAP1 POP SWAP2 SWAP1 POP JUMP JUMPDEST PUSH1 0x0 PUSH2 0xCBE PUSH1 0x29 DUP4 PUSH2 0xEE6 JUMP JUMPDEST SWAP2 POP PUSH2 0xCC9 DUP3 PUSH2 0x119F JUMP JUMPDEST PUSH1 0x40 DUP3 ADD SWAP1 POP SWAP2 SWAP1 POP JUMP JUMPDEST PUSH1 0x0 PUSH2 0xCE1 PUSH1 0x1F DUP4 PUSH2 0xEE6 JUMP JUMPDEST SWAP2 POP PUSH2 0xCEC DUP3 PUSH2 0x11EE JUMP JUMPDEST PUSH1 0x20 DUP3 ADD SWAP1 POP SWAP2 SWAP1 POP JUMP JUMPDEST PUSH1 0x0 PUSH2 0xD04 PUSH1 0x17 DUP4 PUSH2 0xEE6 JUMP JUMPDEST SWAP2 POP PUSH2 0xD0F DUP3 PUSH2 0x1217 JUMP JUMPDEST PUSH1 0x20 DUP3 ADD SWAP1 POP SWAP2 SWAP1 POP JUMP JUMPDEST PUSH2 0xD23 DUP2 PUSH2 0xF9D JUMP JUMPDEST DUP3 MSTORE POP POP JUMP JUMPDEST PUSH1 0x0 PUSH1 0xC0 DUP3 ADD SWAP1 POP PUSH2 0xD3E PUSH1 0x0 DUP4 ADD DUP10 PUSH2 0xC28 JUMP JUMPDEST DUP2 DUP2 SUB PUSH1 0x20 DUP4 ADD MSTORE PUSH2 0xD50 DUP2 DUP9 PUSH2 0xC55 JUMP JUMPDEST SWAP1 POP DUP2 DUP2 SUB PUSH1 0x40 DUP4 ADD MSTORE PUSH2 0xD64 DUP2 DUP8 PUSH2 0xC55 JUMP JUMPDEST SWAP1 POP PUSH2 0xD73 PUSH1 0x60 DUP4 ADD DUP7 PUSH2 0xD1A JUMP JUMPDEST PUSH2 0xD80 PUSH1 0x80 DUP4 ADD DUP6 PUSH2 0xD1A JUMP JUMPDEST PUSH2 0xD8D PUSH1 0xA0 DUP4 ADD DUP5 PUSH2 0xC46 JUMP JUMPDEST SWAP8 SWAP7 POP POP POP POP POP POP POP JUMP JUMPDEST PUSH1 0x0 PUSH1 0x60 DUP3 ADD SWAP1 POP PUSH2 0xDAD PUSH1 0x0 DUP4 ADD DUP7 PUSH2 0xC37 JUMP JUMPDEST PUSH2 0xDBA PUSH1 0x20 DUP4 ADD DUP6 PUSH2 0xD1A JUMP JUMPDEST PUSH2 0xDC7 PUSH1 0x40 DUP4 ADD DUP5 PUSH2 0xD1A JUMP JUMPDEST SWAP5 SWAP4 POP POP POP POP JUMP JUMPDEST PUSH1 0x0 PUSH1 0x20 DUP3 ADD SWAP1 POP PUSH2 0xDE4 PUSH1 0x0 DUP4 ADD DUP5 PUSH2 0xC46 JUMP JUMPDEST SWAP3 SWAP2 POP POP JUMP JUMPDEST PUSH1 0x0 PUSH1 0x20 DUP3 ADD SWAP1 POP DUP2 DUP2 SUB PUSH1 0x0 DUP4 ADD MSTORE PUSH2 0xE03 DUP2 PUSH2 0xC8E JUMP JUMPDEST SWAP1 POP SWAP2 SWAP1 POP JUMP JUMPDEST PUSH1 0x0 PUSH1 0x20 DUP3 ADD SWAP1 POP DUP2 DUP2 SUB PUSH1 0x0 DUP4 ADD MSTORE PUSH2 0xE23 DUP2 PUSH2 0xCB1 JUMP JUMPDEST SWAP1 POP SWAP2 SWAP1 POP JUMP JUMPDEST PUSH1 0x0 PUSH1 0x20 DUP3 ADD SWAP1 POP DUP2 DUP2 SUB PUSH1 0x0 DUP4 ADD MSTORE PUSH2 0xE43 DUP2 PUSH2 0xCD4 JUMP JUMPDEST SWAP1 POP SWAP2 SWAP1 POP JUMP JUMPDEST PUSH1 0x0 PUSH1 0x20 DUP3 ADD SWAP1 POP DUP2 DUP2 SUB PUSH1 0x0 DUP4 ADD MSTORE PUSH2 0xE63 DUP2 PUSH2 0xCF7 JUMP JUMPDEST SWAP1 POP SWAP2 SWAP1 POP JUMP JUMPDEST PUSH1 0x0 PUSH1 0x20 DUP3 ADD SWAP1 POP PUSH2 0xE7F PUSH1 0x0 DUP4 ADD DUP5 PUSH2 0xD1A JUMP JUMPDEST SWAP3 SWAP2 POP POP JUMP JUMPDEST PUSH1 0x0 PUSH2 0xE8F PUSH2 0xEA0 JUMP JUMPDEST SWAP1 POP PUSH2 0xE9B DUP3 DUP3 PUSH2 0x101B JUMP JUMPDEST SWAP2 SWAP1 POP JUMP JUMPDEST PUSH1 0x0 PUSH1 0x40 MLOAD SWAP1 POP SWAP1 JUMP JUMPDEST PUSH1 0x0 PUSH8 0xFFFFFFFFFFFFFFFF DUP3 GT ISZERO PUSH2 0xEC5 JUMPI PUSH2 0xEC4 PUSH2 0x1122 JUMP JUMPDEST JUMPDEST PUSH2 0xECE DUP3 PUSH2 0x1165 JUMP JUMPDEST SWAP1 POP PUSH1 0x20 DUP2 ADD SWAP1 POP SWAP2 SWAP1 POP JUMP JUMPDEST PUSH1 0x0 DUP2 MLOAD SWAP1 POP SWAP2 SWAP1 POP JUMP JUMPDEST PUSH1 0x0 DUP3 DUP3 MSTORE PUSH1 0x20 DUP3 ADD SWAP1 POP SWAP3 SWAP2 POP POP JUMP JUMPDEST PUSH1 0x0 PUSH2 0xF02 DUP3 PUSH2 0xF9D JUMP JUMPDEST SWAP2 POP PUSH2 0xF0D DUP4 PUSH2 0xF9D JUMP JUMPDEST SWAP3 POP DUP3 PUSH32 0xFFFFFFFFFFFFFFFFFFFFFFFFFFFFFFFFFFFFFFFFFFFFFFFFFFFFFFFFFFFFFFFF SUB DUP3 GT ISZERO PUSH2 0xF42 JUMPI PUSH2 0xF41 PUSH2 0x1095 JUMP JUMPDEST JUMPDEST DUP3 DUP3 ADD SWAP1 POP SWAP3 SWAP2 POP POP JUMP JUMPDEST PUSH1 0x0 PUSH2 0xF58 DUP3 PUSH2 0xF7D JUMP JUMPDEST SWAP1 POP SWAP2 SWAP1 POP JUMP JUMPDEST PUSH1 0x0 PUSH2 0xF6A DUP3 PUSH2 0xF7D JUMP JUMPDEST SWAP1 POP SWAP2 SWAP1 POP JUMP JUMPDEST PUSH1 0x0 DUP2 ISZERO ISZERO SWAP1 POP SWAP2 SWAP1 POP JUMP JUMPDEST PUSH1 0x0 PUSH20 0xFFFFFFFFFFFFFFFFFFFFFFFFFFFFFFFFFFFFFFFF DUP3 AND SWAP1 POP SWAP2 SWAP1 POP JUMP JUMPDEST PUSH1 0x0 DUP2 SWAP1 POP SWAP2 SWAP1 POP JUMP JUMPDEST DUP3 DUP2 DUP4 CALLDATACOPY PUSH1 0x0 DUP4 DUP4 ADD MSTORE POP POP POP JUMP JUMPDEST PUSH1 0x0 JUMPDEST DUP4 DUP2 LT ISZERO PUSH2 0xFD4 JUMPI DUP1 DUP3 ADD MLOAD DUP2 DUP5 ADD MSTORE PUSH1 0x20 DUP2 ADD SWAP1 POP PUSH2 0xFB9 JUMP JUMPDEST DUP4 DUP2 GT ISZERO PUSH2 0xFE3 JUMPI PUSH1 0x0 DUP5 DUP5 ADD MSTORE JUMPDEST POP POP POP POP JUMP JUMPDEST PUSH1 0x0 PUSH1 0x2 DUP3 DIV SWAP1 POP PUSH1 0x1 DUP3 AND DUP1 PUSH2 0x1001 JUMPI PUSH1 0x7F DUP3 AND SWAP2 POP JUMPDEST PUSH1 0x20 DUP3 LT DUP2 EQ ISZERO PUSH2 0x1015 JUMPI PUSH2 0x1014 PUSH2 0x10C4 JUMP JUMPDEST JUMPDEST POP SWAP2 SWAP1 POP JUMP JUMPDEST PUSH2 0x1024 DUP3 PUSH2 0x1165 JUMP JUMPDEST DUP2 ADD DUP2 DUP2 LT PUSH8 0xFFFFFFFFFFFFFFFF DUP3 GT OR ISZERO PUSH2 0x1043 JUMPI PUSH2 0x1042 PUSH2 0x1122 JUMP JUMPDEST JUMPDEST DUP1 PUSH1 0x40 MSTORE POP POP POP JUMP JUMPDEST PUSH1 0x0 PUSH2 0x1057 DUP3 PUSH2 0xF9D JUMP JUMPDEST SWAP2 POP PUSH32 0xFFFFFFFFFFFFFFFFFFFFFFFFFFFFFFFFFFFFFFFFFFFFFFFFFFFFFFFFFFFFFFFF DUP3 EQ ISZERO PUSH2 0x108A JUMPI PUSH2 0x1089 PUSH2 0x1095 JUMP JUMPDEST JUMPDEST PUSH1 0x1 DUP3 ADD SWAP1 POP SWAP2 SWAP1 POP JUMP JUMPDEST PUSH32 0x4E487B7100000000000000000000000000000000000000000000000000000000 PUSH1 0x0 MSTORE PUSH1 0x11 PUSH1 0x4 MSTORE PUSH1 0x24 PUSH1 0x0 REVERT JUMPDEST PUSH32 0x4E487B7100000000000000000000000000000000000000000000000000000000 PUSH1 0x0 MSTORE PUSH1 0x22 PUSH1 0x4 MSTORE PUSH1 0x24 PUSH1 0x0 REVERT JUMPDEST PUSH32 0x4E487B7100000000000000000000000000000000000000000000000000000000 PUSH1 0x0 MSTORE PUSH1 0x32 PUSH1 0x4 MSTORE PUSH1 0x24 PUSH1 0x0 REVERT JUMPDEST PUSH32 0x4E487B7100000000000000000000000000000000000000000000000000000000 PUSH1 0x0 MSTORE PUSH1 0x41 PUSH1 0x4 MSTORE PUSH1 0x24 PUSH1 0x0 REVERT JUMPDEST PUSH1 0x0 DUP1 REVERT JUMPDEST PUSH1 0x0 DUP1 REVERT JUMPDEST PUSH1 0x0 DUP1 REVERT JUMPDEST PUSH1 0x0 DUP1 REVERT JUMPDEST PUSH1 0x0 PUSH1 0x1F NOT PUSH1 0x1F DUP4 ADD AND SWAP1 POP SWAP2 SWAP1 POP JUMP JUMPDEST PUSH32 0x6F6E6C79206F776E65722069732061626C6520746F20616464206B6964730000 PUSH1 0x0 DUP3 ADD MSTORE POP JUMP JUMPDEST PUSH32 0x796F7520617265206E6F742061626C6520746F20776974686472617720617420 PUSH1 0x0 DUP3 ADD MSTORE PUSH32 0x746869732074696D650000000000000000000000000000000000000000000000 PUSH1 0x20 DUP3 ADD MSTORE POP JUMP JUMPDEST PUSH32 0x596F75206D75737420626520746865206B696420746F20776974686472617700 PUSH1 0x0 DUP3 ADD MSTORE POP JUMP JUMPDEST PUSH32 0x556E61626C6520746F2077697468647261772079657421000000000000000000 PUSH1 0x0 DUP3 ADD MSTORE POP JUMP JUMPDEST PUSH2 0x1249 DUP2 PUSH2 0xF4D JUMP JUMPDEST DUP2 EQ PUSH2 0x1254 JUMPI PUSH1 0x0 DUP1 REVERT JUMPDEST POP JUMP JUMPDEST PUSH2 0x1260 DUP2 PUSH2 0xF5F JUMP JUMPDEST DUP2 EQ PUSH2 0x126B JUMPI PUSH1 0x0 DUP1 REVERT JUMPDEST POP JUMP JUMPDEST PUSH2 0x1277 DUP2 PUSH2 0xF71 JUMP JUMPDEST DUP2 EQ PUSH2 0x1282 JUMPI PUSH1 0x0 DUP1 REVERT JUMPDEST POP JUMP JUMPDEST PUSH2 0x128E DUP2 PUSH2 0xF9D JUMP JUMPDEST DUP2 EQ PUSH2 0x1299 JUMPI PUSH1 0x0 DUP1 REVERT JUMPDEST POP JUMP INVALID LOG2 PUSH5 0x6970667358 0x22 SLT KECCAK256 0xAC 0xC6 MSTORE8 PUSH31 0xAF6E46A70B2EE863718D3906832470AB4AD5841949F613EAF1CD682964736F PUSH13 0x63430008070033000000000000 "
				},
				"gasEstimates": {
					"creation": {
						"codeDepositCost": "963600",
						"executionCost": "25267",
						"totalCost": "988867"
					},
					"external": {
						"ableToWithdraw(address)": "infinite",
						"addKid(address,string,string,uint256,uint256,bool)": "infinite",
						"balanceOf()": "361",
						"deposit(address)": "infinite",
						"kids(uint256)": "infinite",
						"withdraw(address)": "infinite"
					},
					"internal": {
						"addToKidsBalance(address)": "infinite",
						"getIndex(address)": "infinite"
					}
				},
				"methodIdentifiers": {
					"ableToWithdraw(address)": "daa6b869",
					"addKid(address,string,string,uint256,uint256,bool)": "31d575c5",
					"balanceOf()": "722713f7",
					"deposit(address)": "f340fa01",
					"kids(uint256)": "7285fd3a",
					"withdraw(address)": "51cff8d9"
				}
			},
			"storageLayout": {
				"storage": [
					{
						"astId": 3,
						"contract": "contracts/CryptoKids.sol:CryptoKids",
						"label": "owner",
						"offset": 0,
						"slot": "0",
						"type": "t_address"
					},
					{
						"astId": 37,
						"contract": "contracts/CryptoKids.sol:CryptoKids",
						"label": "kids",
						"offset": 0,
						"slot": "1",
						"type": "t_array(t_struct(Kid)33_storage)dyn_storage"
					}
				],
				"types": {
					"t_address": {
						"encoding": "inplace",
						"label": "address",
						"numberOfBytes": "20"
					},
					"t_address_payable": {
						"encoding": "inplace",
						"label": "address payable",
						"numberOfBytes": "20"
					},
					"t_array(t_struct(Kid)33_storage)dyn_storage": {
						"base": "t_struct(Kid)33_storage",
						"encoding": "dynamic_array",
						"label": "struct CryptoKids.Kid[]",
						"numberOfBytes": "32"
					},
					"t_bool": {
						"encoding": "inplace",
						"label": "bool",
						"numberOfBytes": "1"
					},
					"t_string_storage": {
						"encoding": "bytes",
						"label": "string",
						"numberOfBytes": "32"
					},
					"t_struct(Kid)33_storage": {
						"encoding": "inplace",
						"label": "struct CryptoKids.Kid",
						"members": [
							{
								"astId": 22,
								"contract": "contracts/CryptoKids.sol:CryptoKids",
								"label": "walletAddress",
								"offset": 0,
								"slot": "0",
								"type": "t_address_payable"
							},
							{
								"astId": 24,
								"contract": "contracts/CryptoKids.sol:CryptoKids",
								"label": "firstName",
								"offset": 0,
								"slot": "1",
								"type": "t_string_storage"
							},
							{
								"astId": 26,
								"contract": "contracts/CryptoKids.sol:CryptoKids",
								"label": "lastName",
								"offset": 0,
								"slot": "2",
								"type": "t_string_storage"
							},
							{
								"astId": 28,
								"contract": "contracts/CryptoKids.sol:CryptoKids",
								"label": "releaseTime",
								"offset": 0,
								"slot": "3",
								"type": "t_uint256"
							},
							{
								"astId": 30,
								"contract": "contracts/CryptoKids.sol:CryptoKids",
								"label": "amount",
								"offset": 0,
								"slot": "4",
								"type": "t_uint256"
							},
							{
								"astId": 32,
								"contract": "contracts/CryptoKids.sol:CryptoKids",
								"label": "canWithdraw",
								"offset": 0,
								"slot": "5",
								"type": "t_bool"
							}
						],
						"numberOfBytes": "192"
					},
					"t_uint256": {
						"encoding": "inplace",
						"label": "uint256",
						"numberOfBytes": "32"
					}
				}
			},
			"userdoc": {
				"kind": "user",
				"methods": {},
				"version": 1
			}
		}
	}
}