{
	"contracts/CryptoKids.sol": {
		"CryptoKids": {
			"abi": [
				{
					"inputs": [],
					"stateMutability": "nonpayable",
					"type": "constructor"
				},
				{
					"inputs": [
						{
							"internalType": "address",
							"name": "walletAddress",
							"type": "address"
						}
					],
					"name": "ableToWithdraw",
					"outputs": [
						{
							"internalType": "bool",
							"name": "",
							"type": "bool"
						}
					],
					"stateMutability": "nonpayable",
					"type": "function"
				},
				{
					"inputs": [
						{
							"internalType": "address payable",
							"name": "walletAddress",
							"type": "address"
						},
						{
							"internalType": "string",
							"name": "firstName",
							"type": "string"
						},
						{
							"internalType": "string",
							"name": "lastName",
							"type": "string"
						},
						{
							"internalType": "uint256",
							"name": "releaseTime",
							"type": "uint256"
						},
						{
							"internalType": "uint256",
							"name": "amount",
							"type": "uint256"
						},
						{
							"internalType": "bool",
							"name": "canWithdraw",
							"type": "bool"
						}
					],
					"name": "addKid",
					"outputs": [],
					"stateMutability": "nonpayable",
					"type": "function"
				},
				{
					"inputs": [],
					"name": "balanceOf",
					"outputs": [
						{
							"internalType": "uint256",
							"name": "",
							"type": "uint256"
						}
					],
					"stateMutability": "view",
					"type": "function"
				},
				{
					"inputs": [
						{
							"internalType": "address",
							"name": "walletAddress",
							"type": "address"
						}
					],
					"name": "deposit",
					"outputs": [],
					"stateMutability": "payable",
					"type": "function"
				},
				{
					"inputs": [
						{
							"internalType": "uint256",
							"name": "",
							"type": "uint256"
						}
					],
					"name": "kids",
					"outputs": [
						{
							"internalType": "address payable",
							"name": "walletAddress",
							"type": "address"
						},
						{
							"internalType": "string",
							"name": "firstName",
							"type": "string"
						},
						{
							"internalType": "string",
							"name": "lastName",
							"type": "string"
						},
						{
							"internalType": "uint256",
							"name": "releaseTime",
							"type": "uint256"
						},
						{
							"internalType": "uint256",
							"name": "amount",
							"type": "uint256"
						},
						{
							"internalType": "bool",
							"name": "canWithdraw",
							"type": "bool"
						}
					],
					"stateMutability": "view",
					"type": "function"
				},
				{
					"inputs": [
						{
							"internalType": "address payable",
							"name": "walletAddress",
							"type": "address"
						}
					],
					"name": "withdraw",
					"outputs": [],
					"stateMutability": "payable",
					"type": "function"
				}
			],
			"devdoc": {
				"kind": "dev",
				"methods": {},
				"version": 1
			},
			"evm": {
				"assembly": "    /* \"contracts/CryptoKids.sol\":68:3128  contract CryptoKids{\r... */\n  mstore(0x40, 0x80)\n    /* \"contracts/CryptoKids.sol\":134:220  constructor() {\r... */\n  callvalue\n  dup1\n  iszero\n  tag_1\n  jumpi\n  0x00\n  dup1\n  revert\ntag_1:\n  pop\n    /* \"contracts/CryptoKids.sol\":167:177  msg.sender */\n  caller\n    /* \"contracts/CryptoKids.sol\":159:164  owner */\n  0x00\n  dup1\n    /* \"contracts/CryptoKids.sol\":159:177  owner = msg.sender */\n  0x0100\n  exp\n  dup2\n  sload\n  dup2\n  0xffffffffffffffffffffffffffffffffffffffff\n  mul\n  not\n  and\n  swap1\n  dup4\n  0xffffffffffffffffffffffffffffffffffffffff\n  and\n  mul\n  or\n  swap1\n  sstore\n  pop\n    /* \"contracts/CryptoKids.sol\":68:3128  contract CryptoKids{\r... */\n  dataSize(sub_0)\n  dup1\n  dataOffset(sub_0)\n  0x00\n  codecopy\n  0x00\n  return\nstop\n\nsub_0: assembly {\n        /* \"contracts/CryptoKids.sol\":68:3128  contract CryptoKids{\r... */\n      mstore(0x40, 0x80)\n      jumpi(tag_1, lt(calldatasize, 0x04))\n      shr(0xe0, calldataload(0x00))\n      dup1\n      0x31d575c5\n      eq\n      tag_2\n      jumpi\n      dup1\n      0x51cff8d9\n      eq\n      tag_3\n      jumpi\n      dup1\n      0x722713f7\n      eq\n      tag_4\n      jumpi\n      dup1\n      0x7285fd3a\n      eq\n      tag_5\n      jumpi\n      dup1\n      0xdaa6b869\n      eq\n      tag_6\n      jumpi\n      dup1\n      0xf340fa01\n      eq\n      tag_7\n      jumpi\n    tag_1:\n      0x00\n      dup1\n      revert\n        /* \"contracts/CryptoKids.sol\":526:944  function addKid(address payable walletAddress, string memory firstName, string memory lastName, uint releaseTime, uint amount, bool canWithdraw) public {\r... */\n    tag_2:\n      callvalue\n      dup1\n      iszero\n      tag_8\n      jumpi\n      0x00\n      dup1\n      revert\n    tag_8:\n      pop\n      tag_9\n      0x04\n      dup1\n      calldatasize\n      sub\n      dup2\n      add\n      swap1\n      tag_10\n      swap2\n      swap1\n      tag_11\n      jump\t// in\n    tag_10:\n      tag_12\n      jump\t// in\n    tag_9:\n      stop\n        /* \"contracts/CryptoKids.sol\":2707:3121  function withdraw(address payable walletAddress) payable public {\r... */\n    tag_3:\n      tag_13\n      0x04\n      dup1\n      calldatasize\n      sub\n      dup2\n      add\n      swap1\n      tag_14\n      swap2\n      swap1\n      tag_15\n      jump\t// in\n    tag_14:\n      tag_16\n      jump\t// in\n    tag_13:\n      stop\n        /* \"contracts/CryptoKids.sol\":952:1097  function balanceOf() public view returns(uint) { // only executable locally (view) uses 0 gas\r... */\n    tag_4:\n      callvalue\n      dup1\n      iszero\n      tag_17\n      jumpi\n      0x00\n      dup1\n      revert\n    tag_17:\n      pop\n      tag_18\n      tag_19\n      jump\t// in\n    tag_18:\n      mload(0x40)\n      tag_20\n      swap2\n      swap1\n      tag_21\n      jump\t// in\n    tag_20:\n      mload(0x40)\n      dup1\n      swap2\n      sub\n      swap1\n      return\n        /* \"contracts/CryptoKids.sol\":474:491  Kid[] public kids */\n    tag_5:\n      callvalue\n      dup1\n      iszero\n      tag_22\n      jumpi\n      0x00\n      dup1\n      revert\n    tag_22:\n      pop\n      tag_23\n      0x04\n      dup1\n      calldatasize\n      sub\n      dup2\n      add\n      swap1\n      tag_24\n      swap2\n      swap1\n      tag_25\n      jump\t// in\n    tag_24:\n      tag_26\n      jump\t// in\n    tag_23:\n      mload(0x40)\n      tag_27\n      swap7\n      swap6\n      swap5\n      swap4\n      swap3\n      swap2\n      swap1\n      tag_28\n      jump\t// in\n    tag_27:\n      mload(0x40)\n      dup1\n      swap2\n      sub\n      swap1\n      return\n        /* \"contracts/CryptoKids.sol\":2163:2672  function ableToWithdraw(address walletAddress) public returns(bool) {\r... */\n    tag_6:\n      callvalue\n      dup1\n      iszero\n      tag_29\n      jumpi\n      0x00\n      dup1\n      revert\n    tag_29:\n      pop\n      tag_30\n      0x04\n      dup1\n      calldatasize\n      sub\n      dup2\n      add\n      swap1\n      tag_31\n      swap2\n      swap1\n      tag_32\n      jump\t// in\n    tag_31:\n      tag_33\n      jump\t// in\n    tag_30:\n      mload(0x40)\n      tag_34\n      swap2\n      swap1\n      tag_35\n      jump\t// in\n    tag_34:\n      mload(0x40)\n      dup1\n      swap2\n      sub\n      swap1\n      return\n        /* \"contracts/CryptoKids.sol\":1163:1264  function deposit(address walletAddress) payable public {\r... */\n    tag_7:\n      tag_36\n      0x04\n      dup1\n      calldatasize\n      sub\n      dup2\n      add\n      swap1\n      tag_37\n      swap2\n      swap1\n      tag_32\n      jump\t// in\n    tag_37:\n      tag_38\n      jump\t// in\n    tag_36:\n      stop\n        /* \"contracts/CryptoKids.sol\":526:944  function addKid(address payable walletAddress, string memory firstName, string memory lastName, uint releaseTime, uint amount, bool canWithdraw) public {\r... */\n    tag_12:\n        /* \"contracts/CryptoKids.sol\":712:717  owner */\n      0x00\n      dup1\n      sload\n      swap1\n      0x0100\n      exp\n      swap1\n      div\n      0xffffffffffffffffffffffffffffffffffffffff\n      and\n        /* \"contracts/CryptoKids.sol\":698:717  msg.sender == owner */\n      0xffffffffffffffffffffffffffffffffffffffff\n      and\n        /* \"contracts/CryptoKids.sol\":698:708  msg.sender */\n      caller\n        /* \"contracts/CryptoKids.sol\":698:717  msg.sender == owner */\n      0xffffffffffffffffffffffffffffffffffffffff\n      and\n      eq\n        /* \"contracts/CryptoKids.sol\":689:752  require (msg.sender == owner, \"only owner is able to add kids\") */\n      tag_40\n      jumpi\n      mload(0x40)\n      0x08c379a000000000000000000000000000000000000000000000000000000000\n      dup2\n      mstore\n      0x04\n      add\n      tag_41\n      swap1\n      tag_42\n      jump\t// in\n    tag_41:\n      mload(0x40)\n      dup1\n      swap2\n      sub\n      swap1\n      revert\n    tag_40:\n        /* \"contracts/CryptoKids.sol\":763:767  kids */\n      0x01\n        /* \"contracts/CryptoKids.sol\":773:935  Kid(\r... */\n      mload(0x40)\n      dup1\n      0xc0\n      add\n      0x40\n      mstore\n      dup1\n        /* \"contracts/CryptoKids.sol\":791:804  walletAddress */\n      dup9\n        /* \"contracts/CryptoKids.sol\":773:935  Kid(\r... */\n      0xffffffffffffffffffffffffffffffffffffffff\n      and\n      dup2\n      mstore\n      0x20\n      add\n        /* \"contracts/CryptoKids.sol\":819:828  firstName */\n      dup8\n        /* \"contracts/CryptoKids.sol\":773:935  Kid(\r... */\n      dup2\n      mstore\n      0x20\n      add\n        /* \"contracts/CryptoKids.sol\":843:851  lastName */\n      dup7\n        /* \"contracts/CryptoKids.sol\":773:935  Kid(\r... */\n      dup2\n      mstore\n      0x20\n      add\n        /* \"contracts/CryptoKids.sol\":866:877  releaseTime */\n      dup6\n        /* \"contracts/CryptoKids.sol\":773:935  Kid(\r... */\n      dup2\n      mstore\n      0x20\n      add\n        /* \"contracts/CryptoKids.sol\":892:898  amount */\n      dup5\n        /* \"contracts/CryptoKids.sol\":773:935  Kid(\r... */\n      dup2\n      mstore\n      0x20\n      add\n        /* \"contracts/CryptoKids.sol\":913:924  canWithdraw */\n      dup4\n        /* \"contracts/CryptoKids.sol\":773:935  Kid(\r... */\n      iszero\n      iszero\n      dup2\n      mstore\n      pop\n        /* \"contracts/CryptoKids.sol\":763:936  kids.push(Kid(\r... */\n      swap1\n      dup1\n      0x01\n      dup2\n      sload\n      add\n      dup1\n      dup3\n      sstore\n      dup1\n      swap2\n      pop\n      pop\n      0x01\n      swap1\n      sub\n      swap1\n      0x00\n      mstore\n      keccak256(0x00, 0x20)\n      swap1\n      0x06\n      mul\n      add\n      0x00\n      swap1\n      swap2\n      swap1\n      swap2\n      swap1\n      swap2\n      pop\n      0x00\n      dup3\n      add\n      mload\n      dup2\n      0x00\n      add\n      exp(0x0100, 0x00)\n      dup2\n      sload\n      dup2\n      0xffffffffffffffffffffffffffffffffffffffff\n      mul\n      not\n      and\n      swap1\n      dup4\n      0xffffffffffffffffffffffffffffffffffffffff\n      and\n      mul\n      or\n      swap1\n      sstore\n      pop\n      0x20\n      dup3\n      add\n      mload\n      dup2\n      0x01\n      add\n      swap1\n      dup1\n      mload\n      swap1\n      0x20\n      add\n      swap1\n      tag_44\n      swap3\n      swap2\n      swap1\n      tag_45\n      jump\t// in\n    tag_44:\n      pop\n      0x40\n      dup3\n      add\n      mload\n      dup2\n      0x02\n      add\n      swap1\n      dup1\n      mload\n      swap1\n      0x20\n      add\n      swap1\n      tag_46\n      swap3\n      swap2\n      swap1\n      tag_45\n      jump\t// in\n    tag_46:\n      pop\n      0x60\n      dup3\n      add\n      mload\n      dup2\n      0x03\n      add\n      sstore\n      0x80\n      dup3\n      add\n      mload\n      dup2\n      0x04\n      add\n      sstore\n      0xa0\n      dup3\n      add\n      mload\n      dup2\n      0x05\n      add\n      exp(0x0100, 0x00)\n      dup2\n      sload\n      dup2\n      0xff\n      mul\n      not\n      and\n      swap1\n      dup4\n      iszero\n      iszero\n      mul\n      or\n      swap1\n      sstore\n      pop\n      pop\n      pop\n        /* \"contracts/CryptoKids.sol\":526:944  function addKid(address payable walletAddress, string memory firstName, string memory lastName, uint releaseTime, uint amount, bool canWithdraw) public {\r... */\n      pop\n      pop\n      pop\n      pop\n      pop\n      pop\n      jump\t// out\n        /* \"contracts/CryptoKids.sol\":2707:3121  function withdraw(address payable walletAddress) payable public {\r... */\n    tag_16:\n        /* \"contracts/CryptoKids.sol\":2782:2788  uint i */\n      0x00\n        /* \"contracts/CryptoKids.sol\":2791:2814  getIndex(walletAddress) */\n      tag_48\n        /* \"contracts/CryptoKids.sol\":2800:2813  walletAddress */\n      dup3\n        /* \"contracts/CryptoKids.sol\":2791:2799  getIndex */\n      tag_49\n        /* \"contracts/CryptoKids.sol\":2791:2814  getIndex(walletAddress) */\n      jump\t// in\n    tag_48:\n        /* \"contracts/CryptoKids.sol\":2782:2814  uint i = getIndex(walletAddress) */\n      swap1\n      pop\n        /* \"contracts/CryptoKids.sol\":2847:2851  kids */\n      0x01\n        /* \"contracts/CryptoKids.sol\":2852:2853  i */\n      dup2\n        /* \"contracts/CryptoKids.sol\":2847:2854  kids[i] */\n      dup2\n      sload\n      dup2\n      lt\n      tag_50\n      jumpi\n      tag_51\n      tag_52\n      jump\t// in\n    tag_51:\n    tag_50:\n      swap1\n      0x00\n      mstore\n      keccak256(0x00, 0x20)\n      swap1\n      0x06\n      mul\n      add\n        /* \"contracts/CryptoKids.sol\":2847:2868  kids[i].walletAddress */\n      0x00\n      add\n      0x00\n      swap1\n      sload\n      swap1\n      0x0100\n      exp\n      swap1\n      div\n      0xffffffffffffffffffffffffffffffffffffffff\n      and\n        /* \"contracts/CryptoKids.sol\":2833:2868  msg.sender == kids[i].walletAddress */\n      0xffffffffffffffffffffffffffffffffffffffff\n      and\n        /* \"contracts/CryptoKids.sol\":2833:2843  msg.sender */\n      caller\n        /* \"contracts/CryptoKids.sol\":2833:2868  msg.sender == kids[i].walletAddress */\n      0xffffffffffffffffffffffffffffffffffffffff\n      and\n      eq\n        /* \"contracts/CryptoKids.sol\":2825:2904  require(msg.sender == kids[i].walletAddress, \"You must be the kid to withdraw\") */\n      tag_54\n      jumpi\n      mload(0x40)\n      0x08c379a000000000000000000000000000000000000000000000000000000000\n      dup2\n      mstore\n      0x04\n      add\n      tag_55\n      swap1\n      tag_56\n      jump\t// in\n    tag_55:\n      mload(0x40)\n      dup1\n      swap2\n      sub\n      swap1\n      revert\n    tag_54:\n        /* \"contracts/CryptoKids.sol\":3006:3010  true */\n      0x01\n        /* \"contracts/CryptoKids.sol\":2983:3010  kids[i].canWithdraw == true */\n      iszero\n      iszero\n        /* \"contracts/CryptoKids.sol\":2983:2987  kids */\n      0x01\n        /* \"contracts/CryptoKids.sol\":2988:2989  i */\n      dup3\n        /* \"contracts/CryptoKids.sol\":2983:2990  kids[i] */\n      dup2\n      sload\n      dup2\n      lt\n      tag_57\n      jumpi\n      tag_58\n      tag_52\n      jump\t// in\n    tag_58:\n    tag_57:\n      swap1\n      0x00\n      mstore\n      keccak256(0x00, 0x20)\n      swap1\n      0x06\n      mul\n      add\n        /* \"contracts/CryptoKids.sol\":2983:3002  kids[i].canWithdraw */\n      0x05\n      add\n      0x00\n      swap1\n      sload\n      swap1\n      0x0100\n      exp\n      swap1\n      div\n      0xff\n      and\n        /* \"contracts/CryptoKids.sol\":2983:3010  kids[i].canWithdraw == true */\n      iszero\n      iszero\n      eq\n        /* \"contracts/CryptoKids.sol\":2975:3056  require(kids[i].canWithdraw == true, \"you are not able to withdraw at this time\") */\n      tag_60\n      jumpi\n      mload(0x40)\n      0x08c379a000000000000000000000000000000000000000000000000000000000\n      dup2\n      mstore\n      0x04\n      add\n      tag_61\n      swap1\n      tag_62\n      jump\t// in\n    tag_61:\n      mload(0x40)\n      dup1\n      swap2\n      sub\n      swap1\n      revert\n    tag_60:\n        /* \"contracts/CryptoKids.sol\":3067:3071  kids */\n      0x01\n        /* \"contracts/CryptoKids.sol\":3072:3073  i */\n      dup2\n        /* \"contracts/CryptoKids.sol\":3067:3074  kids[i] */\n      dup2\n      sload\n      dup2\n      lt\n      tag_63\n      jumpi\n      tag_64\n      tag_52\n      jump\t// in\n    tag_64:\n    tag_63:\n      swap1\n      0x00\n      mstore\n      keccak256(0x00, 0x20)\n      swap1\n      0x06\n      mul\n      add\n        /* \"contracts/CryptoKids.sol\":3067:3088  kids[i].walletAddress */\n      0x00\n      add\n      0x00\n      swap1\n      sload\n      swap1\n      0x0100\n      exp\n      swap1\n      div\n      0xffffffffffffffffffffffffffffffffffffffff\n      and\n        /* \"contracts/CryptoKids.sol\":3067:3097  kids[i].walletAddress.transfer */\n      0xffffffffffffffffffffffffffffffffffffffff\n      and\n        /* \"contracts/CryptoKids.sol\":3067:3113  kids[i].walletAddress.transfer(kids[i].amount) */\n      0x08fc\n        /* \"contracts/CryptoKids.sol\":3098:3102  kids */\n      0x01\n        /* \"contracts/CryptoKids.sol\":3103:3104  i */\n      dup4\n        /* \"contracts/CryptoKids.sol\":3098:3105  kids[i] */\n      dup2\n      sload\n      dup2\n      lt\n      tag_66\n      jumpi\n      tag_67\n      tag_52\n      jump\t// in\n    tag_67:\n    tag_66:\n      swap1\n      0x00\n      mstore\n      keccak256(0x00, 0x20)\n      swap1\n      0x06\n      mul\n      add\n        /* \"contracts/CryptoKids.sol\":3098:3112  kids[i].amount */\n      0x04\n      add\n      sload\n        /* \"contracts/CryptoKids.sol\":3067:3113  kids[i].walletAddress.transfer(kids[i].amount) */\n      swap1\n      dup2\n      iszero\n      mul\n      swap1\n      mload(0x40)\n      0x00\n      mload(0x40)\n      dup1\n      dup4\n      sub\n      dup2\n      dup6\n      dup9\n      dup9\n      call\n      swap4\n      pop\n      pop\n      pop\n      pop\n      iszero\n      dup1\n      iszero\n      tag_70\n      jumpi\n      returndatasize\n      0x00\n      dup1\n      returndatacopy\n      revert(0x00, returndatasize)\n    tag_70:\n      pop\n        /* \"contracts/CryptoKids.sol\":2771:3121  {\r... */\n      pop\n        /* \"contracts/CryptoKids.sol\":2707:3121  function withdraw(address payable walletAddress) payable public {\r... */\n      pop\n      jump\t// out\n        /* \"contracts/CryptoKids.sol\":952:1097  function balanceOf() public view returns(uint) { // only executable locally (view) uses 0 gas\r... */\n    tag_19:\n        /* \"contracts/CryptoKids.sol\":993:997  uint */\n      0x00\n        /* \"contracts/CryptoKids.sol\":1062:1083  address(this).balance */\n      selfbalance\n        /* \"contracts/CryptoKids.sol\":1055:1083  return address(this).balance */\n      swap1\n      pop\n        /* \"contracts/CryptoKids.sol\":952:1097  function balanceOf() public view returns(uint) { // only executable locally (view) uses 0 gas\r... */\n      swap1\n      jump\t// out\n        /* \"contracts/CryptoKids.sol\":474:491  Kid[] public kids */\n    tag_26:\n      0x01\n      dup2\n      dup2\n      sload\n      dup2\n      lt\n      tag_72\n      jumpi\n      0x00\n      dup1\n      revert\n    tag_72:\n      swap1\n      0x00\n      mstore\n      keccak256(0x00, 0x20)\n      swap1\n      0x06\n      mul\n      add\n      0x00\n      swap2\n      pop\n      swap1\n      pop\n      dup1\n      0x00\n      add\n      0x00\n      swap1\n      sload\n      swap1\n      0x0100\n      exp\n      swap1\n      div\n      0xffffffffffffffffffffffffffffffffffffffff\n      and\n      swap1\n      dup1\n      0x01\n      add\n      dup1\n      sload\n      tag_74\n      swap1\n      tag_75\n      jump\t// in\n    tag_74:\n      dup1\n      0x1f\n      add\n      0x20\n      dup1\n      swap2\n      div\n      mul\n      0x20\n      add\n      mload(0x40)\n      swap1\n      dup2\n      add\n      0x40\n      mstore\n      dup1\n      swap3\n      swap2\n      swap1\n      dup2\n      dup2\n      mstore\n      0x20\n      add\n      dup3\n      dup1\n      sload\n      tag_76\n      swap1\n      tag_75\n      jump\t// in\n    tag_76:\n      dup1\n      iszero\n      tag_77\n      jumpi\n      dup1\n      0x1f\n      lt\n      tag_78\n      jumpi\n      0x0100\n      dup1\n      dup4\n      sload\n      div\n      mul\n      dup4\n      mstore\n      swap2\n      0x20\n      add\n      swap2\n      jump(tag_77)\n    tag_78:\n      dup3\n      add\n      swap2\n      swap1\n      0x00\n      mstore\n      keccak256(0x00, 0x20)\n      swap1\n    tag_79:\n      dup2\n      sload\n      dup2\n      mstore\n      swap1\n      0x01\n      add\n      swap1\n      0x20\n      add\n      dup1\n      dup4\n      gt\n      tag_79\n      jumpi\n      dup3\n      swap1\n      sub\n      0x1f\n      and\n      dup3\n      add\n      swap2\n    tag_77:\n      pop\n      pop\n      pop\n      pop\n      pop\n      swap1\n      dup1\n      0x02\n      add\n      dup1\n      sload\n      tag_80\n      swap1\n      tag_75\n      jump\t// in\n    tag_80:\n      dup1\n      0x1f\n      add\n      0x20\n      dup1\n      swap2\n      div\n      mul\n      0x20\n      add\n      mload(0x40)\n      swap1\n      dup2\n      add\n      0x40\n      mstore\n      dup1\n      swap3\n      swap2\n      swap1\n      dup2\n      dup2\n      mstore\n      0x20\n      add\n      dup3\n      dup1\n      sload\n      tag_81\n      swap1\n      tag_75\n      jump\t// in\n    tag_81:\n      dup1\n      iszero\n      tag_82\n      jumpi\n      dup1\n      0x1f\n      lt\n      tag_83\n      jumpi\n      0x0100\n      dup1\n      dup4\n      sload\n      div\n      mul\n      dup4\n      mstore\n      swap2\n      0x20\n      add\n      swap2\n      jump(tag_82)\n    tag_83:\n      dup3\n      add\n      swap2\n      swap1\n      0x00\n      mstore\n      keccak256(0x00, 0x20)\n      swap1\n    tag_84:\n      dup2\n      sload\n      dup2\n      mstore\n      swap1\n      0x01\n      add\n      swap1\n      0x20\n      add\n      dup1\n      dup4\n      gt\n      tag_84\n      jumpi\n      dup3\n      swap1\n      sub\n      0x1f\n      and\n      dup3\n      add\n      swap2\n    tag_82:\n      pop\n      pop\n      pop\n      pop\n      pop\n      swap1\n      dup1\n      0x03\n      add\n      sload\n      swap1\n      dup1\n      0x04\n      add\n      sload\n      swap1\n      dup1\n      0x05\n      add\n      0x00\n      swap1\n      sload\n      swap1\n      0x0100\n      exp\n      swap1\n      div\n      0xff\n      and\n      swap1\n      pop\n      dup7\n      jump\t// out\n        /* \"contracts/CryptoKids.sol\":2163:2672  function ableToWithdraw(address walletAddress) public returns(bool) {\r... */\n    tag_33:\n        /* \"contracts/CryptoKids.sol\":2225:2229  bool */\n      0x00\n        /* \"contracts/CryptoKids.sol\":2242:2248  uint i */\n      dup1\n        /* \"contracts/CryptoKids.sol\":2251:2274  getIndex(walletAddress) */\n      tag_86\n        /* \"contracts/CryptoKids.sol\":2260:2273  walletAddress */\n      dup4\n        /* \"contracts/CryptoKids.sol\":2251:2259  getIndex */\n      tag_49\n        /* \"contracts/CryptoKids.sol\":2251:2274  getIndex(walletAddress) */\n      jump\t// in\n    tag_86:\n        /* \"contracts/CryptoKids.sol\":2242:2274  uint i = getIndex(walletAddress) */\n      swap1\n      pop\n        /* \"contracts/CryptoKids.sol\":2311:2315  kids */\n      0x01\n        /* \"contracts/CryptoKids.sol\":2316:2317  i */\n      dup2\n        /* \"contracts/CryptoKids.sol\":2311:2318  kids[i] */\n      dup2\n      sload\n      dup2\n      lt\n      tag_87\n      jumpi\n      tag_88\n      tag_52\n      jump\t// in\n    tag_88:\n    tag_87:\n      swap1\n      0x00\n      mstore\n      keccak256(0x00, 0x20)\n      swap1\n      0x06\n      mul\n      add\n        /* \"contracts/CryptoKids.sol\":2311:2330  kids[i].releaseTime */\n      0x03\n      add\n      sload\n        /* \"contracts/CryptoKids.sol\":2293:2308  block.timestamp */\n      timestamp\n        /* \"contracts/CryptoKids.sol\":2293:2330  block.timestamp > kids[i].releaseTime */\n      gt\n        /* \"contracts/CryptoKids.sol\":2285:2358  require(block.timestamp > kids[i].releaseTime, \"Unable to withdraw yet!\") */\n      tag_90\n      jumpi\n      mload(0x40)\n      0x08c379a000000000000000000000000000000000000000000000000000000000\n      dup2\n      mstore\n      0x04\n      add\n      tag_91\n      swap1\n      tag_92\n      jump\t// in\n    tag_91:\n      mload(0x40)\n      dup1\n      swap2\n      sub\n      swap1\n      revert\n    tag_90:\n        /* \"contracts/CryptoKids.sol\":2390:2394  kids */\n      0x01\n        /* \"contracts/CryptoKids.sol\":2395:2396  i */\n      dup2\n        /* \"contracts/CryptoKids.sol\":2390:2397  kids[i] */\n      dup2\n      sload\n      dup2\n      lt\n      tag_93\n      jumpi\n      tag_94\n      tag_52\n      jump\t// in\n    tag_94:\n    tag_93:\n      swap1\n      0x00\n      mstore\n      keccak256(0x00, 0x20)\n      swap1\n      0x06\n      mul\n      add\n        /* \"contracts/CryptoKids.sol\":2390:2409  kids[i].releaseTime */\n      0x03\n      add\n      sload\n        /* \"contracts/CryptoKids.sol\":2372:2387  block.timestamp */\n      timestamp\n        /* \"contracts/CryptoKids.sol\":2372:2409  block.timestamp > kids[i].releaseTime */\n      gt\n        /* \"contracts/CryptoKids.sol\":2369:2661  if(block.timestamp > kids[i].releaseTime){ //timestamp can be potentia fraud issue when small amounts of time matter. This is years, not an issue\r... */\n      iszero\n      tag_96\n      jumpi\n        /* \"contracts/CryptoKids.sol\":2550:2554  true */\n      0x01\n        /* \"contracts/CryptoKids.sol\":2528:2532  kids */\n      dup1\n        /* \"contracts/CryptoKids.sol\":2533:2534  i */\n      dup3\n        /* \"contracts/CryptoKids.sol\":2528:2535  kids[i] */\n      dup2\n      sload\n      dup2\n      lt\n      tag_97\n      jumpi\n      tag_98\n      tag_52\n      jump\t// in\n    tag_98:\n    tag_97:\n      swap1\n      0x00\n      mstore\n      keccak256(0x00, 0x20)\n      swap1\n      0x06\n      mul\n      add\n        /* \"contracts/CryptoKids.sol\":2528:2547  kids[i].canWithdraw */\n      0x05\n      add\n      0x00\n        /* \"contracts/CryptoKids.sol\":2528:2554  kids[i].canWithdraw = true */\n      0x0100\n      exp\n      dup2\n      sload\n      dup2\n      0xff\n      mul\n      not\n      and\n      swap1\n      dup4\n      iszero\n      iszero\n      mul\n      or\n      swap1\n      sstore\n      pop\n        /* \"contracts/CryptoKids.sol\":2576:2580  true */\n      0x01\n        /* \"contracts/CryptoKids.sol\":2569:2580  return true */\n      swap2\n      pop\n      pop\n      jump(tag_85)\n        /* \"contracts/CryptoKids.sol\":2369:2661  if(block.timestamp > kids[i].releaseTime){ //timestamp can be potentia fraud issue when small amounts of time matter. This is years, not an issue\r... */\n    tag_96:\n        /* \"contracts/CryptoKids.sol\":2630:2635  false */\n      0x00\n        /* \"contracts/CryptoKids.sol\":2623:2635  return false */\n      swap2\n      pop\n      pop\n        /* \"contracts/CryptoKids.sol\":2163:2672  function ableToWithdraw(address walletAddress) public returns(bool) {\r... */\n    tag_85:\n      swap2\n      swap1\n      pop\n      jump\t// out\n        /* \"contracts/CryptoKids.sol\":1163:1264  function deposit(address walletAddress) payable public {\r... */\n    tag_38:\n        /* \"contracts/CryptoKids.sol\":1229:1260  addToKidsBalance(walletAddress) */\n      tag_102\n        /* \"contracts/CryptoKids.sol\":1246:1259  walletAddress */\n      dup2\n        /* \"contracts/CryptoKids.sol\":1229:1245  addToKidsBalance */\n      tag_103\n        /* \"contracts/CryptoKids.sol\":1229:1260  addToKidsBalance(walletAddress) */\n      jump\t// in\n    tag_102:\n        /* \"contracts/CryptoKids.sol\":1163:1264  function deposit(address walletAddress) payable public {\r... */\n      pop\n      jump\t// out\n        /* \"contracts/CryptoKids.sol\":1746:2077  function getIndex(address walletAddress) view private returns(uint) {\r... */\n    tag_49:\n        /* \"contracts/CryptoKids.sol\":1808:1812  uint */\n      0x00\n        /* \"contracts/CryptoKids.sol\":1829:1835  uint i */\n      dup1\n        /* \"contracts/CryptoKids.sol\":1838:1839  0 */\n      0x00\n        /* \"contracts/CryptoKids.sol\":1829:1839  uint i = 0 */\n      swap1\n      pop\n        /* \"contracts/CryptoKids.sol\":1825:1978  for(uint i = 0; i < kids.length; i++) {\r... */\n    tag_105:\n        /* \"contracts/CryptoKids.sol\":1845:1849  kids */\n      0x01\n        /* \"contracts/CryptoKids.sol\":1845:1856  kids.length */\n      dup1\n      sload\n      swap1\n      pop\n        /* \"contracts/CryptoKids.sol\":1841:1842  i */\n      dup2\n        /* \"contracts/CryptoKids.sol\":1841:1856  i < kids.length */\n      lt\n        /* \"contracts/CryptoKids.sol\":1825:1978  for(uint i = 0; i < kids.length; i++) {\r... */\n      iszero\n      tag_106\n      jumpi\n        /* \"contracts/CryptoKids.sol\":1907:1920  walletAddress */\n      dup3\n        /* \"contracts/CryptoKids.sol\":1882:1920  kids[i].walletAddress == walletAddress */\n      0xffffffffffffffffffffffffffffffffffffffff\n      and\n        /* \"contracts/CryptoKids.sol\":1882:1886  kids */\n      0x01\n        /* \"contracts/CryptoKids.sol\":1887:1888  i */\n      dup3\n        /* \"contracts/CryptoKids.sol\":1882:1889  kids[i] */\n      dup2\n      sload\n      dup2\n      lt\n      tag_108\n      jumpi\n      tag_109\n      tag_52\n      jump\t// in\n    tag_109:\n    tag_108:\n      swap1\n      0x00\n      mstore\n      keccak256(0x00, 0x20)\n      swap1\n      0x06\n      mul\n      add\n        /* \"contracts/CryptoKids.sol\":1882:1903  kids[i].walletAddress */\n      0x00\n      add\n      0x00\n      swap1\n      sload\n      swap1\n      0x0100\n      exp\n      swap1\n      div\n      0xffffffffffffffffffffffffffffffffffffffff\n      and\n        /* \"contracts/CryptoKids.sol\":1882:1920  kids[i].walletAddress == walletAddress */\n      0xffffffffffffffffffffffffffffffffffffffff\n      and\n      eq\n        /* \"contracts/CryptoKids.sol\":1878:1967  if (kids[i].walletAddress == walletAddress) {\r... */\n      iszero\n      tag_111\n      jumpi\n        /* \"contracts/CryptoKids.sol\":1948:1949  i */\n      dup1\n        /* \"contracts/CryptoKids.sol\":1941:1949  return i */\n      swap2\n      pop\n      pop\n      jump(tag_104)\n        /* \"contracts/CryptoKids.sol\":1878:1967  if (kids[i].walletAddress == walletAddress) {\r... */\n    tag_111:\n        /* \"contracts/CryptoKids.sol\":1858:1861  i++ */\n      dup1\n      dup1\n      tag_112\n      swap1\n      tag_113\n      jump\t// in\n    tag_112:\n      swap2\n      pop\n      pop\n        /* \"contracts/CryptoKids.sol\":1825:1978  for(uint i = 0; i < kids.length; i++) {\r... */\n      jump(tag_105)\n    tag_106:\n      pop\n        /* \"contracts/CryptoKids.sol\":1995:1997  50 */\n      0x32\n        /* \"contracts/CryptoKids.sol\":1988:1997  return 50 */\n      swap1\n      pop\n        /* \"contracts/CryptoKids.sol\":1746:2077  function getIndex(address walletAddress) view private returns(uint) {\r... */\n    tag_104:\n      swap2\n      swap1\n      pop\n      jump\t// out\n        /* \"contracts/CryptoKids.sol\":1276:1737  function addToKidsBalance(address walletAddress) private {\r... */\n    tag_103:\n        /* \"contracts/CryptoKids.sol\":1348:1354  uint i */\n      0x00\n        /* \"contracts/CryptoKids.sol\":1344:1728  for(uint i = 0; i < kids.length; i++ ) {                //just like java except for uint\r... */\n    tag_115:\n        /* \"contracts/CryptoKids.sol\":1364:1368  kids */\n      0x01\n        /* \"contracts/CryptoKids.sol\":1364:1375  kids.length */\n      dup1\n      sload\n      swap1\n      pop\n        /* \"contracts/CryptoKids.sol\":1360:1361  i */\n      dup2\n        /* \"contracts/CryptoKids.sol\":1360:1375  i < kids.length */\n      lt\n        /* \"contracts/CryptoKids.sol\":1344:1728  for(uint i = 0; i < kids.length; i++ ) {                //just like java except for uint\r... */\n      iszero\n      tag_116\n      jumpi\n        /* \"contracts/CryptoKids.sol\":1474:1487  walletAddress */\n      dup2\n        /* \"contracts/CryptoKids.sol\":1449:1487  kids[i].walletAddress == walletAddress */\n      0xffffffffffffffffffffffffffffffffffffffff\n      and\n        /* \"contracts/CryptoKids.sol\":1449:1453  kids */\n      0x01\n        /* \"contracts/CryptoKids.sol\":1454:1455  i */\n      dup3\n        /* \"contracts/CryptoKids.sol\":1449:1456  kids[i] */\n      dup2\n      sload\n      dup2\n      lt\n      tag_118\n      jumpi\n      tag_119\n      tag_52\n      jump\t// in\n    tag_119:\n    tag_118:\n      swap1\n      0x00\n      mstore\n      keccak256(0x00, 0x20)\n      swap1\n      0x06\n      mul\n      add\n        /* \"contracts/CryptoKids.sol\":1449:1470  kids[i].walletAddress */\n      0x00\n      add\n      0x00\n      swap1\n      sload\n      swap1\n      0x0100\n      exp\n      swap1\n      div\n      0xffffffffffffffffffffffffffffffffffffffff\n      and\n        /* \"contracts/CryptoKids.sol\":1449:1487  kids[i].walletAddress == walletAddress */\n      0xffffffffffffffffffffffffffffffffffffffff\n      and\n      eq\n        /* \"contracts/CryptoKids.sol\":1446:1715  if(kids[i].walletAddress == walletAddress) {        //loop goes through all the potential kids wallet address and finds the one that equals desired addr.\r... */\n      iszero\n      tag_121\n      jumpi\n        /* \"contracts/CryptoKids.sol\":1635:1644  msg.value */\n      callvalue\n        /* \"contracts/CryptoKids.sol\":1617:1621  kids */\n      0x01\n        /* \"contracts/CryptoKids.sol\":1622:1623  i */\n      dup3\n        /* \"contracts/CryptoKids.sol\":1617:1624  kids[i] */\n      dup2\n      sload\n      dup2\n      lt\n      tag_122\n      jumpi\n      tag_123\n      tag_52\n      jump\t// in\n    tag_123:\n    tag_122:\n      swap1\n      0x00\n      mstore\n      keccak256(0x00, 0x20)\n      swap1\n      0x06\n      mul\n      add\n        /* \"contracts/CryptoKids.sol\":1617:1631  kids[i].amount */\n      0x04\n      add\n      0x00\n        /* \"contracts/CryptoKids.sol\":1617:1644  kids[i].amount += msg.value */\n      dup3\n      dup3\n      sload\n      tag_125\n      swap2\n      swap1\n      tag_126\n      jump\t// in\n    tag_125:\n      swap3\n      pop\n      pop\n      dup2\n      swap1\n      sstore\n      pop\n        /* \"contracts/CryptoKids.sol\":1446:1715  if(kids[i].walletAddress == walletAddress) {        //loop goes through all the potential kids wallet address and finds the one that equals desired addr.\r... */\n    tag_121:\n        /* \"contracts/CryptoKids.sol\":1377:1380  i++ */\n      dup1\n      dup1\n      tag_127\n      swap1\n      tag_113\n      jump\t// in\n    tag_127:\n      swap2\n      pop\n      pop\n        /* \"contracts/CryptoKids.sol\":1344:1728  for(uint i = 0; i < kids.length; i++ ) {                //just like java except for uint\r... */\n      jump(tag_115)\n    tag_116:\n      pop\n        /* \"contracts/CryptoKids.sol\":1276:1737  function addToKidsBalance(address walletAddress) private {\r... */\n      pop\n      jump\t// out\n    tag_45:\n      dup3\n      dup1\n      sload\n      tag_128\n      swap1\n      tag_75\n      jump\t// in\n    tag_128:\n      swap1\n      0x00\n      mstore\n      keccak256(0x00, 0x20)\n      swap1\n      0x1f\n      add\n      0x20\n      swap1\n      div\n      dup2\n      add\n      swap3\n      dup3\n      tag_130\n      jumpi\n      0x00\n      dup6\n      sstore\n      jump(tag_129)\n    tag_130:\n      dup3\n      0x1f\n      lt\n      tag_131\n      jumpi\n      dup1\n      mload\n      not(0xff)\n      and\n      dup4\n      dup1\n      add\n      or\n      dup6\n      sstore\n      jump(tag_129)\n    tag_131:\n      dup3\n      dup1\n      add\n      0x01\n      add\n      dup6\n      sstore\n      dup3\n      iszero\n      tag_129\n      jumpi\n      swap2\n      dup3\n      add\n    tag_132:\n      dup3\n      dup2\n      gt\n      iszero\n      tag_133\n      jumpi\n      dup3\n      mload\n      dup3\n      sstore\n      swap2\n      0x20\n      add\n      swap2\n      swap1\n      0x01\n      add\n      swap1\n      jump(tag_132)\n    tag_133:\n    tag_129:\n      pop\n      swap1\n      pop\n      tag_134\n      swap2\n      swap1\n      tag_135\n      jump\t// in\n    tag_134:\n      pop\n      swap1\n      jump\t// out\n    tag_135:\n    tag_136:\n      dup1\n      dup3\n      gt\n      iszero\n      tag_137\n      jumpi\n      0x00\n      dup2\n      0x00\n      swap1\n      sstore\n      pop\n      0x01\n      add\n      jump(tag_136)\n    tag_137:\n      pop\n      swap1\n      jump\t// out\n        /* \"#utility.yul\":7:419   */\n    tag_139:\n        /* \"#utility.yul\":85:90   */\n      0x00\n        /* \"#utility.yul\":110:176   */\n      tag_141\n        /* \"#utility.yul\":126:175   */\n      tag_142\n        /* \"#utility.yul\":168:174   */\n      dup5\n        /* \"#utility.yul\":126:175   */\n      tag_143\n      jump\t// in\n    tag_142:\n        /* \"#utility.yul\":110:176   */\n      tag_144\n      jump\t// in\n    tag_141:\n        /* \"#utility.yul\":101:176   */\n      swap1\n      pop\n        /* \"#utility.yul\":199:205   */\n      dup3\n        /* \"#utility.yul\":192:197   */\n      dup2\n        /* \"#utility.yul\":185:206   */\n      mstore\n        /* \"#utility.yul\":237:241   */\n      0x20\n        /* \"#utility.yul\":230:235   */\n      dup2\n        /* \"#utility.yul\":226:242   */\n      add\n        /* \"#utility.yul\":275:278   */\n      dup5\n        /* \"#utility.yul\":266:272   */\n      dup5\n        /* \"#utility.yul\":261:264   */\n      dup5\n        /* \"#utility.yul\":257:273   */\n      add\n        /* \"#utility.yul\":254:279   */\n      gt\n        /* \"#utility.yul\":251:363   */\n      iszero\n      tag_145\n      jumpi\n        /* \"#utility.yul\":282:361   */\n      tag_146\n      tag_147\n      jump\t// in\n    tag_146:\n        /* \"#utility.yul\":251:363   */\n    tag_145:\n        /* \"#utility.yul\":372:413   */\n      tag_148\n        /* \"#utility.yul\":406:412   */\n      dup5\n        /* \"#utility.yul\":401:404   */\n      dup3\n        /* \"#utility.yul\":396:399   */\n      dup6\n        /* \"#utility.yul\":372:413   */\n      tag_149\n      jump\t// in\n    tag_148:\n        /* \"#utility.yul\":91:419   */\n      pop\n        /* \"#utility.yul\":7:419   */\n      swap4\n      swap3\n      pop\n      pop\n      pop\n      jump\t// out\n        /* \"#utility.yul\":425:564   */\n    tag_150:\n        /* \"#utility.yul\":471:476   */\n      0x00\n        /* \"#utility.yul\":509:515   */\n      dup2\n        /* \"#utility.yul\":496:516   */\n      calldataload\n        /* \"#utility.yul\":487:516   */\n      swap1\n      pop\n        /* \"#utility.yul\":525:558   */\n      tag_152\n        /* \"#utility.yul\":552:557   */\n      dup2\n        /* \"#utility.yul\":525:558   */\n      tag_153\n      jump\t// in\n    tag_152:\n        /* \"#utility.yul\":425:564   */\n      swap3\n      swap2\n      pop\n      pop\n      jump\t// out\n        /* \"#utility.yul\":570:725   */\n    tag_154:\n        /* \"#utility.yul\":624:629   */\n      0x00\n        /* \"#utility.yul\":662:668   */\n      dup2\n        /* \"#utility.yul\":649:669   */\n      calldataload\n        /* \"#utility.yul\":640:669   */\n      swap1\n      pop\n        /* \"#utility.yul\":678:719   */\n      tag_156\n        /* \"#utility.yul\":713:718   */\n      dup2\n        /* \"#utility.yul\":678:719   */\n      tag_157\n      jump\t// in\n    tag_156:\n        /* \"#utility.yul\":570:725   */\n      swap3\n      swap2\n      pop\n      pop\n      jump\t// out\n        /* \"#utility.yul\":731:864   */\n    tag_158:\n        /* \"#utility.yul\":774:779   */\n      0x00\n        /* \"#utility.yul\":812:818   */\n      dup2\n        /* \"#utility.yul\":799:819   */\n      calldataload\n        /* \"#utility.yul\":790:819   */\n      swap1\n      pop\n        /* \"#utility.yul\":828:858   */\n      tag_160\n        /* \"#utility.yul\":852:857   */\n      dup2\n        /* \"#utility.yul\":828:858   */\n      tag_161\n      jump\t// in\n    tag_160:\n        /* \"#utility.yul\":731:864   */\n      swap3\n      swap2\n      pop\n      pop\n      jump\t// out\n        /* \"#utility.yul\":884:1224   */\n    tag_162:\n        /* \"#utility.yul\":940:945   */\n      0x00\n        /* \"#utility.yul\":989:992   */\n      dup3\n        /* \"#utility.yul\":982:986   */\n      0x1f\n        /* \"#utility.yul\":974:980   */\n      dup4\n        /* \"#utility.yul\":970:987   */\n      add\n        /* \"#utility.yul\":966:993   */\n      slt\n        /* \"#utility.yul\":956:1078   */\n      tag_164\n      jumpi\n        /* \"#utility.yul\":997:1076   */\n      tag_165\n      tag_166\n      jump\t// in\n    tag_165:\n        /* \"#utility.yul\":956:1078   */\n    tag_164:\n        /* \"#utility.yul\":1114:1120   */\n      dup2\n        /* \"#utility.yul\":1101:1121   */\n      calldataload\n        /* \"#utility.yul\":1139:1218   */\n      tag_167\n        /* \"#utility.yul\":1214:1217   */\n      dup5\n        /* \"#utility.yul\":1206:1212   */\n      dup3\n        /* \"#utility.yul\":1199:1203   */\n      0x20\n        /* \"#utility.yul\":1191:1197   */\n      dup7\n        /* \"#utility.yul\":1187:1204   */\n      add\n        /* \"#utility.yul\":1139:1218   */\n      tag_139\n      jump\t// in\n    tag_167:\n        /* \"#utility.yul\":1130:1218   */\n      swap2\n      pop\n        /* \"#utility.yul\":946:1224   */\n      pop\n        /* \"#utility.yul\":884:1224   */\n      swap3\n      swap2\n      pop\n      pop\n      jump\t// out\n        /* \"#utility.yul\":1230:1369   */\n    tag_168:\n        /* \"#utility.yul\":1276:1281   */\n      0x00\n        /* \"#utility.yul\":1314:1320   */\n      dup2\n        /* \"#utility.yul\":1301:1321   */\n      calldataload\n        /* \"#utility.yul\":1292:1321   */\n      swap1\n      pop\n        /* \"#utility.yul\":1330:1363   */\n      tag_170\n        /* \"#utility.yul\":1357:1362   */\n      dup2\n        /* \"#utility.yul\":1330:1363   */\n      tag_171\n      jump\t// in\n    tag_170:\n        /* \"#utility.yul\":1230:1369   */\n      swap3\n      swap2\n      pop\n      pop\n      jump\t// out\n        /* \"#utility.yul\":1375:1704   */\n    tag_32:\n        /* \"#utility.yul\":1434:1440   */\n      0x00\n        /* \"#utility.yul\":1483:1485   */\n      0x20\n        /* \"#utility.yul\":1471:1480   */\n      dup3\n        /* \"#utility.yul\":1462:1469   */\n      dup5\n        /* \"#utility.yul\":1458:1481   */\n      sub\n        /* \"#utility.yul\":1454:1486   */\n      slt\n        /* \"#utility.yul\":1451:1570   */\n      iszero\n      tag_173\n      jumpi\n        /* \"#utility.yul\":1489:1568   */\n      tag_174\n      tag_175\n      jump\t// in\n    tag_174:\n        /* \"#utility.yul\":1451:1570   */\n    tag_173:\n        /* \"#utility.yul\":1609:1610   */\n      0x00\n        /* \"#utility.yul\":1634:1687   */\n      tag_176\n        /* \"#utility.yul\":1679:1686   */\n      dup5\n        /* \"#utility.yul\":1670:1676   */\n      dup3\n        /* \"#utility.yul\":1659:1668   */\n      dup6\n        /* \"#utility.yul\":1655:1677   */\n      add\n        /* \"#utility.yul\":1634:1687   */\n      tag_150\n      jump\t// in\n    tag_176:\n        /* \"#utility.yul\":1624:1687   */\n      swap2\n      pop\n        /* \"#utility.yul\":1580:1697   */\n      pop\n        /* \"#utility.yul\":1375:1704   */\n      swap3\n      swap2\n      pop\n      pop\n      jump\t// out\n        /* \"#utility.yul\":1710:2055   */\n    tag_15:\n        /* \"#utility.yul\":1777:1783   */\n      0x00\n        /* \"#utility.yul\":1826:1828   */\n      0x20\n        /* \"#utility.yul\":1814:1823   */\n      dup3\n        /* \"#utility.yul\":1805:1812   */\n      dup5\n        /* \"#utility.yul\":1801:1824   */\n      sub\n        /* \"#utility.yul\":1797:1829   */\n      slt\n        /* \"#utility.yul\":1794:1913   */\n      iszero\n      tag_178\n      jumpi\n        /* \"#utility.yul\":1832:1911   */\n      tag_179\n      tag_175\n      jump\t// in\n    tag_179:\n        /* \"#utility.yul\":1794:1913   */\n    tag_178:\n        /* \"#utility.yul\":1952:1953   */\n      0x00\n        /* \"#utility.yul\":1977:2038   */\n      tag_180\n        /* \"#utility.yul\":2030:2037   */\n      dup5\n        /* \"#utility.yul\":2021:2027   */\n      dup3\n        /* \"#utility.yul\":2010:2019   */\n      dup6\n        /* \"#utility.yul\":2006:2028   */\n      add\n        /* \"#utility.yul\":1977:2038   */\n      tag_154\n      jump\t// in\n    tag_180:\n        /* \"#utility.yul\":1967:2038   */\n      swap2\n      pop\n        /* \"#utility.yul\":1923:2048   */\n      pop\n        /* \"#utility.yul\":1710:2055   */\n      swap3\n      swap2\n      pop\n      pop\n      jump\t// out\n        /* \"#utility.yul\":2061:3488   */\n    tag_11:\n        /* \"#utility.yul\":2190:2196   */\n      0x00\n        /* \"#utility.yul\":2198:2204   */\n      dup1\n        /* \"#utility.yul\":2206:2212   */\n      0x00\n        /* \"#utility.yul\":2214:2220   */\n      dup1\n        /* \"#utility.yul\":2222:2228   */\n      0x00\n        /* \"#utility.yul\":2230:2236   */\n      dup1\n        /* \"#utility.yul\":2279:2282   */\n      0xc0\n        /* \"#utility.yul\":2267:2276   */\n      dup8\n        /* \"#utility.yul\":2258:2265   */\n      dup10\n        /* \"#utility.yul\":2254:2277   */\n      sub\n        /* \"#utility.yul\":2250:2283   */\n      slt\n        /* \"#utility.yul\":2247:2367   */\n      iszero\n      tag_182\n      jumpi\n        /* \"#utility.yul\":2286:2365   */\n      tag_183\n      tag_175\n      jump\t// in\n    tag_183:\n        /* \"#utility.yul\":2247:2367   */\n    tag_182:\n        /* \"#utility.yul\":2406:2407   */\n      0x00\n        /* \"#utility.yul\":2431:2492   */\n      tag_184\n        /* \"#utility.yul\":2484:2491   */\n      dup10\n        /* \"#utility.yul\":2475:2481   */\n      dup3\n        /* \"#utility.yul\":2464:2473   */\n      dup11\n        /* \"#utility.yul\":2460:2482   */\n      add\n        /* \"#utility.yul\":2431:2492   */\n      tag_154\n      jump\t// in\n    tag_184:\n        /* \"#utility.yul\":2421:2492   */\n      swap7\n      pop\n        /* \"#utility.yul\":2377:2502   */\n      pop\n        /* \"#utility.yul\":2569:2571   */\n      0x20\n        /* \"#utility.yul\":2558:2567   */\n      dup8\n        /* \"#utility.yul\":2554:2572   */\n      add\n        /* \"#utility.yul\":2541:2573   */\n      calldataload\n        /* \"#utility.yul\":2600:2618   */\n      0xffffffffffffffff\n        /* \"#utility.yul\":2592:2598   */\n      dup2\n        /* \"#utility.yul\":2589:2619   */\n      gt\n        /* \"#utility.yul\":2586:2703   */\n      iszero\n      tag_185\n      jumpi\n        /* \"#utility.yul\":2622:2701   */\n      tag_186\n      tag_187\n      jump\t// in\n    tag_186:\n        /* \"#utility.yul\":2586:2703   */\n    tag_185:\n        /* \"#utility.yul\":2727:2790   */\n      tag_188\n        /* \"#utility.yul\":2782:2789   */\n      dup10\n        /* \"#utility.yul\":2773:2779   */\n      dup3\n        /* \"#utility.yul\":2762:2771   */\n      dup11\n        /* \"#utility.yul\":2758:2780   */\n      add\n        /* \"#utility.yul\":2727:2790   */\n      tag_162\n      jump\t// in\n    tag_188:\n        /* \"#utility.yul\":2717:2790   */\n      swap6\n      pop\n        /* \"#utility.yul\":2512:2800   */\n      pop\n        /* \"#utility.yul\":2867:2869   */\n      0x40\n        /* \"#utility.yul\":2856:2865   */\n      dup8\n        /* \"#utility.yul\":2852:2870   */\n      add\n        /* \"#utility.yul\":2839:2871   */\n      calldataload\n        /* \"#utility.yul\":2898:2916   */\n      0xffffffffffffffff\n        /* \"#utility.yul\":2890:2896   */\n      dup2\n        /* \"#utility.yul\":2887:2917   */\n      gt\n        /* \"#utility.yul\":2884:3001   */\n      iszero\n      tag_189\n      jumpi\n        /* \"#utility.yul\":2920:2999   */\n      tag_190\n      tag_187\n      jump\t// in\n    tag_190:\n        /* \"#utility.yul\":2884:3001   */\n    tag_189:\n        /* \"#utility.yul\":3025:3088   */\n      tag_191\n        /* \"#utility.yul\":3080:3087   */\n      dup10\n        /* \"#utility.yul\":3071:3077   */\n      dup3\n        /* \"#utility.yul\":3060:3069   */\n      dup11\n        /* \"#utility.yul\":3056:3078   */\n      add\n        /* \"#utility.yul\":3025:3088   */\n      tag_162\n      jump\t// in\n    tag_191:\n        /* \"#utility.yul\":3015:3088   */\n      swap5\n      pop\n        /* \"#utility.yul\":2810:3098   */\n      pop\n        /* \"#utility.yul\":3137:3139   */\n      0x60\n        /* \"#utility.yul\":3163:3216   */\n      tag_192\n        /* \"#utility.yul\":3208:3215   */\n      dup10\n        /* \"#utility.yul\":3199:3205   */\n      dup3\n        /* \"#utility.yul\":3188:3197   */\n      dup11\n        /* \"#utility.yul\":3184:3206   */\n      add\n        /* \"#utility.yul\":3163:3216   */\n      tag_168\n      jump\t// in\n    tag_192:\n        /* \"#utility.yul\":3153:3216   */\n      swap4\n      pop\n        /* \"#utility.yul\":3108:3226   */\n      pop\n        /* \"#utility.yul\":3265:3268   */\n      0x80\n        /* \"#utility.yul\":3292:3345   */\n      tag_193\n        /* \"#utility.yul\":3337:3344   */\n      dup10\n        /* \"#utility.yul\":3328:3334   */\n      dup3\n        /* \"#utility.yul\":3317:3326   */\n      dup11\n        /* \"#utility.yul\":3313:3335   */\n      add\n        /* \"#utility.yul\":3292:3345   */\n      tag_168\n      jump\t// in\n    tag_193:\n        /* \"#utility.yul\":3282:3345   */\n      swap3\n      pop\n        /* \"#utility.yul\":3236:3355   */\n      pop\n        /* \"#utility.yul\":3394:3397   */\n      0xa0\n        /* \"#utility.yul\":3421:3471   */\n      tag_194\n        /* \"#utility.yul\":3463:3470   */\n      dup10\n        /* \"#utility.yul\":3454:3460   */\n      dup3\n        /* \"#utility.yul\":3443:3452   */\n      dup11\n        /* \"#utility.yul\":3439:3461   */\n      add\n        /* \"#utility.yul\":3421:3471   */\n      tag_158\n      jump\t// in\n    tag_194:\n        /* \"#utility.yul\":3411:3471   */\n      swap2\n      pop\n        /* \"#utility.yul\":3365:3481   */\n      pop\n        /* \"#utility.yul\":2061:3488   */\n      swap3\n      swap6\n      pop\n      swap3\n      swap6\n      pop\n      swap3\n      swap6\n      jump\t// out\n        /* \"#utility.yul\":3494:3823   */\n    tag_25:\n        /* \"#utility.yul\":3553:3559   */\n      0x00\n        /* \"#utility.yul\":3602:3604   */\n      0x20\n        /* \"#utility.yul\":3590:3599   */\n      dup3\n        /* \"#utility.yul\":3581:3588   */\n      dup5\n        /* \"#utility.yul\":3577:3600   */\n      sub\n        /* \"#utility.yul\":3573:3605   */\n      slt\n        /* \"#utility.yul\":3570:3689   */\n      iszero\n      tag_196\n      jumpi\n        /* \"#utility.yul\":3608:3687   */\n      tag_197\n      tag_175\n      jump\t// in\n    tag_197:\n        /* \"#utility.yul\":3570:3689   */\n    tag_196:\n        /* \"#utility.yul\":3728:3729   */\n      0x00\n        /* \"#utility.yul\":3753:3806   */\n      tag_198\n        /* \"#utility.yul\":3798:3805   */\n      dup5\n        /* \"#utility.yul\":3789:3795   */\n      dup3\n        /* \"#utility.yul\":3778:3787   */\n      dup6\n        /* \"#utility.yul\":3774:3796   */\n      add\n        /* \"#utility.yul\":3753:3806   */\n      tag_168\n      jump\t// in\n    tag_198:\n        /* \"#utility.yul\":3743:3806   */\n      swap2\n      pop\n        /* \"#utility.yul\":3699:3816   */\n      pop\n        /* \"#utility.yul\":3494:3823   */\n      swap3\n      swap2\n      pop\n      pop\n      jump\t// out\n        /* \"#utility.yul\":3829:3971   */\n    tag_199:\n        /* \"#utility.yul\":3932:3964   */\n      tag_201\n        /* \"#utility.yul\":3958:3963   */\n      dup2\n        /* \"#utility.yul\":3932:3964   */\n      tag_202\n      jump\t// in\n    tag_201:\n        /* \"#utility.yul\":3927:3930   */\n      dup3\n        /* \"#utility.yul\":3920:3965   */\n      mstore\n        /* \"#utility.yul\":3829:3971   */\n      pop\n      pop\n      jump\t// out\n        /* \"#utility.yul\":3977:4086   */\n    tag_203:\n        /* \"#utility.yul\":4058:4079   */\n      tag_205\n        /* \"#utility.yul\":4073:4078   */\n      dup2\n        /* \"#utility.yul\":4058:4079   */\n      tag_206\n      jump\t// in\n    tag_205:\n        /* \"#utility.yul\":4053:4056   */\n      dup3\n        /* \"#utility.yul\":4046:4080   */\n      mstore\n        /* \"#utility.yul\":3977:4086   */\n      pop\n      pop\n      jump\t// out\n        /* \"#utility.yul\":4092:4456   */\n    tag_207:\n        /* \"#utility.yul\":4180:4183   */\n      0x00\n        /* \"#utility.yul\":4208:4247   */\n      tag_209\n        /* \"#utility.yul\":4241:4246   */\n      dup3\n        /* \"#utility.yul\":4208:4247   */\n      tag_210\n      jump\t// in\n    tag_209:\n        /* \"#utility.yul\":4263:4334   */\n      tag_211\n        /* \"#utility.yul\":4327:4333   */\n      dup2\n        /* \"#utility.yul\":4322:4325   */\n      dup6\n        /* \"#utility.yul\":4263:4334   */\n      tag_212\n      jump\t// in\n    tag_211:\n        /* \"#utility.yul\":4256:4334   */\n      swap4\n      pop\n        /* \"#utility.yul\":4343:4395   */\n      tag_213\n        /* \"#utility.yul\":4388:4394   */\n      dup2\n        /* \"#utility.yul\":4383:4386   */\n      dup6\n        /* \"#utility.yul\":4376:4380   */\n      0x20\n        /* \"#utility.yul\":4369:4374   */\n      dup7\n        /* \"#utility.yul\":4365:4381   */\n      add\n        /* \"#utility.yul\":4343:4395   */\n      tag_214\n      jump\t// in\n    tag_213:\n        /* \"#utility.yul\":4420:4449   */\n      tag_215\n        /* \"#utility.yul\":4442:4448   */\n      dup2\n        /* \"#utility.yul\":4420:4449   */\n      tag_216\n      jump\t// in\n    tag_215:\n        /* \"#utility.yul\":4415:4418   */\n      dup5\n        /* \"#utility.yul\":4411:4450   */\n      add\n        /* \"#utility.yul\":4404:4450   */\n      swap2\n      pop\n        /* \"#utility.yul\":4184:4456   */\n      pop\n        /* \"#utility.yul\":4092:4456   */\n      swap3\n      swap2\n      pop\n      pop\n      jump\t// out\n        /* \"#utility.yul\":4462:4828   */\n    tag_217:\n        /* \"#utility.yul\":4604:4607   */\n      0x00\n        /* \"#utility.yul\":4625:4692   */\n      tag_219\n        /* \"#utility.yul\":4689:4691   */\n      0x1e\n        /* \"#utility.yul\":4684:4687   */\n      dup4\n        /* \"#utility.yul\":4625:4692   */\n      tag_212\n      jump\t// in\n    tag_219:\n        /* \"#utility.yul\":4618:4692   */\n      swap2\n      pop\n        /* \"#utility.yul\":4701:4794   */\n      tag_220\n        /* \"#utility.yul\":4790:4793   */\n      dup3\n        /* \"#utility.yul\":4701:4794   */\n      tag_221\n      jump\t// in\n    tag_220:\n        /* \"#utility.yul\":4819:4821   */\n      0x20\n        /* \"#utility.yul\":4814:4817   */\n      dup3\n        /* \"#utility.yul\":4810:4822   */\n      add\n        /* \"#utility.yul\":4803:4822   */\n      swap1\n      pop\n        /* \"#utility.yul\":4462:4828   */\n      swap2\n      swap1\n      pop\n      jump\t// out\n        /* \"#utility.yul\":4834:5200   */\n    tag_222:\n        /* \"#utility.yul\":4976:4979   */\n      0x00\n        /* \"#utility.yul\":4997:5064   */\n      tag_224\n        /* \"#utility.yul\":5061:5063   */\n      0x29\n        /* \"#utility.yul\":5056:5059   */\n      dup4\n        /* \"#utility.yul\":4997:5064   */\n      tag_212\n      jump\t// in\n    tag_224:\n        /* \"#utility.yul\":4990:5064   */\n      swap2\n      pop\n        /* \"#utility.yul\":5073:5166   */\n      tag_225\n        /* \"#utility.yul\":5162:5165   */\n      dup3\n        /* \"#utility.yul\":5073:5166   */\n      tag_226\n      jump\t// in\n    tag_225:\n        /* \"#utility.yul\":5191:5193   */\n      0x40\n        /* \"#utility.yul\":5186:5189   */\n      dup3\n        /* \"#utility.yul\":5182:5194   */\n      add\n        /* \"#utility.yul\":5175:5194   */\n      swap1\n      pop\n        /* \"#utility.yul\":4834:5200   */\n      swap2\n      swap1\n      pop\n      jump\t// out\n        /* \"#utility.yul\":5206:5572   */\n    tag_227:\n        /* \"#utility.yul\":5348:5351   */\n      0x00\n        /* \"#utility.yul\":5369:5436   */\n      tag_229\n        /* \"#utility.yul\":5433:5435   */\n      0x1f\n        /* \"#utility.yul\":5428:5431   */\n      dup4\n        /* \"#utility.yul\":5369:5436   */\n      tag_212\n      jump\t// in\n    tag_229:\n        /* \"#utility.yul\":5362:5436   */\n      swap2\n      pop\n        /* \"#utility.yul\":5445:5538   */\n      tag_230\n        /* \"#utility.yul\":5534:5537   */\n      dup3\n        /* \"#utility.yul\":5445:5538   */\n      tag_231\n      jump\t// in\n    tag_230:\n        /* \"#utility.yul\":5563:5565   */\n      0x20\n        /* \"#utility.yul\":5558:5561   */\n      dup3\n        /* \"#utility.yul\":5554:5566   */\n      add\n        /* \"#utility.yul\":5547:5566   */\n      swap1\n      pop\n        /* \"#utility.yul\":5206:5572   */\n      swap2\n      swap1\n      pop\n      jump\t// out\n        /* \"#utility.yul\":5578:5944   */\n    tag_232:\n        /* \"#utility.yul\":5720:5723   */\n      0x00\n        /* \"#utility.yul\":5741:5808   */\n      tag_234\n        /* \"#utility.yul\":5805:5807   */\n      0x17\n        /* \"#utility.yul\":5800:5803   */\n      dup4\n        /* \"#utility.yul\":5741:5808   */\n      tag_212\n      jump\t// in\n    tag_234:\n        /* \"#utility.yul\":5734:5808   */\n      swap2\n      pop\n        /* \"#utility.yul\":5817:5910   */\n      tag_235\n        /* \"#utility.yul\":5906:5909   */\n      dup3\n        /* \"#utility.yul\":5817:5910   */\n      tag_236\n      jump\t// in\n    tag_235:\n        /* \"#utility.yul\":5935:5937   */\n      0x20\n        /* \"#utility.yul\":5930:5933   */\n      dup3\n        /* \"#utility.yul\":5926:5938   */\n      add\n        /* \"#utility.yul\":5919:5938   */\n      swap1\n      pop\n        /* \"#utility.yul\":5578:5944   */\n      swap2\n      swap1\n      pop\n      jump\t// out\n        /* \"#utility.yul\":5950:6068   */\n    tag_237:\n        /* \"#utility.yul\":6037:6061   */\n      tag_239\n        /* \"#utility.yul\":6055:6060   */\n      dup2\n        /* \"#utility.yul\":6037:6061   */\n      tag_240\n      jump\t// in\n    tag_239:\n        /* \"#utility.yul\":6032:6035   */\n      dup3\n        /* \"#utility.yul\":6025:6062   */\n      mstore\n        /* \"#utility.yul\":5950:6068   */\n      pop\n      pop\n      jump\t// out\n        /* \"#utility.yul\":6074:7051   */\n    tag_28:\n        /* \"#utility.yul\":6357:6361   */\n      0x00\n        /* \"#utility.yul\":6395:6398   */\n      0xc0\n        /* \"#utility.yul\":6384:6393   */\n      dup3\n        /* \"#utility.yul\":6380:6399   */\n      add\n        /* \"#utility.yul\":6372:6399   */\n      swap1\n      pop\n        /* \"#utility.yul\":6409:6496   */\n      tag_242\n        /* \"#utility.yul\":6493:6494   */\n      0x00\n        /* \"#utility.yul\":6482:6491   */\n      dup4\n        /* \"#utility.yul\":6478:6495   */\n      add\n        /* \"#utility.yul\":6469:6475   */\n      dup10\n        /* \"#utility.yul\":6409:6496   */\n      tag_199\n      jump\t// in\n    tag_242:\n        /* \"#utility.yul\":6543:6552   */\n      dup2\n        /* \"#utility.yul\":6537:6541   */\n      dup2\n        /* \"#utility.yul\":6533:6553   */\n      sub\n        /* \"#utility.yul\":6528:6530   */\n      0x20\n        /* \"#utility.yul\":6517:6526   */\n      dup4\n        /* \"#utility.yul\":6513:6531   */\n      add\n        /* \"#utility.yul\":6506:6554   */\n      mstore\n        /* \"#utility.yul\":6571:6649   */\n      tag_243\n        /* \"#utility.yul\":6644:6648   */\n      dup2\n        /* \"#utility.yul\":6635:6641   */\n      dup9\n        /* \"#utility.yul\":6571:6649   */\n      tag_207\n      jump\t// in\n    tag_243:\n        /* \"#utility.yul\":6563:6649   */\n      swap1\n      pop\n        /* \"#utility.yul\":6696:6705   */\n      dup2\n        /* \"#utility.yul\":6690:6694   */\n      dup2\n        /* \"#utility.yul\":6686:6706   */\n      sub\n        /* \"#utility.yul\":6681:6683   */\n      0x40\n        /* \"#utility.yul\":6670:6679   */\n      dup4\n        /* \"#utility.yul\":6666:6684   */\n      add\n        /* \"#utility.yul\":6659:6707   */\n      mstore\n        /* \"#utility.yul\":6724:6802   */\n      tag_244\n        /* \"#utility.yul\":6797:6801   */\n      dup2\n        /* \"#utility.yul\":6788:6794   */\n      dup8\n        /* \"#utility.yul\":6724:6802   */\n      tag_207\n      jump\t// in\n    tag_244:\n        /* \"#utility.yul\":6716:6802   */\n      swap1\n      pop\n        /* \"#utility.yul\":6812:6884   */\n      tag_245\n        /* \"#utility.yul\":6880:6882   */\n      0x60\n        /* \"#utility.yul\":6869:6878   */\n      dup4\n        /* \"#utility.yul\":6865:6883   */\n      add\n        /* \"#utility.yul\":6856:6862   */\n      dup7\n        /* \"#utility.yul\":6812:6884   */\n      tag_237\n      jump\t// in\n    tag_245:\n        /* \"#utility.yul\":6894:6967   */\n      tag_246\n        /* \"#utility.yul\":6962:6965   */\n      0x80\n        /* \"#utility.yul\":6951:6960   */\n      dup4\n        /* \"#utility.yul\":6947:6966   */\n      add\n        /* \"#utility.yul\":6938:6944   */\n      dup6\n        /* \"#utility.yul\":6894:6967   */\n      tag_237\n      jump\t// in\n    tag_246:\n        /* \"#utility.yul\":6977:7044   */\n      tag_247\n        /* \"#utility.yul\":7039:7042   */\n      0xa0\n        /* \"#utility.yul\":7028:7037   */\n      dup4\n        /* \"#utility.yul\":7024:7043   */\n      add\n        /* \"#utility.yul\":7015:7021   */\n      dup5\n        /* \"#utility.yul\":6977:7044   */\n      tag_203\n      jump\t// in\n    tag_247:\n        /* \"#utility.yul\":6074:7051   */\n      swap8\n      swap7\n      pop\n      pop\n      pop\n      pop\n      pop\n      pop\n      pop\n      jump\t// out\n        /* \"#utility.yul\":7057:7267   */\n    tag_35:\n        /* \"#utility.yul\":7144:7148   */\n      0x00\n        /* \"#utility.yul\":7182:7184   */\n      0x20\n        /* \"#utility.yul\":7171:7180   */\n      dup3\n        /* \"#utility.yul\":7167:7185   */\n      add\n        /* \"#utility.yul\":7159:7185   */\n      swap1\n      pop\n        /* \"#utility.yul\":7195:7260   */\n      tag_249\n        /* \"#utility.yul\":7257:7258   */\n      0x00\n        /* \"#utility.yul\":7246:7255   */\n      dup4\n        /* \"#utility.yul\":7242:7259   */\n      add\n        /* \"#utility.yul\":7233:7239   */\n      dup5\n        /* \"#utility.yul\":7195:7260   */\n      tag_203\n      jump\t// in\n    tag_249:\n        /* \"#utility.yul\":7057:7267   */\n      swap3\n      swap2\n      pop\n      pop\n      jump\t// out\n        /* \"#utility.yul\":7273:7692   */\n    tag_42:\n        /* \"#utility.yul\":7439:7443   */\n      0x00\n        /* \"#utility.yul\":7477:7479   */\n      0x20\n        /* \"#utility.yul\":7466:7475   */\n      dup3\n        /* \"#utility.yul\":7462:7480   */\n      add\n        /* \"#utility.yul\":7454:7480   */\n      swap1\n      pop\n        /* \"#utility.yul\":7526:7535   */\n      dup2\n        /* \"#utility.yul\":7520:7524   */\n      dup2\n        /* \"#utility.yul\":7516:7536   */\n      sub\n        /* \"#utility.yul\":7512:7513   */\n      0x00\n        /* \"#utility.yul\":7501:7510   */\n      dup4\n        /* \"#utility.yul\":7497:7514   */\n      add\n        /* \"#utility.yul\":7490:7537   */\n      mstore\n        /* \"#utility.yul\":7554:7685   */\n      tag_251\n        /* \"#utility.yul\":7680:7684   */\n      dup2\n        /* \"#utility.yul\":7554:7685   */\n      tag_217\n      jump\t// in\n    tag_251:\n        /* \"#utility.yul\":7546:7685   */\n      swap1\n      pop\n        /* \"#utility.yul\":7273:7692   */\n      swap2\n      swap1\n      pop\n      jump\t// out\n        /* \"#utility.yul\":7698:8117   */\n    tag_62:\n        /* \"#utility.yul\":7864:7868   */\n      0x00\n        /* \"#utility.yul\":7902:7904   */\n      0x20\n        /* \"#utility.yul\":7891:7900   */\n      dup3\n        /* \"#utility.yul\":7887:7905   */\n      add\n        /* \"#utility.yul\":7879:7905   */\n      swap1\n      pop\n        /* \"#utility.yul\":7951:7960   */\n      dup2\n        /* \"#utility.yul\":7945:7949   */\n      dup2\n        /* \"#utility.yul\":7941:7961   */\n      sub\n        /* \"#utility.yul\":7937:7938   */\n      0x00\n        /* \"#utility.yul\":7926:7935   */\n      dup4\n        /* \"#utility.yul\":7922:7939   */\n      add\n        /* \"#utility.yul\":7915:7962   */\n      mstore\n        /* \"#utility.yul\":7979:8110   */\n      tag_253\n        /* \"#utility.yul\":8105:8109   */\n      dup2\n        /* \"#utility.yul\":7979:8110   */\n      tag_222\n      jump\t// in\n    tag_253:\n        /* \"#utility.yul\":7971:8110   */\n      swap1\n      pop\n        /* \"#utility.yul\":7698:8117   */\n      swap2\n      swap1\n      pop\n      jump\t// out\n        /* \"#utility.yul\":8123:8542   */\n    tag_56:\n        /* \"#utility.yul\":8289:8293   */\n      0x00\n        /* \"#utility.yul\":8327:8329   */\n      0x20\n        /* \"#utility.yul\":8316:8325   */\n      dup3\n        /* \"#utility.yul\":8312:8330   */\n      add\n        /* \"#utility.yul\":8304:8330   */\n      swap1\n      pop\n        /* \"#utility.yul\":8376:8385   */\n      dup2\n        /* \"#utility.yul\":8370:8374   */\n      dup2\n        /* \"#utility.yul\":8366:8386   */\n      sub\n        /* \"#utility.yul\":8362:8363   */\n      0x00\n        /* \"#utility.yul\":8351:8360   */\n      dup4\n        /* \"#utility.yul\":8347:8364   */\n      add\n        /* \"#utility.yul\":8340:8387   */\n      mstore\n        /* \"#utility.yul\":8404:8535   */\n      tag_255\n        /* \"#utility.yul\":8530:8534   */\n      dup2\n        /* \"#utility.yul\":8404:8535   */\n      tag_227\n      jump\t// in\n    tag_255:\n        /* \"#utility.yul\":8396:8535   */\n      swap1\n      pop\n        /* \"#utility.yul\":8123:8542   */\n      swap2\n      swap1\n      pop\n      jump\t// out\n        /* \"#utility.yul\":8548:8967   */\n    tag_92:\n        /* \"#utility.yul\":8714:8718   */\n      0x00\n        /* \"#utility.yul\":8752:8754   */\n      0x20\n        /* \"#utility.yul\":8741:8750   */\n      dup3\n        /* \"#utility.yul\":8737:8755   */\n      add\n        /* \"#utility.yul\":8729:8755   */\n      swap1\n      pop\n        /* \"#utility.yul\":8801:8810   */\n      dup2\n        /* \"#utility.yul\":8795:8799   */\n      dup2\n        /* \"#utility.yul\":8791:8811   */\n      sub\n        /* \"#utility.yul\":8787:8788   */\n      0x00\n        /* \"#utility.yul\":8776:8785   */\n      dup4\n        /* \"#utility.yul\":8772:8789   */\n      add\n        /* \"#utility.yul\":8765:8812   */\n      mstore\n        /* \"#utility.yul\":8829:8960   */\n      tag_257\n        /* \"#utility.yul\":8955:8959   */\n      dup2\n        /* \"#utility.yul\":8829:8960   */\n      tag_232\n      jump\t// in\n    tag_257:\n        /* \"#utility.yul\":8821:8960   */\n      swap1\n      pop\n        /* \"#utility.yul\":8548:8967   */\n      swap2\n      swap1\n      pop\n      jump\t// out\n        /* \"#utility.yul\":8973:9195   */\n    tag_21:\n        /* \"#utility.yul\":9066:9070   */\n      0x00\n        /* \"#utility.yul\":9104:9106   */\n      0x20\n        /* \"#utility.yul\":9093:9102   */\n      dup3\n        /* \"#utility.yul\":9089:9107   */\n      add\n        /* \"#utility.yul\":9081:9107   */\n      swap1\n      pop\n        /* \"#utility.yul\":9117:9188   */\n      tag_259\n        /* \"#utility.yul\":9185:9186   */\n      0x00\n        /* \"#utility.yul\":9174:9183   */\n      dup4\n        /* \"#utility.yul\":9170:9187   */\n      add\n        /* \"#utility.yul\":9161:9167   */\n      dup5\n        /* \"#utility.yul\":9117:9188   */\n      tag_237\n      jump\t// in\n    tag_259:\n        /* \"#utility.yul\":8973:9195   */\n      swap3\n      swap2\n      pop\n      pop\n      jump\t// out\n        /* \"#utility.yul\":9201:9330   */\n    tag_144:\n        /* \"#utility.yul\":9235:9241   */\n      0x00\n        /* \"#utility.yul\":9262:9282   */\n      tag_261\n      tag_262\n      jump\t// in\n    tag_261:\n        /* \"#utility.yul\":9252:9282   */\n      swap1\n      pop\n        /* \"#utility.yul\":9291:9324   */\n      tag_263\n        /* \"#utility.yul\":9319:9323   */\n      dup3\n        /* \"#utility.yul\":9311:9317   */\n      dup3\n        /* \"#utility.yul\":9291:9324   */\n      tag_264\n      jump\t// in\n    tag_263:\n        /* \"#utility.yul\":9201:9330   */\n      swap2\n      swap1\n      pop\n      jump\t// out\n        /* \"#utility.yul\":9336:9411   */\n    tag_262:\n        /* \"#utility.yul\":9369:9375   */\n      0x00\n        /* \"#utility.yul\":9402:9404   */\n      0x40\n        /* \"#utility.yul\":9396:9405   */\n      mload\n        /* \"#utility.yul\":9386:9405   */\n      swap1\n      pop\n        /* \"#utility.yul\":9336:9411   */\n      swap1\n      jump\t// out\n        /* \"#utility.yul\":9417:9725   */\n    tag_143:\n        /* \"#utility.yul\":9479:9483   */\n      0x00\n        /* \"#utility.yul\":9569:9587   */\n      0xffffffffffffffff\n        /* \"#utility.yul\":9561:9567   */\n      dup3\n        /* \"#utility.yul\":9558:9588   */\n      gt\n        /* \"#utility.yul\":9555:9611   */\n      iszero\n      tag_267\n      jumpi\n        /* \"#utility.yul\":9591:9609   */\n      tag_268\n      tag_269\n      jump\t// in\n    tag_268:\n        /* \"#utility.yul\":9555:9611   */\n    tag_267:\n        /* \"#utility.yul\":9629:9658   */\n      tag_270\n        /* \"#utility.yul\":9651:9657   */\n      dup3\n        /* \"#utility.yul\":9629:9658   */\n      tag_216\n      jump\t// in\n    tag_270:\n        /* \"#utility.yul\":9621:9658   */\n      swap1\n      pop\n        /* \"#utility.yul\":9713:9717   */\n      0x20\n        /* \"#utility.yul\":9707:9711   */\n      dup2\n        /* \"#utility.yul\":9703:9718   */\n      add\n        /* \"#utility.yul\":9695:9718   */\n      swap1\n      pop\n        /* \"#utility.yul\":9417:9725   */\n      swap2\n      swap1\n      pop\n      jump\t// out\n        /* \"#utility.yul\":9731:9830   */\n    tag_210:\n        /* \"#utility.yul\":9783:9789   */\n      0x00\n        /* \"#utility.yul\":9817:9822   */\n      dup2\n        /* \"#utility.yul\":9811:9823   */\n      mload\n        /* \"#utility.yul\":9801:9823   */\n      swap1\n      pop\n        /* \"#utility.yul\":9731:9830   */\n      swap2\n      swap1\n      pop\n      jump\t// out\n        /* \"#utility.yul\":9836:10005   */\n    tag_212:\n        /* \"#utility.yul\":9920:9931   */\n      0x00\n        /* \"#utility.yul\":9954:9960   */\n      dup3\n        /* \"#utility.yul\":9949:9952   */\n      dup3\n        /* \"#utility.yul\":9942:9961   */\n      mstore\n        /* \"#utility.yul\":9994:9998   */\n      0x20\n        /* \"#utility.yul\":9989:9992   */\n      dup3\n        /* \"#utility.yul\":9985:9999   */\n      add\n        /* \"#utility.yul\":9970:9999   */\n      swap1\n      pop\n        /* \"#utility.yul\":9836:10005   */\n      swap3\n      swap2\n      pop\n      pop\n      jump\t// out\n        /* \"#utility.yul\":10011:10316   */\n    tag_126:\n        /* \"#utility.yul\":10051:10054   */\n      0x00\n        /* \"#utility.yul\":10070:10090   */\n      tag_274\n        /* \"#utility.yul\":10088:10089   */\n      dup3\n        /* \"#utility.yul\":10070:10090   */\n      tag_240\n      jump\t// in\n    tag_274:\n        /* \"#utility.yul\":10065:10090   */\n      swap2\n      pop\n        /* \"#utility.yul\":10104:10124   */\n      tag_275\n        /* \"#utility.yul\":10122:10123   */\n      dup4\n        /* \"#utility.yul\":10104:10124   */\n      tag_240\n      jump\t// in\n    tag_275:\n        /* \"#utility.yul\":10099:10124   */\n      swap3\n      pop\n        /* \"#utility.yul\":10258:10259   */\n      dup3\n        /* \"#utility.yul\":10190:10256   */\n      0xffffffffffffffffffffffffffffffffffffffffffffffffffffffffffffffff\n        /* \"#utility.yul\":10186:10260   */\n      sub\n        /* \"#utility.yul\":10183:10184   */\n      dup3\n        /* \"#utility.yul\":10180:10261   */\n      gt\n        /* \"#utility.yul\":10177:10284   */\n      iszero\n      tag_276\n      jumpi\n        /* \"#utility.yul\":10264:10282   */\n      tag_277\n      tag_278\n      jump\t// in\n    tag_277:\n        /* \"#utility.yul\":10177:10284   */\n    tag_276:\n        /* \"#utility.yul\":10308:10309   */\n      dup3\n        /* \"#utility.yul\":10305:10306   */\n      dup3\n        /* \"#utility.yul\":10301:10310   */\n      add\n        /* \"#utility.yul\":10294:10310   */\n      swap1\n      pop\n        /* \"#utility.yul\":10011:10316   */\n      swap3\n      swap2\n      pop\n      pop\n      jump\t// out\n        /* \"#utility.yul\":10322:10418   */\n    tag_279:\n        /* \"#utility.yul\":10359:10366   */\n      0x00\n        /* \"#utility.yul\":10388:10412   */\n      tag_281\n        /* \"#utility.yul\":10406:10411   */\n      dup3\n        /* \"#utility.yul\":10388:10412   */\n      tag_282\n      jump\t// in\n    tag_281:\n        /* \"#utility.yul\":10377:10412   */\n      swap1\n      pop\n        /* \"#utility.yul\":10322:10418   */\n      swap2\n      swap1\n      pop\n      jump\t// out\n        /* \"#utility.yul\":10424:10528   */\n    tag_202:\n        /* \"#utility.yul\":10469:10476   */\n      0x00\n        /* \"#utility.yul\":10498:10522   */\n      tag_284\n        /* \"#utility.yul\":10516:10521   */\n      dup3\n        /* \"#utility.yul\":10498:10522   */\n      tag_282\n      jump\t// in\n    tag_284:\n        /* \"#utility.yul\":10487:10522   */\n      swap1\n      pop\n        /* \"#utility.yul\":10424:10528   */\n      swap2\n      swap1\n      pop\n      jump\t// out\n        /* \"#utility.yul\":10534:10624   */\n    tag_206:\n        /* \"#utility.yul\":10568:10575   */\n      0x00\n        /* \"#utility.yul\":10611:10616   */\n      dup2\n        /* \"#utility.yul\":10604:10617   */\n      iszero\n        /* \"#utility.yul\":10597:10618   */\n      iszero\n        /* \"#utility.yul\":10586:10618   */\n      swap1\n      pop\n        /* \"#utility.yul\":10534:10624   */\n      swap2\n      swap1\n      pop\n      jump\t// out\n        /* \"#utility.yul\":10630:10756   */\n    tag_282:\n        /* \"#utility.yul\":10667:10674   */\n      0x00\n        /* \"#utility.yul\":10707:10749   */\n      0xffffffffffffffffffffffffffffffffffffffff\n        /* \"#utility.yul\":10700:10705   */\n      dup3\n        /* \"#utility.yul\":10696:10750   */\n      and\n        /* \"#utility.yul\":10685:10750   */\n      swap1\n      pop\n        /* \"#utility.yul\":10630:10756   */\n      swap2\n      swap1\n      pop\n      jump\t// out\n        /* \"#utility.yul\":10762:10839   */\n    tag_240:\n        /* \"#utility.yul\":10799:10806   */\n      0x00\n        /* \"#utility.yul\":10828:10833   */\n      dup2\n        /* \"#utility.yul\":10817:10833   */\n      swap1\n      pop\n        /* \"#utility.yul\":10762:10839   */\n      swap2\n      swap1\n      pop\n      jump\t// out\n        /* \"#utility.yul\":10845:10999   */\n    tag_149:\n        /* \"#utility.yul\":10929:10935   */\n      dup3\n        /* \"#utility.yul\":10924:10927   */\n      dup2\n        /* \"#utility.yul\":10919:10922   */\n      dup4\n        /* \"#utility.yul\":10906:10936   */\n      calldatacopy\n        /* \"#utility.yul\":10991:10992   */\n      0x00\n        /* \"#utility.yul\":10982:10988   */\n      dup4\n        /* \"#utility.yul\":10977:10980   */\n      dup4\n        /* \"#utility.yul\":10973:10989   */\n      add\n        /* \"#utility.yul\":10966:10993   */\n      mstore\n        /* \"#utility.yul\":10845:10999   */\n      pop\n      pop\n      pop\n      jump\t// out\n        /* \"#utility.yul\":11005:11312   */\n    tag_214:\n        /* \"#utility.yul\":11073:11074   */\n      0x00\n        /* \"#utility.yul\":11083:11196   */\n    tag_290:\n        /* \"#utility.yul\":11097:11103   */\n      dup4\n        /* \"#utility.yul\":11094:11095   */\n      dup2\n        /* \"#utility.yul\":11091:11104   */\n      lt\n        /* \"#utility.yul\":11083:11196   */\n      iszero\n      tag_292\n      jumpi\n        /* \"#utility.yul\":11182:11183   */\n      dup1\n        /* \"#utility.yul\":11177:11180   */\n      dup3\n        /* \"#utility.yul\":11173:11184   */\n      add\n        /* \"#utility.yul\":11167:11185   */\n      mload\n        /* \"#utility.yul\":11163:11164   */\n      dup2\n        /* \"#utility.yul\":11158:11161   */\n      dup5\n        /* \"#utility.yul\":11154:11165   */\n      add\n        /* \"#utility.yul\":11147:11186   */\n      mstore\n        /* \"#utility.yul\":11119:11121   */\n      0x20\n        /* \"#utility.yul\":11116:11117   */\n      dup2\n        /* \"#utility.yul\":11112:11122   */\n      add\n        /* \"#utility.yul\":11107:11122   */\n      swap1\n      pop\n        /* \"#utility.yul\":11083:11196   */\n      jump(tag_290)\n    tag_292:\n        /* \"#utility.yul\":11214:11220   */\n      dup4\n        /* \"#utility.yul\":11211:11212   */\n      dup2\n        /* \"#utility.yul\":11208:11221   */\n      gt\n        /* \"#utility.yul\":11205:11306   */\n      iszero\n      tag_293\n      jumpi\n        /* \"#utility.yul\":11294:11295   */\n      0x00\n        /* \"#utility.yul\":11285:11291   */\n      dup5\n        /* \"#utility.yul\":11280:11283   */\n      dup5\n        /* \"#utility.yul\":11276:11292   */\n      add\n        /* \"#utility.yul\":11269:11296   */\n      mstore\n        /* \"#utility.yul\":11205:11306   */\n    tag_293:\n        /* \"#utility.yul\":11054:11312   */\n      pop\n        /* \"#utility.yul\":11005:11312   */\n      pop\n      pop\n      pop\n      jump\t// out\n        /* \"#utility.yul\":11318:11638   */\n    tag_75:\n        /* \"#utility.yul\":11362:11368   */\n      0x00\n        /* \"#utility.yul\":11399:11400   */\n      0x02\n        /* \"#utility.yul\":11393:11397   */\n      dup3\n        /* \"#utility.yul\":11389:11401   */\n      div\n        /* \"#utility.yul\":11379:11401   */\n      swap1\n      pop\n        /* \"#utility.yul\":11446:11447   */\n      0x01\n        /* \"#utility.yul\":11440:11444   */\n      dup3\n        /* \"#utility.yul\":11436:11448   */\n      and\n        /* \"#utility.yul\":11467:11485   */\n      dup1\n        /* \"#utility.yul\":11457:11538   */\n      tag_295\n      jumpi\n        /* \"#utility.yul\":11523:11527   */\n      0x7f\n        /* \"#utility.yul\":11515:11521   */\n      dup3\n        /* \"#utility.yul\":11511:11528   */\n      and\n        /* \"#utility.yul\":11501:11528   */\n      swap2\n      pop\n        /* \"#utility.yul\":11457:11538   */\n    tag_295:\n        /* \"#utility.yul\":11585:11587   */\n      0x20\n        /* \"#utility.yul\":11577:11583   */\n      dup3\n        /* \"#utility.yul\":11574:11588   */\n      lt\n        /* \"#utility.yul\":11554:11572   */\n      dup2\n        /* \"#utility.yul\":11551:11589   */\n      eq\n        /* \"#utility.yul\":11548:11632   */\n      iszero\n      tag_296\n      jumpi\n        /* \"#utility.yul\":11604:11622   */\n      tag_297\n      tag_298\n      jump\t// in\n    tag_297:\n        /* \"#utility.yul\":11548:11632   */\n    tag_296:\n        /* \"#utility.yul\":11369:11638   */\n      pop\n        /* \"#utility.yul\":11318:11638   */\n      swap2\n      swap1\n      pop\n      jump\t// out\n        /* \"#utility.yul\":11644:11925   */\n    tag_264:\n        /* \"#utility.yul\":11727:11754   */\n      tag_300\n        /* \"#utility.yul\":11749:11753   */\n      dup3\n        /* \"#utility.yul\":11727:11754   */\n      tag_216\n      jump\t// in\n    tag_300:\n        /* \"#utility.yul\":11719:11725   */\n      dup2\n        /* \"#utility.yul\":11715:11755   */\n      add\n        /* \"#utility.yul\":11857:11863   */\n      dup2\n        /* \"#utility.yul\":11845:11855   */\n      dup2\n        /* \"#utility.yul\":11842:11864   */\n      lt\n        /* \"#utility.yul\":11821:11839   */\n      0xffffffffffffffff\n        /* \"#utility.yul\":11809:11819   */\n      dup3\n        /* \"#utility.yul\":11806:11840   */\n      gt\n        /* \"#utility.yul\":11803:11865   */\n      or\n        /* \"#utility.yul\":11800:11888   */\n      iszero\n      tag_301\n      jumpi\n        /* \"#utility.yul\":11868:11886   */\n      tag_302\n      tag_269\n      jump\t// in\n    tag_302:\n        /* \"#utility.yul\":11800:11888   */\n    tag_301:\n        /* \"#utility.yul\":11908:11918   */\n      dup1\n        /* \"#utility.yul\":11904:11906   */\n      0x40\n        /* \"#utility.yul\":11897:11919   */\n      mstore\n        /* \"#utility.yul\":11687:11925   */\n      pop\n        /* \"#utility.yul\":11644:11925   */\n      pop\n      pop\n      jump\t// out\n        /* \"#utility.yul\":11931:12164   */\n    tag_113:\n        /* \"#utility.yul\":11970:11973   */\n      0x00\n        /* \"#utility.yul\":11993:12017   */\n      tag_304\n        /* \"#utility.yul\":12011:12016   */\n      dup3\n        /* \"#utility.yul\":11993:12017   */\n      tag_240\n      jump\t// in\n    tag_304:\n        /* \"#utility.yul\":11984:12017   */\n      swap2\n      pop\n        /* \"#utility.yul\":12039:12105   */\n      0xffffffffffffffffffffffffffffffffffffffffffffffffffffffffffffffff\n        /* \"#utility.yul\":12032:12037   */\n      dup3\n        /* \"#utility.yul\":12029:12106   */\n      eq\n        /* \"#utility.yul\":12026:12129   */\n      iszero\n      tag_305\n      jumpi\n        /* \"#utility.yul\":12109:12127   */\n      tag_306\n      tag_278\n      jump\t// in\n    tag_306:\n        /* \"#utility.yul\":12026:12129   */\n    tag_305:\n        /* \"#utility.yul\":12156:12157   */\n      0x01\n        /* \"#utility.yul\":12149:12154   */\n      dup3\n        /* \"#utility.yul\":12145:12158   */\n      add\n        /* \"#utility.yul\":12138:12158   */\n      swap1\n      pop\n        /* \"#utility.yul\":11931:12164   */\n      swap2\n      swap1\n      pop\n      jump\t// out\n        /* \"#utility.yul\":12170:12350   */\n    tag_278:\n        /* \"#utility.yul\":12218:12295   */\n      0x4e487b7100000000000000000000000000000000000000000000000000000000\n        /* \"#utility.yul\":12215:12216   */\n      0x00\n        /* \"#utility.yul\":12208:12296   */\n      mstore\n        /* \"#utility.yul\":12315:12319   */\n      0x11\n        /* \"#utility.yul\":12312:12313   */\n      0x04\n        /* \"#utility.yul\":12305:12320   */\n      mstore\n        /* \"#utility.yul\":12339:12343   */\n      0x24\n        /* \"#utility.yul\":12336:12337   */\n      0x00\n        /* \"#utility.yul\":12329:12344   */\n      revert\n        /* \"#utility.yul\":12356:12536   */\n    tag_298:\n        /* \"#utility.yul\":12404:12481   */\n      0x4e487b7100000000000000000000000000000000000000000000000000000000\n        /* \"#utility.yul\":12401:12402   */\n      0x00\n        /* \"#utility.yul\":12394:12482   */\n      mstore\n        /* \"#utility.yul\":12501:12505   */\n      0x22\n        /* \"#utility.yul\":12498:12499   */\n      0x04\n        /* \"#utility.yul\":12491:12506   */\n      mstore\n        /* \"#utility.yul\":12525:12529   */\n      0x24\n        /* \"#utility.yul\":12522:12523   */\n      0x00\n        /* \"#utility.yul\":12515:12530   */\n      revert\n        /* \"#utility.yul\":12542:12722   */\n    tag_52:\n        /* \"#utility.yul\":12590:12667   */\n      0x4e487b7100000000000000000000000000000000000000000000000000000000\n        /* \"#utility.yul\":12587:12588   */\n      0x00\n        /* \"#utility.yul\":12580:12668   */\n      mstore\n        /* \"#utility.yul\":12687:12691   */\n      0x32\n        /* \"#utility.yul\":12684:12685   */\n      0x04\n        /* \"#utility.yul\":12677:12692   */\n      mstore\n        /* \"#utility.yul\":12711:12715   */\n      0x24\n        /* \"#utility.yul\":12708:12709   */\n      0x00\n        /* \"#utility.yul\":12701:12716   */\n      revert\n        /* \"#utility.yul\":12728:12908   */\n    tag_269:\n        /* \"#utility.yul\":12776:12853   */\n      0x4e487b7100000000000000000000000000000000000000000000000000000000\n        /* \"#utility.yul\":12773:12774   */\n      0x00\n        /* \"#utility.yul\":12766:12854   */\n      mstore\n        /* \"#utility.yul\":12873:12877   */\n      0x41\n        /* \"#utility.yul\":12870:12871   */\n      0x04\n        /* \"#utility.yul\":12863:12878   */\n      mstore\n        /* \"#utility.yul\":12897:12901   */\n      0x24\n        /* \"#utility.yul\":12894:12895   */\n      0x00\n        /* \"#utility.yul\":12887:12902   */\n      revert\n        /* \"#utility.yul\":12914:13031   */\n    tag_166:\n        /* \"#utility.yul\":13023:13024   */\n      0x00\n        /* \"#utility.yul\":13020:13021   */\n      dup1\n        /* \"#utility.yul\":13013:13025   */\n      revert\n        /* \"#utility.yul\":13037:13154   */\n    tag_147:\n        /* \"#utility.yul\":13146:13147   */\n      0x00\n        /* \"#utility.yul\":13143:13144   */\n      dup1\n        /* \"#utility.yul\":13136:13148   */\n      revert\n        /* \"#utility.yul\":13160:13277   */\n    tag_187:\n        /* \"#utility.yul\":13269:13270   */\n      0x00\n        /* \"#utility.yul\":13266:13267   */\n      dup1\n        /* \"#utility.yul\":13259:13271   */\n      revert\n        /* \"#utility.yul\":13283:13400   */\n    tag_175:\n        /* \"#utility.yul\":13392:13393   */\n      0x00\n        /* \"#utility.yul\":13389:13390   */\n      dup1\n        /* \"#utility.yul\":13382:13394   */\n      revert\n        /* \"#utility.yul\":13406:13508   */\n    tag_216:\n        /* \"#utility.yul\":13447:13453   */\n      0x00\n        /* \"#utility.yul\":13498:13500   */\n      0x1f\n        /* \"#utility.yul\":13494:13501   */\n      not\n        /* \"#utility.yul\":13489:13491   */\n      0x1f\n        /* \"#utility.yul\":13482:13487   */\n      dup4\n        /* \"#utility.yul\":13478:13492   */\n      add\n        /* \"#utility.yul\":13474:13502   */\n      and\n        /* \"#utility.yul\":13464:13502   */\n      swap1\n      pop\n        /* \"#utility.yul\":13406:13508   */\n      swap2\n      swap1\n      pop\n      jump\t// out\n        /* \"#utility.yul\":13514:13694   */\n    tag_221:\n        /* \"#utility.yul\":13654:13686   */\n      0x6f6e6c79206f776e65722069732061626c6520746f20616464206b6964730000\n        /* \"#utility.yul\":13650:13651   */\n      0x00\n        /* \"#utility.yul\":13642:13648   */\n      dup3\n        /* \"#utility.yul\":13638:13652   */\n      add\n        /* \"#utility.yul\":13631:13687   */\n      mstore\n        /* \"#utility.yul\":13514:13694   */\n      pop\n      jump\t// out\n        /* \"#utility.yul\":13700:13928   */\n    tag_226:\n        /* \"#utility.yul\":13840:13874   */\n      0x796f7520617265206e6f742061626c6520746f20776974686472617720617420\n        /* \"#utility.yul\":13836:13837   */\n      0x00\n        /* \"#utility.yul\":13828:13834   */\n      dup3\n        /* \"#utility.yul\":13824:13838   */\n      add\n        /* \"#utility.yul\":13817:13875   */\n      mstore\n        /* \"#utility.yul\":13909:13920   */\n      0x746869732074696d650000000000000000000000000000000000000000000000\n        /* \"#utility.yul\":13904:13906   */\n      0x20\n        /* \"#utility.yul\":13896:13902   */\n      dup3\n        /* \"#utility.yul\":13892:13907   */\n      add\n        /* \"#utility.yul\":13885:13921   */\n      mstore\n        /* \"#utility.yul\":13700:13928   */\n      pop\n      jump\t// out\n        /* \"#utility.yul\":13934:14115   */\n    tag_231:\n        /* \"#utility.yul\":14074:14107   */\n      0x596f75206d75737420626520746865206b696420746f20776974686472617700\n        /* \"#utility.yul\":14070:14071   */\n      0x00\n        /* \"#utility.yul\":14062:14068   */\n      dup3\n        /* \"#utility.yul\":14058:14072   */\n      add\n        /* \"#utility.yul\":14051:14108   */\n      mstore\n        /* \"#utility.yul\":13934:14115   */\n      pop\n      jump\t// out\n        /* \"#utility.yul\":14121:14294   */\n    tag_236:\n        /* \"#utility.yul\":14261:14286   */\n      0x556e61626c6520746f2077697468647261772079657421000000000000000000\n        /* \"#utility.yul\":14257:14258   */\n      0x00\n        /* \"#utility.yul\":14249:14255   */\n      dup3\n        /* \"#utility.yul\":14245:14259   */\n      add\n        /* \"#utility.yul\":14238:14287   */\n      mstore\n        /* \"#utility.yul\":14121:14294   */\n      pop\n      jump\t// out\n        /* \"#utility.yul\":14300:14422   */\n    tag_153:\n        /* \"#utility.yul\":14373:14397   */\n      tag_321\n        /* \"#utility.yul\":14391:14396   */\n      dup2\n        /* \"#utility.yul\":14373:14397   */\n      tag_279\n      jump\t// in\n    tag_321:\n        /* \"#utility.yul\":14366:14371   */\n      dup2\n        /* \"#utility.yul\":14363:14398   */\n      eq\n        /* \"#utility.yul\":14353:14416   */\n      tag_322\n      jumpi\n        /* \"#utility.yul\":14412:14413   */\n      0x00\n        /* \"#utility.yul\":14409:14410   */\n      dup1\n        /* \"#utility.yul\":14402:14414   */\n      revert\n        /* \"#utility.yul\":14353:14416   */\n    tag_322:\n        /* \"#utility.yul\":14300:14422   */\n      pop\n      jump\t// out\n        /* \"#utility.yul\":14428:14566   */\n    tag_157:\n        /* \"#utility.yul\":14509:14541   */\n      tag_324\n        /* \"#utility.yul\":14535:14540   */\n      dup2\n        /* \"#utility.yul\":14509:14541   */\n      tag_202\n      jump\t// in\n    tag_324:\n        /* \"#utility.yul\":14502:14507   */\n      dup2\n        /* \"#utility.yul\":14499:14542   */\n      eq\n        /* \"#utility.yul\":14489:14560   */\n      tag_325\n      jumpi\n        /* \"#utility.yul\":14556:14557   */\n      0x00\n        /* \"#utility.yul\":14553:14554   */\n      dup1\n        /* \"#utility.yul\":14546:14558   */\n      revert\n        /* \"#utility.yul\":14489:14560   */\n    tag_325:\n        /* \"#utility.yul\":14428:14566   */\n      pop\n      jump\t// out\n        /* \"#utility.yul\":14572:14688   */\n    tag_161:\n        /* \"#utility.yul\":14642:14663   */\n      tag_327\n        /* \"#utility.yul\":14657:14662   */\n      dup2\n        /* \"#utility.yul\":14642:14663   */\n      tag_206\n      jump\t// in\n    tag_327:\n        /* \"#utility.yul\":14635:14640   */\n      dup2\n        /* \"#utility.yul\":14632:14664   */\n      eq\n        /* \"#utility.yul\":14622:14682   */\n      tag_328\n      jumpi\n        /* \"#utility.yul\":14678:14679   */\n      0x00\n        /* \"#utility.yul\":14675:14676   */\n      dup1\n        /* \"#utility.yul\":14668:14680   */\n      revert\n        /* \"#utility.yul\":14622:14682   */\n    tag_328:\n        /* \"#utility.yul\":14572:14688   */\n      pop\n      jump\t// out\n        /* \"#utility.yul\":14694:14816   */\n    tag_171:\n        /* \"#utility.yul\":14767:14791   */\n      tag_330\n        /* \"#utility.yul\":14785:14790   */\n      dup2\n        /* \"#utility.yul\":14767:14791   */\n      tag_240\n      jump\t// in\n    tag_330:\n        /* \"#utility.yul\":14760:14765   */\n      dup2\n        /* \"#utility.yul\":14757:14792   */\n      eq\n        /* \"#utility.yul\":14747:14810   */\n      tag_331\n      jumpi\n        /* \"#utility.yul\":14806:14807   */\n      0x00\n        /* \"#utility.yul\":14803:14804   */\n      dup1\n        /* \"#utility.yul\":14796:14808   */\n      revert\n        /* \"#utility.yul\":14747:14810   */\n    tag_331:\n        /* \"#utility.yul\":14694:14816   */\n      pop\n      jump\t// out\n\n    auxdata: 0xa2646970667358221220e05598b750c4aee0aff4efd0ba9ddf074bf30a0b1526fb9d1bc7d26b83dfc3af64736f6c63430008070033\n}\n",
				"bytecode": {
					"linkReferences": {},
					"object": "608060405234801561001057600080fd5b50336000806101000a81548173ffffffffffffffffffffffffffffffffffffffff021916908373ffffffffffffffffffffffffffffffffffffffff16021790555061124a806100606000396000f3fe6080604052600436106100555760003560e01c806331d575c51461005a57806351cff8d914610083578063722713f71461009f5780637285fd3a146100ca578063daa6b8691461010c578063f340fa0114610149575b600080fd5b34801561006657600080fd5b50610081600480360381019061007c9190610af4565b610165565b005b61009d60048036038101906100989190610ac7565b610322565b005b3480156100ab57600080fd5b506100b4610510565b6040516100c19190610de2565b60405180910390f35b3480156100d657600080fd5b506100f160048036038101906100ec9190610bb9565b610518565b60405161010396959493929190610cd8565b60405180910390f35b34801561011857600080fd5b50610133600480360381019061012e9190610a9a565b6106a1565b6040516101409190610d47565b60405180910390f35b610163600480360381019061015e9190610a9a565b610795565b005b60008054906101000a900473ffffffffffffffffffffffffffffffffffffffff1673ffffffffffffffffffffffffffffffffffffffff163373ffffffffffffffffffffffffffffffffffffffff16146101f3576040517f08c379a00000000000000000000000000000000000000000000000000000000081526004016101ea90610d62565b60405180910390fd5b60016040518060c001604052808873ffffffffffffffffffffffffffffffffffffffff168152602001878152602001868152602001858152602001848152602001831515815250908060018154018082558091505060019003906000526020600020906006020160009091909190915060008201518160000160006101000a81548173ffffffffffffffffffffffffffffffffffffffff021916908373ffffffffffffffffffffffffffffffffffffffff16021790555060208201518160010190805190602001906102c6929190610933565b5060408201518160020190805190602001906102e3929190610933565b50606082015181600301556080820151816004015560a08201518160050160006101000a81548160ff0219169083151502179055505050505050505050565b600061032d826107a1565b9050600181815481106103435761034261106b565b5b906000526020600020906006020160000160009054906101000a900473ffffffffffffffffffffffffffffffffffffffff1673ffffffffffffffffffffffffffffffffffffffff163373ffffffffffffffffffffffffffffffffffffffff16146103e2576040517f08c379a00000000000000000000000000000000000000000000000000000000081526004016103d990610da2565b60405180910390fd5b60011515600182815481106103fa576103f961106b565b5b906000526020600020906006020160050160009054906101000a900460ff1615151461045b576040517f08c379a000000000000000000000000000000000000000000000000000000000815260040161045290610d82565b60405180910390fd5b6001818154811061046f5761046e61106b565b5b906000526020600020906006020160000160009054906101000a900473ffffffffffffffffffffffffffffffffffffffff1673ffffffffffffffffffffffffffffffffffffffff166108fc600183815481106104ce576104cd61106b565b5b9060005260206000209060060201600401549081150290604051600060405180830381858888f1935050505015801561050b573d6000803e3d6000fd5b505050565b600047905090565b6001818154811061052857600080fd5b90600052602060002090600602016000915090508060000160009054906101000a900473ffffffffffffffffffffffffffffffffffffffff169080600101805461057190610f61565b80601f016020809104026020016040519081016040528092919081815260200182805461059d90610f61565b80156105ea5780601f106105bf576101008083540402835291602001916105ea565b820191906000526020600020905b8154815290600101906020018083116105cd57829003601f168201915b5050505050908060020180546105ff90610f61565b80601f016020809104026020016040519081016040528092919081815260200182805461062b90610f61565b80156106785780601f1061064d57610100808354040283529160200191610678565b820191906000526020600020905b81548152906001019060200180831161065b57829003601f168201915b5050505050908060030154908060040154908060050160009054906101000a900460ff16905086565b6000806106ad836107a1565b9050600181815481106106c3576106c261106b565b5b9060005260206000209060060201600301544211610716576040517f08c379a000000000000000000000000000000000000000000000000000000000815260040161070d90610dc2565b60405180910390fd5b6001818154811061072a5761072961106b565b5b90600052602060002090600602016003015442111561078a5760018082815481106107585761075761106b565b5b906000526020600020906006020160050160006101000a81548160ff0219169083151502179055506001915050610790565b60009150505b919050565b61079e81610856565b50565b600080600090505b60018054905081101561084b578273ffffffffffffffffffffffffffffffffffffffff16600182815481106107e1576107e061106b565b5b906000526020600020906006020160000160009054906101000a900473ffffffffffffffffffffffffffffffffffffffff1673ffffffffffffffffffffffffffffffffffffffff1614156108385780915050610851565b808061084390610fc4565b9150506107a9565b50603290505b919050565b60005b60018054905081101561092f578173ffffffffffffffffffffffffffffffffffffffff16600182815481106108915761089061106b565b5b906000526020600020906006020160000160009054906101000a900473ffffffffffffffffffffffffffffffffffffffff1673ffffffffffffffffffffffffffffffffffffffff16141561091c5734600182815481106108f4576108f361106b565b5b906000526020600020906006020160040160008282546109149190610e6f565b925050819055505b808061092790610fc4565b915050610859565b5050565b82805461093f90610f61565b90600052602060002090601f01602090048101928261096157600085556109a8565b82601f1061097a57805160ff19168380011785556109a8565b828001600101855582156109a8579182015b828111156109a757825182559160200191906001019061098c565b5b5090506109b591906109b9565b5090565b5b808211156109d25760008160009055506001016109ba565b5090565b60006109e96109e484610e22565b610dfd565b905082815260208101848484011115610a0557610a046110ce565b5b610a10848285610f1f565b509392505050565b600081359050610a27816111b8565b92915050565b600081359050610a3c816111cf565b92915050565b600081359050610a51816111e6565b92915050565b600082601f830112610a6c57610a6b6110c9565b5b8135610a7c8482602086016109d6565b91505092915050565b600081359050610a94816111fd565b92915050565b600060208284031215610ab057610aaf6110d8565b5b6000610abe84828501610a18565b91505092915050565b600060208284031215610add57610adc6110d8565b5b6000610aeb84828501610a2d565b91505092915050565b60008060008060008060c08789031215610b1157610b106110d8565b5b6000610b1f89828a01610a2d565b965050602087013567ffffffffffffffff811115610b4057610b3f6110d3565b5b610b4c89828a01610a57565b955050604087013567ffffffffffffffff811115610b6d57610b6c6110d3565b5b610b7989828a01610a57565b9450506060610b8a89828a01610a85565b9350506080610b9b89828a01610a85565b92505060a0610bac89828a01610a42565b9150509295509295509295565b600060208284031215610bcf57610bce6110d8565b5b6000610bdd84828501610a85565b91505092915050565b610bef81610ed7565b82525050565b610bfe81610ee9565b82525050565b6000610c0f82610e53565b610c198185610e5e565b9350610c29818560208601610f2e565b610c32816110dd565b840191505092915050565b6000610c4a601e83610e5e565b9150610c55826110ee565b602082019050919050565b6000610c6d602983610e5e565b9150610c7882611117565b604082019050919050565b6000610c90601f83610e5e565b9150610c9b82611166565b602082019050919050565b6000610cb3601783610e5e565b9150610cbe8261118f565b602082019050919050565b610cd281610f15565b82525050565b600060c082019050610ced6000830189610be6565b8181036020830152610cff8188610c04565b90508181036040830152610d138187610c04565b9050610d226060830186610cc9565b610d2f6080830185610cc9565b610d3c60a0830184610bf5565b979650505050505050565b6000602082019050610d5c6000830184610bf5565b92915050565b60006020820190508181036000830152610d7b81610c3d565b9050919050565b60006020820190508181036000830152610d9b81610c60565b9050919050565b60006020820190508181036000830152610dbb81610c83565b9050919050565b60006020820190508181036000830152610ddb81610ca6565b9050919050565b6000602082019050610df76000830184610cc9565b92915050565b6000610e07610e18565b9050610e138282610f93565b919050565b6000604051905090565b600067ffffffffffffffff821115610e3d57610e3c61109a565b5b610e46826110dd565b9050602081019050919050565b600081519050919050565b600082825260208201905092915050565b6000610e7a82610f15565b9150610e8583610f15565b9250827fffffffffffffffffffffffffffffffffffffffffffffffffffffffffffffffff03821115610eba57610eb961100d565b5b828201905092915050565b6000610ed082610ef5565b9050919050565b6000610ee282610ef5565b9050919050565b60008115159050919050565b600073ffffffffffffffffffffffffffffffffffffffff82169050919050565b6000819050919050565b82818337600083830152505050565b60005b83811015610f4c578082015181840152602081019050610f31565b83811115610f5b576000848401525b50505050565b60006002820490506001821680610f7957607f821691505b60208210811415610f8d57610f8c61103c565b5b50919050565b610f9c826110dd565b810181811067ffffffffffffffff82111715610fbb57610fba61109a565b5b80604052505050565b6000610fcf82610f15565b91507fffffffffffffffffffffffffffffffffffffffffffffffffffffffffffffffff8214156110025761100161100d565b5b600182019050919050565b7f4e487b7100000000000000000000000000000000000000000000000000000000600052601160045260246000fd5b7f4e487b7100000000000000000000000000000000000000000000000000000000600052602260045260246000fd5b7f4e487b7100000000000000000000000000000000000000000000000000000000600052603260045260246000fd5b7f4e487b7100000000000000000000000000000000000000000000000000000000600052604160045260246000fd5b600080fd5b600080fd5b600080fd5b600080fd5b6000601f19601f8301169050919050565b7f6f6e6c79206f776e65722069732061626c6520746f20616464206b6964730000600082015250565b7f796f7520617265206e6f742061626c6520746f2077697468647261772061742060008201527f746869732074696d650000000000000000000000000000000000000000000000602082015250565b7f596f75206d75737420626520746865206b696420746f20776974686472617700600082015250565b7f556e61626c6520746f2077697468647261772079657421000000000000000000600082015250565b6111c181610ec5565b81146111cc57600080fd5b50565b6111d881610ed7565b81146111e357600080fd5b50565b6111ef81610ee9565b81146111fa57600080fd5b50565b61120681610f15565b811461121157600080fd5b5056fea2646970667358221220e05598b750c4aee0aff4efd0ba9ddf074bf30a0b1526fb9d1bc7d26b83dfc3af64736f6c63430008070033",
					"opcodes": "PUSH1 0x80 PUSH1 0x40 MSTORE CALLVALUE DUP1 ISZERO PUSH2 0x10 JUMPI PUSH1 0x0 DUP1 REVERT JUMPDEST POP CALLER PUSH1 0x0 DUP1 PUSH2 0x100 EXP DUP2 SLOAD DUP2 PUSH20 0xFFFFFFFFFFFFFFFFFFFFFFFFFFFFFFFFFFFFFFFF MUL NOT AND SWAP1 DUP4 PUSH20 0xFFFFFFFFFFFFFFFFFFFFFFFFFFFFFFFFFFFFFFFF AND MUL OR SWAP1 SSTORE POP PUSH2 0x124A DUP1 PUSH2 0x60 PUSH1 0x0 CODECOPY PUSH1 0x0 RETURN INVALID PUSH1 0x80 PUSH1 0x40 MSTORE PUSH1 0x4 CALLDATASIZE LT PUSH2 0x55 JUMPI PUSH1 0x0 CALLDATALOAD PUSH1 0xE0 SHR DUP1 PUSH4 0x31D575C5 EQ PUSH2 0x5A JUMPI DUP1 PUSH4 0x51CFF8D9 EQ PUSH2 0x83 JUMPI DUP1 PUSH4 0x722713F7 EQ PUSH2 0x9F JUMPI DUP1 PUSH4 0x7285FD3A EQ PUSH2 0xCA JUMPI DUP1 PUSH4 0xDAA6B869 EQ PUSH2 0x10C JUMPI DUP1 PUSH4 0xF340FA01 EQ PUSH2 0x149 JUMPI JUMPDEST PUSH1 0x0 DUP1 REVERT JUMPDEST CALLVALUE DUP1 ISZERO PUSH2 0x66 JUMPI PUSH1 0x0 DUP1 REVERT JUMPDEST POP PUSH2 0x81 PUSH1 0x4 DUP1 CALLDATASIZE SUB DUP2 ADD SWAP1 PUSH2 0x7C SWAP2 SWAP1 PUSH2 0xAF4 JUMP JUMPDEST PUSH2 0x165 JUMP JUMPDEST STOP JUMPDEST PUSH2 0x9D PUSH1 0x4 DUP1 CALLDATASIZE SUB DUP2 ADD SWAP1 PUSH2 0x98 SWAP2 SWAP1 PUSH2 0xAC7 JUMP JUMPDEST PUSH2 0x322 JUMP JUMPDEST STOP JUMPDEST CALLVALUE DUP1 ISZERO PUSH2 0xAB JUMPI PUSH1 0x0 DUP1 REVERT JUMPDEST POP PUSH2 0xB4 PUSH2 0x510 JUMP JUMPDEST PUSH1 0x40 MLOAD PUSH2 0xC1 SWAP2 SWAP1 PUSH2 0xDE2 JUMP JUMPDEST PUSH1 0x40 MLOAD DUP1 SWAP2 SUB SWAP1 RETURN JUMPDEST CALLVALUE DUP1 ISZERO PUSH2 0xD6 JUMPI PUSH1 0x0 DUP1 REVERT JUMPDEST POP PUSH2 0xF1 PUSH1 0x4 DUP1 CALLDATASIZE SUB DUP2 ADD SWAP1 PUSH2 0xEC SWAP2 SWAP1 PUSH2 0xBB9 JUMP JUMPDEST PUSH2 0x518 JUMP JUMPDEST PUSH1 0x40 MLOAD PUSH2 0x103 SWAP7 SWAP6 SWAP5 SWAP4 SWAP3 SWAP2 SWAP1 PUSH2 0xCD8 JUMP JUMPDEST PUSH1 0x40 MLOAD DUP1 SWAP2 SUB SWAP1 RETURN JUMPDEST CALLVALUE DUP1 ISZERO PUSH2 0x118 JUMPI PUSH1 0x0 DUP1 REVERT JUMPDEST POP PUSH2 0x133 PUSH1 0x4 DUP1 CALLDATASIZE SUB DUP2 ADD SWAP1 PUSH2 0x12E SWAP2 SWAP1 PUSH2 0xA9A JUMP JUMPDEST PUSH2 0x6A1 JUMP JUMPDEST PUSH1 0x40 MLOAD PUSH2 0x140 SWAP2 SWAP1 PUSH2 0xD47 JUMP JUMPDEST PUSH1 0x40 MLOAD DUP1 SWAP2 SUB SWAP1 RETURN JUMPDEST PUSH2 0x163 PUSH1 0x4 DUP1 CALLDATASIZE SUB DUP2 ADD SWAP1 PUSH2 0x15E SWAP2 SWAP1 PUSH2 0xA9A JUMP JUMPDEST PUSH2 0x795 JUMP JUMPDEST STOP JUMPDEST PUSH1 0x0 DUP1 SLOAD SWAP1 PUSH2 0x100 EXP SWAP1 DIV PUSH20 0xFFFFFFFFFFFFFFFFFFFFFFFFFFFFFFFFFFFFFFFF AND PUSH20 0xFFFFFFFFFFFFFFFFFFFFFFFFFFFFFFFFFFFFFFFF AND CALLER PUSH20 0xFFFFFFFFFFFFFFFFFFFFFFFFFFFFFFFFFFFFFFFF AND EQ PUSH2 0x1F3 JUMPI PUSH1 0x40 MLOAD PUSH32 0x8C379A000000000000000000000000000000000000000000000000000000000 DUP2 MSTORE PUSH1 0x4 ADD PUSH2 0x1EA SWAP1 PUSH2 0xD62 JUMP JUMPDEST PUSH1 0x40 MLOAD DUP1 SWAP2 SUB SWAP1 REVERT JUMPDEST PUSH1 0x1 PUSH1 0x40 MLOAD DUP1 PUSH1 0xC0 ADD PUSH1 0x40 MSTORE DUP1 DUP9 PUSH20 0xFFFFFFFFFFFFFFFFFFFFFFFFFFFFFFFFFFFFFFFF AND DUP2 MSTORE PUSH1 0x20 ADD DUP8 DUP2 MSTORE PUSH1 0x20 ADD DUP7 DUP2 MSTORE PUSH1 0x20 ADD DUP6 DUP2 MSTORE PUSH1 0x20 ADD DUP5 DUP2 MSTORE PUSH1 0x20 ADD DUP4 ISZERO ISZERO DUP2 MSTORE POP SWAP1 DUP1 PUSH1 0x1 DUP2 SLOAD ADD DUP1 DUP3 SSTORE DUP1 SWAP2 POP POP PUSH1 0x1 SWAP1 SUB SWAP1 PUSH1 0x0 MSTORE PUSH1 0x20 PUSH1 0x0 KECCAK256 SWAP1 PUSH1 0x6 MUL ADD PUSH1 0x0 SWAP1 SWAP2 SWAP1 SWAP2 SWAP1 SWAP2 POP PUSH1 0x0 DUP3 ADD MLOAD DUP2 PUSH1 0x0 ADD PUSH1 0x0 PUSH2 0x100 EXP DUP2 SLOAD DUP2 PUSH20 0xFFFFFFFFFFFFFFFFFFFFFFFFFFFFFFFFFFFFFFFF MUL NOT AND SWAP1 DUP4 PUSH20 0xFFFFFFFFFFFFFFFFFFFFFFFFFFFFFFFFFFFFFFFF AND MUL OR SWAP1 SSTORE POP PUSH1 0x20 DUP3 ADD MLOAD DUP2 PUSH1 0x1 ADD SWAP1 DUP1 MLOAD SWAP1 PUSH1 0x20 ADD SWAP1 PUSH2 0x2C6 SWAP3 SWAP2 SWAP1 PUSH2 0x933 JUMP JUMPDEST POP PUSH1 0x40 DUP3 ADD MLOAD DUP2 PUSH1 0x2 ADD SWAP1 DUP1 MLOAD SWAP1 PUSH1 0x20 ADD SWAP1 PUSH2 0x2E3 SWAP3 SWAP2 SWAP1 PUSH2 0x933 JUMP JUMPDEST POP PUSH1 0x60 DUP3 ADD MLOAD DUP2 PUSH1 0x3 ADD SSTORE PUSH1 0x80 DUP3 ADD MLOAD DUP2 PUSH1 0x4 ADD SSTORE PUSH1 0xA0 DUP3 ADD MLOAD DUP2 PUSH1 0x5 ADD PUSH1 0x0 PUSH2 0x100 EXP DUP2 SLOAD DUP2 PUSH1 0xFF MUL NOT AND SWAP1 DUP4 ISZERO ISZERO MUL OR SWAP1 SSTORE POP POP POP POP POP POP POP POP POP JUMP JUMPDEST PUSH1 0x0 PUSH2 0x32D DUP3 PUSH2 0x7A1 JUMP JUMPDEST SWAP1 POP PUSH1 0x1 DUP2 DUP2 SLOAD DUP2 LT PUSH2 0x343 JUMPI PUSH2 0x342 PUSH2 0x106B JUMP JUMPDEST JUMPDEST SWAP1 PUSH1 0x0 MSTORE PUSH1 0x20 PUSH1 0x0 KECCAK256 SWAP1 PUSH1 0x6 MUL ADD PUSH1 0x0 ADD PUSH1 0x0 SWAP1 SLOAD SWAP1 PUSH2 0x100 EXP SWAP1 DIV PUSH20 0xFFFFFFFFFFFFFFFFFFFFFFFFFFFFFFFFFFFFFFFF AND PUSH20 0xFFFFFFFFFFFFFFFFFFFFFFFFFFFFFFFFFFFFFFFF AND CALLER PUSH20 0xFFFFFFFFFFFFFFFFFFFFFFFFFFFFFFFFFFFFFFFF AND EQ PUSH2 0x3E2 JUMPI PUSH1 0x40 MLOAD PUSH32 0x8C379A000000000000000000000000000000000000000000000000000000000 DUP2 MSTORE PUSH1 0x4 ADD PUSH2 0x3D9 SWAP1 PUSH2 0xDA2 JUMP JUMPDEST PUSH1 0x40 MLOAD DUP1 SWAP2 SUB SWAP1 REVERT JUMPDEST PUSH1 0x1 ISZERO ISZERO PUSH1 0x1 DUP3 DUP2 SLOAD DUP2 LT PUSH2 0x3FA JUMPI PUSH2 0x3F9 PUSH2 0x106B JUMP JUMPDEST JUMPDEST SWAP1 PUSH1 0x0 MSTORE PUSH1 0x20 PUSH1 0x0 KECCAK256 SWAP1 PUSH1 0x6 MUL ADD PUSH1 0x5 ADD PUSH1 0x0 SWAP1 SLOAD SWAP1 PUSH2 0x100 EXP SWAP1 DIV PUSH1 0xFF AND ISZERO ISZERO EQ PUSH2 0x45B JUMPI PUSH1 0x40 MLOAD PUSH32 0x8C379A000000000000000000000000000000000000000000000000000000000 DUP2 MSTORE PUSH1 0x4 ADD PUSH2 0x452 SWAP1 PUSH2 0xD82 JUMP JUMPDEST PUSH1 0x40 MLOAD DUP1 SWAP2 SUB SWAP1 REVERT JUMPDEST PUSH1 0x1 DUP2 DUP2 SLOAD DUP2 LT PUSH2 0x46F JUMPI PUSH2 0x46E PUSH2 0x106B JUMP JUMPDEST JUMPDEST SWAP1 PUSH1 0x0 MSTORE PUSH1 0x20 PUSH1 0x0 KECCAK256 SWAP1 PUSH1 0x6 MUL ADD PUSH1 0x0 ADD PUSH1 0x0 SWAP1 SLOAD SWAP1 PUSH2 0x100 EXP SWAP1 DIV PUSH20 0xFFFFFFFFFFFFFFFFFFFFFFFFFFFFFFFFFFFFFFFF AND PUSH20 0xFFFFFFFFFFFFFFFFFFFFFFFFFFFFFFFFFFFFFFFF AND PUSH2 0x8FC PUSH1 0x1 DUP4 DUP2 SLOAD DUP2 LT PUSH2 0x4CE JUMPI PUSH2 0x4CD PUSH2 0x106B JUMP JUMPDEST JUMPDEST SWAP1 PUSH1 0x0 MSTORE PUSH1 0x20 PUSH1 0x0 KECCAK256 SWAP1 PUSH1 0x6 MUL ADD PUSH1 0x4 ADD SLOAD SWAP1 DUP2 ISZERO MUL SWAP1 PUSH1 0x40 MLOAD PUSH1 0x0 PUSH1 0x40 MLOAD DUP1 DUP4 SUB DUP2 DUP6 DUP9 DUP9 CALL SWAP4 POP POP POP POP ISZERO DUP1 ISZERO PUSH2 0x50B JUMPI RETURNDATASIZE PUSH1 0x0 DUP1 RETURNDATACOPY RETURNDATASIZE PUSH1 0x0 REVERT JUMPDEST POP POP POP JUMP JUMPDEST PUSH1 0x0 SELFBALANCE SWAP1 POP SWAP1 JUMP JUMPDEST PUSH1 0x1 DUP2 DUP2 SLOAD DUP2 LT PUSH2 0x528 JUMPI PUSH1 0x0 DUP1 REVERT JUMPDEST SWAP1 PUSH1 0x0 MSTORE PUSH1 0x20 PUSH1 0x0 KECCAK256 SWAP1 PUSH1 0x6 MUL ADD PUSH1 0x0 SWAP2 POP SWAP1 POP DUP1 PUSH1 0x0 ADD PUSH1 0x0 SWAP1 SLOAD SWAP1 PUSH2 0x100 EXP SWAP1 DIV PUSH20 0xFFFFFFFFFFFFFFFFFFFFFFFFFFFFFFFFFFFFFFFF AND SWAP1 DUP1 PUSH1 0x1 ADD DUP1 SLOAD PUSH2 0x571 SWAP1 PUSH2 0xF61 JUMP JUMPDEST DUP1 PUSH1 0x1F ADD PUSH1 0x20 DUP1 SWAP2 DIV MUL PUSH1 0x20 ADD PUSH1 0x40 MLOAD SWAP1 DUP2 ADD PUSH1 0x40 MSTORE DUP1 SWAP3 SWAP2 SWAP1 DUP2 DUP2 MSTORE PUSH1 0x20 ADD DUP3 DUP1 SLOAD PUSH2 0x59D SWAP1 PUSH2 0xF61 JUMP JUMPDEST DUP1 ISZERO PUSH2 0x5EA JUMPI DUP1 PUSH1 0x1F LT PUSH2 0x5BF JUMPI PUSH2 0x100 DUP1 DUP4 SLOAD DIV MUL DUP4 MSTORE SWAP2 PUSH1 0x20 ADD SWAP2 PUSH2 0x5EA JUMP JUMPDEST DUP3 ADD SWAP2 SWAP1 PUSH1 0x0 MSTORE PUSH1 0x20 PUSH1 0x0 KECCAK256 SWAP1 JUMPDEST DUP2 SLOAD DUP2 MSTORE SWAP1 PUSH1 0x1 ADD SWAP1 PUSH1 0x20 ADD DUP1 DUP4 GT PUSH2 0x5CD JUMPI DUP3 SWAP1 SUB PUSH1 0x1F AND DUP3 ADD SWAP2 JUMPDEST POP POP POP POP POP SWAP1 DUP1 PUSH1 0x2 ADD DUP1 SLOAD PUSH2 0x5FF SWAP1 PUSH2 0xF61 JUMP JUMPDEST DUP1 PUSH1 0x1F ADD PUSH1 0x20 DUP1 SWAP2 DIV MUL PUSH1 0x20 ADD PUSH1 0x40 MLOAD SWAP1 DUP2 ADD PUSH1 0x40 MSTORE DUP1 SWAP3 SWAP2 SWAP1 DUP2 DUP2 MSTORE PUSH1 0x20 ADD DUP3 DUP1 SLOAD PUSH2 0x62B SWAP1 PUSH2 0xF61 JUMP JUMPDEST DUP1 ISZERO PUSH2 0x678 JUMPI DUP1 PUSH1 0x1F LT PUSH2 0x64D JUMPI PUSH2 0x100 DUP1 DUP4 SLOAD DIV MUL DUP4 MSTORE SWAP2 PUSH1 0x20 ADD SWAP2 PUSH2 0x678 JUMP JUMPDEST DUP3 ADD SWAP2 SWAP1 PUSH1 0x0 MSTORE PUSH1 0x20 PUSH1 0x0 KECCAK256 SWAP1 JUMPDEST DUP2 SLOAD DUP2 MSTORE SWAP1 PUSH1 0x1 ADD SWAP1 PUSH1 0x20 ADD DUP1 DUP4 GT PUSH2 0x65B JUMPI DUP3 SWAP1 SUB PUSH1 0x1F AND DUP3 ADD SWAP2 JUMPDEST POP POP POP POP POP SWAP1 DUP1 PUSH1 0x3 ADD SLOAD SWAP1 DUP1 PUSH1 0x4 ADD SLOAD SWAP1 DUP1 PUSH1 0x5 ADD PUSH1 0x0 SWAP1 SLOAD SWAP1 PUSH2 0x100 EXP SWAP1 DIV PUSH1 0xFF AND SWAP1 POP DUP7 JUMP JUMPDEST PUSH1 0x0 DUP1 PUSH2 0x6AD DUP4 PUSH2 0x7A1 JUMP JUMPDEST SWAP1 POP PUSH1 0x1 DUP2 DUP2 SLOAD DUP2 LT PUSH2 0x6C3 JUMPI PUSH2 0x6C2 PUSH2 0x106B JUMP JUMPDEST JUMPDEST SWAP1 PUSH1 0x0 MSTORE PUSH1 0x20 PUSH1 0x0 KECCAK256 SWAP1 PUSH1 0x6 MUL ADD PUSH1 0x3 ADD SLOAD TIMESTAMP GT PUSH2 0x716 JUMPI PUSH1 0x40 MLOAD PUSH32 0x8C379A000000000000000000000000000000000000000000000000000000000 DUP2 MSTORE PUSH1 0x4 ADD PUSH2 0x70D SWAP1 PUSH2 0xDC2 JUMP JUMPDEST PUSH1 0x40 MLOAD DUP1 SWAP2 SUB SWAP1 REVERT JUMPDEST PUSH1 0x1 DUP2 DUP2 SLOAD DUP2 LT PUSH2 0x72A JUMPI PUSH2 0x729 PUSH2 0x106B JUMP JUMPDEST JUMPDEST SWAP1 PUSH1 0x0 MSTORE PUSH1 0x20 PUSH1 0x0 KECCAK256 SWAP1 PUSH1 0x6 MUL ADD PUSH1 0x3 ADD SLOAD TIMESTAMP GT ISZERO PUSH2 0x78A JUMPI PUSH1 0x1 DUP1 DUP3 DUP2 SLOAD DUP2 LT PUSH2 0x758 JUMPI PUSH2 0x757 PUSH2 0x106B JUMP JUMPDEST JUMPDEST SWAP1 PUSH1 0x0 MSTORE PUSH1 0x20 PUSH1 0x0 KECCAK256 SWAP1 PUSH1 0x6 MUL ADD PUSH1 0x5 ADD PUSH1 0x0 PUSH2 0x100 EXP DUP2 SLOAD DUP2 PUSH1 0xFF MUL NOT AND SWAP1 DUP4 ISZERO ISZERO MUL OR SWAP1 SSTORE POP PUSH1 0x1 SWAP2 POP POP PUSH2 0x790 JUMP JUMPDEST PUSH1 0x0 SWAP2 POP POP JUMPDEST SWAP2 SWAP1 POP JUMP JUMPDEST PUSH2 0x79E DUP2 PUSH2 0x856 JUMP JUMPDEST POP JUMP JUMPDEST PUSH1 0x0 DUP1 PUSH1 0x0 SWAP1 POP JUMPDEST PUSH1 0x1 DUP1 SLOAD SWAP1 POP DUP2 LT ISZERO PUSH2 0x84B JUMPI DUP3 PUSH20 0xFFFFFFFFFFFFFFFFFFFFFFFFFFFFFFFFFFFFFFFF AND PUSH1 0x1 DUP3 DUP2 SLOAD DUP2 LT PUSH2 0x7E1 JUMPI PUSH2 0x7E0 PUSH2 0x106B JUMP JUMPDEST JUMPDEST SWAP1 PUSH1 0x0 MSTORE PUSH1 0x20 PUSH1 0x0 KECCAK256 SWAP1 PUSH1 0x6 MUL ADD PUSH1 0x0 ADD PUSH1 0x0 SWAP1 SLOAD SWAP1 PUSH2 0x100 EXP SWAP1 DIV PUSH20 0xFFFFFFFFFFFFFFFFFFFFFFFFFFFFFFFFFFFFFFFF AND PUSH20 0xFFFFFFFFFFFFFFFFFFFFFFFFFFFFFFFFFFFFFFFF AND EQ ISZERO PUSH2 0x838 JUMPI DUP1 SWAP2 POP POP PUSH2 0x851 JUMP JUMPDEST DUP1 DUP1 PUSH2 0x843 SWAP1 PUSH2 0xFC4 JUMP JUMPDEST SWAP2 POP POP PUSH2 0x7A9 JUMP JUMPDEST POP PUSH1 0x32 SWAP1 POP JUMPDEST SWAP2 SWAP1 POP JUMP JUMPDEST PUSH1 0x0 JUMPDEST PUSH1 0x1 DUP1 SLOAD SWAP1 POP DUP2 LT ISZERO PUSH2 0x92F JUMPI DUP2 PUSH20 0xFFFFFFFFFFFFFFFFFFFFFFFFFFFFFFFFFFFFFFFF AND PUSH1 0x1 DUP3 DUP2 SLOAD DUP2 LT PUSH2 0x891 JUMPI PUSH2 0x890 PUSH2 0x106B JUMP JUMPDEST JUMPDEST SWAP1 PUSH1 0x0 MSTORE PUSH1 0x20 PUSH1 0x0 KECCAK256 SWAP1 PUSH1 0x6 MUL ADD PUSH1 0x0 ADD PUSH1 0x0 SWAP1 SLOAD SWAP1 PUSH2 0x100 EXP SWAP1 DIV PUSH20 0xFFFFFFFFFFFFFFFFFFFFFFFFFFFFFFFFFFFFFFFF AND PUSH20 0xFFFFFFFFFFFFFFFFFFFFFFFFFFFFFFFFFFFFFFFF AND EQ ISZERO PUSH2 0x91C JUMPI CALLVALUE PUSH1 0x1 DUP3 DUP2 SLOAD DUP2 LT PUSH2 0x8F4 JUMPI PUSH2 0x8F3 PUSH2 0x106B JUMP JUMPDEST JUMPDEST SWAP1 PUSH1 0x0 MSTORE PUSH1 0x20 PUSH1 0x0 KECCAK256 SWAP1 PUSH1 0x6 MUL ADD PUSH1 0x4 ADD PUSH1 0x0 DUP3 DUP3 SLOAD PUSH2 0x914 SWAP2 SWAP1 PUSH2 0xE6F JUMP JUMPDEST SWAP3 POP POP DUP2 SWAP1 SSTORE POP JUMPDEST DUP1 DUP1 PUSH2 0x927 SWAP1 PUSH2 0xFC4 JUMP JUMPDEST SWAP2 POP POP PUSH2 0x859 JUMP JUMPDEST POP POP JUMP JUMPDEST DUP3 DUP1 SLOAD PUSH2 0x93F SWAP1 PUSH2 0xF61 JUMP JUMPDEST SWAP1 PUSH1 0x0 MSTORE PUSH1 0x20 PUSH1 0x0 KECCAK256 SWAP1 PUSH1 0x1F ADD PUSH1 0x20 SWAP1 DIV DUP2 ADD SWAP3 DUP3 PUSH2 0x961 JUMPI PUSH1 0x0 DUP6 SSTORE PUSH2 0x9A8 JUMP JUMPDEST DUP3 PUSH1 0x1F LT PUSH2 0x97A JUMPI DUP1 MLOAD PUSH1 0xFF NOT AND DUP4 DUP1 ADD OR DUP6 SSTORE PUSH2 0x9A8 JUMP JUMPDEST DUP3 DUP1 ADD PUSH1 0x1 ADD DUP6 SSTORE DUP3 ISZERO PUSH2 0x9A8 JUMPI SWAP2 DUP3 ADD JUMPDEST DUP3 DUP2 GT ISZERO PUSH2 0x9A7 JUMPI DUP3 MLOAD DUP3 SSTORE SWAP2 PUSH1 0x20 ADD SWAP2 SWAP1 PUSH1 0x1 ADD SWAP1 PUSH2 0x98C JUMP JUMPDEST JUMPDEST POP SWAP1 POP PUSH2 0x9B5 SWAP2 SWAP1 PUSH2 0x9B9 JUMP JUMPDEST POP SWAP1 JUMP JUMPDEST JUMPDEST DUP1 DUP3 GT ISZERO PUSH2 0x9D2 JUMPI PUSH1 0x0 DUP2 PUSH1 0x0 SWAP1 SSTORE POP PUSH1 0x1 ADD PUSH2 0x9BA JUMP JUMPDEST POP SWAP1 JUMP JUMPDEST PUSH1 0x0 PUSH2 0x9E9 PUSH2 0x9E4 DUP5 PUSH2 0xE22 JUMP JUMPDEST PUSH2 0xDFD JUMP JUMPDEST SWAP1 POP DUP3 DUP2 MSTORE PUSH1 0x20 DUP2 ADD DUP5 DUP5 DUP5 ADD GT ISZERO PUSH2 0xA05 JUMPI PUSH2 0xA04 PUSH2 0x10CE JUMP JUMPDEST JUMPDEST PUSH2 0xA10 DUP5 DUP3 DUP6 PUSH2 0xF1F JUMP JUMPDEST POP SWAP4 SWAP3 POP POP POP JUMP JUMPDEST PUSH1 0x0 DUP2 CALLDATALOAD SWAP1 POP PUSH2 0xA27 DUP2 PUSH2 0x11B8 JUMP JUMPDEST SWAP3 SWAP2 POP POP JUMP JUMPDEST PUSH1 0x0 DUP2 CALLDATALOAD SWAP1 POP PUSH2 0xA3C DUP2 PUSH2 0x11CF JUMP JUMPDEST SWAP3 SWAP2 POP POP JUMP JUMPDEST PUSH1 0x0 DUP2 CALLDATALOAD SWAP1 POP PUSH2 0xA51 DUP2 PUSH2 0x11E6 JUMP JUMPDEST SWAP3 SWAP2 POP POP JUMP JUMPDEST PUSH1 0x0 DUP3 PUSH1 0x1F DUP4 ADD SLT PUSH2 0xA6C JUMPI PUSH2 0xA6B PUSH2 0x10C9 JUMP JUMPDEST JUMPDEST DUP2 CALLDATALOAD PUSH2 0xA7C DUP5 DUP3 PUSH1 0x20 DUP7 ADD PUSH2 0x9D6 JUMP JUMPDEST SWAP2 POP POP SWAP3 SWAP2 POP POP JUMP JUMPDEST PUSH1 0x0 DUP2 CALLDATALOAD SWAP1 POP PUSH2 0xA94 DUP2 PUSH2 0x11FD JUMP JUMPDEST SWAP3 SWAP2 POP POP JUMP JUMPDEST PUSH1 0x0 PUSH1 0x20 DUP3 DUP5 SUB SLT ISZERO PUSH2 0xAB0 JUMPI PUSH2 0xAAF PUSH2 0x10D8 JUMP JUMPDEST JUMPDEST PUSH1 0x0 PUSH2 0xABE DUP5 DUP3 DUP6 ADD PUSH2 0xA18 JUMP JUMPDEST SWAP2 POP POP SWAP3 SWAP2 POP POP JUMP JUMPDEST PUSH1 0x0 PUSH1 0x20 DUP3 DUP5 SUB SLT ISZERO PUSH2 0xADD JUMPI PUSH2 0xADC PUSH2 0x10D8 JUMP JUMPDEST JUMPDEST PUSH1 0x0 PUSH2 0xAEB DUP5 DUP3 DUP6 ADD PUSH2 0xA2D JUMP JUMPDEST SWAP2 POP POP SWAP3 SWAP2 POP POP JUMP JUMPDEST PUSH1 0x0 DUP1 PUSH1 0x0 DUP1 PUSH1 0x0 DUP1 PUSH1 0xC0 DUP8 DUP10 SUB SLT ISZERO PUSH2 0xB11 JUMPI PUSH2 0xB10 PUSH2 0x10D8 JUMP JUMPDEST JUMPDEST PUSH1 0x0 PUSH2 0xB1F DUP10 DUP3 DUP11 ADD PUSH2 0xA2D JUMP JUMPDEST SWAP7 POP POP PUSH1 0x20 DUP8 ADD CALLDATALOAD PUSH8 0xFFFFFFFFFFFFFFFF DUP2 GT ISZERO PUSH2 0xB40 JUMPI PUSH2 0xB3F PUSH2 0x10D3 JUMP JUMPDEST JUMPDEST PUSH2 0xB4C DUP10 DUP3 DUP11 ADD PUSH2 0xA57 JUMP JUMPDEST SWAP6 POP POP PUSH1 0x40 DUP8 ADD CALLDATALOAD PUSH8 0xFFFFFFFFFFFFFFFF DUP2 GT ISZERO PUSH2 0xB6D JUMPI PUSH2 0xB6C PUSH2 0x10D3 JUMP JUMPDEST JUMPDEST PUSH2 0xB79 DUP10 DUP3 DUP11 ADD PUSH2 0xA57 JUMP JUMPDEST SWAP5 POP POP PUSH1 0x60 PUSH2 0xB8A DUP10 DUP3 DUP11 ADD PUSH2 0xA85 JUMP JUMPDEST SWAP4 POP POP PUSH1 0x80 PUSH2 0xB9B DUP10 DUP3 DUP11 ADD PUSH2 0xA85 JUMP JUMPDEST SWAP3 POP POP PUSH1 0xA0 PUSH2 0xBAC DUP10 DUP3 DUP11 ADD PUSH2 0xA42 JUMP JUMPDEST SWAP2 POP POP SWAP3 SWAP6 POP SWAP3 SWAP6 POP SWAP3 SWAP6 JUMP JUMPDEST PUSH1 0x0 PUSH1 0x20 DUP3 DUP5 SUB SLT ISZERO PUSH2 0xBCF JUMPI PUSH2 0xBCE PUSH2 0x10D8 JUMP JUMPDEST JUMPDEST PUSH1 0x0 PUSH2 0xBDD DUP5 DUP3 DUP6 ADD PUSH2 0xA85 JUMP JUMPDEST SWAP2 POP POP SWAP3 SWAP2 POP POP JUMP JUMPDEST PUSH2 0xBEF DUP2 PUSH2 0xED7 JUMP JUMPDEST DUP3 MSTORE POP POP JUMP JUMPDEST PUSH2 0xBFE DUP2 PUSH2 0xEE9 JUMP JUMPDEST DUP3 MSTORE POP POP JUMP JUMPDEST PUSH1 0x0 PUSH2 0xC0F DUP3 PUSH2 0xE53 JUMP JUMPDEST PUSH2 0xC19 DUP2 DUP6 PUSH2 0xE5E JUMP JUMPDEST SWAP4 POP PUSH2 0xC29 DUP2 DUP6 PUSH1 0x20 DUP7 ADD PUSH2 0xF2E JUMP JUMPDEST PUSH2 0xC32 DUP2 PUSH2 0x10DD JUMP JUMPDEST DUP5 ADD SWAP2 POP POP SWAP3 SWAP2 POP POP JUMP JUMPDEST PUSH1 0x0 PUSH2 0xC4A PUSH1 0x1E DUP4 PUSH2 0xE5E JUMP JUMPDEST SWAP2 POP PUSH2 0xC55 DUP3 PUSH2 0x10EE JUMP JUMPDEST PUSH1 0x20 DUP3 ADD SWAP1 POP SWAP2 SWAP1 POP JUMP JUMPDEST PUSH1 0x0 PUSH2 0xC6D PUSH1 0x29 DUP4 PUSH2 0xE5E JUMP JUMPDEST SWAP2 POP PUSH2 0xC78 DUP3 PUSH2 0x1117 JUMP JUMPDEST PUSH1 0x40 DUP3 ADD SWAP1 POP SWAP2 SWAP1 POP JUMP JUMPDEST PUSH1 0x0 PUSH2 0xC90 PUSH1 0x1F DUP4 PUSH2 0xE5E JUMP JUMPDEST SWAP2 POP PUSH2 0xC9B DUP3 PUSH2 0x1166 JUMP JUMPDEST PUSH1 0x20 DUP3 ADD SWAP1 POP SWAP2 SWAP1 POP JUMP JUMPDEST PUSH1 0x0 PUSH2 0xCB3 PUSH1 0x17 DUP4 PUSH2 0xE5E JUMP JUMPDEST SWAP2 POP PUSH2 0xCBE DUP3 PUSH2 0x118F JUMP JUMPDEST PUSH1 0x20 DUP3 ADD SWAP1 POP SWAP2 SWAP1 POP JUMP JUMPDEST PUSH2 0xCD2 DUP2 PUSH2 0xF15 JUMP JUMPDEST DUP3 MSTORE POP POP JUMP JUMPDEST PUSH1 0x0 PUSH1 0xC0 DUP3 ADD SWAP1 POP PUSH2 0xCED PUSH1 0x0 DUP4 ADD DUP10 PUSH2 0xBE6 JUMP JUMPDEST DUP2 DUP2 SUB PUSH1 0x20 DUP4 ADD MSTORE PUSH2 0xCFF DUP2 DUP9 PUSH2 0xC04 JUMP JUMPDEST SWAP1 POP DUP2 DUP2 SUB PUSH1 0x40 DUP4 ADD MSTORE PUSH2 0xD13 DUP2 DUP8 PUSH2 0xC04 JUMP JUMPDEST SWAP1 POP PUSH2 0xD22 PUSH1 0x60 DUP4 ADD DUP7 PUSH2 0xCC9 JUMP JUMPDEST PUSH2 0xD2F PUSH1 0x80 DUP4 ADD DUP6 PUSH2 0xCC9 JUMP JUMPDEST PUSH2 0xD3C PUSH1 0xA0 DUP4 ADD DUP5 PUSH2 0xBF5 JUMP JUMPDEST SWAP8 SWAP7 POP POP POP POP POP POP POP JUMP JUMPDEST PUSH1 0x0 PUSH1 0x20 DUP3 ADD SWAP1 POP PUSH2 0xD5C PUSH1 0x0 DUP4 ADD DUP5 PUSH2 0xBF5 JUMP JUMPDEST SWAP3 SWAP2 POP POP JUMP JUMPDEST PUSH1 0x0 PUSH1 0x20 DUP3 ADD SWAP1 POP DUP2 DUP2 SUB PUSH1 0x0 DUP4 ADD MSTORE PUSH2 0xD7B DUP2 PUSH2 0xC3D JUMP JUMPDEST SWAP1 POP SWAP2 SWAP1 POP JUMP JUMPDEST PUSH1 0x0 PUSH1 0x20 DUP3 ADD SWAP1 POP DUP2 DUP2 SUB PUSH1 0x0 DUP4 ADD MSTORE PUSH2 0xD9B DUP2 PUSH2 0xC60 JUMP JUMPDEST SWAP1 POP SWAP2 SWAP1 POP JUMP JUMPDEST PUSH1 0x0 PUSH1 0x20 DUP3 ADD SWAP1 POP DUP2 DUP2 SUB PUSH1 0x0 DUP4 ADD MSTORE PUSH2 0xDBB DUP2 PUSH2 0xC83 JUMP JUMPDEST SWAP1 POP SWAP2 SWAP1 POP JUMP JUMPDEST PUSH1 0x0 PUSH1 0x20 DUP3 ADD SWAP1 POP DUP2 DUP2 SUB PUSH1 0x0 DUP4 ADD MSTORE PUSH2 0xDDB DUP2 PUSH2 0xCA6 JUMP JUMPDEST SWAP1 POP SWAP2 SWAP1 POP JUMP JUMPDEST PUSH1 0x0 PUSH1 0x20 DUP3 ADD SWAP1 POP PUSH2 0xDF7 PUSH1 0x0 DUP4 ADD DUP5 PUSH2 0xCC9 JUMP JUMPDEST SWAP3 SWAP2 POP POP JUMP JUMPDEST PUSH1 0x0 PUSH2 0xE07 PUSH2 0xE18 JUMP JUMPDEST SWAP1 POP PUSH2 0xE13 DUP3 DUP3 PUSH2 0xF93 JUMP JUMPDEST SWAP2 SWAP1 POP JUMP JUMPDEST PUSH1 0x0 PUSH1 0x40 MLOAD SWAP1 POP SWAP1 JUMP JUMPDEST PUSH1 0x0 PUSH8 0xFFFFFFFFFFFFFFFF DUP3 GT ISZERO PUSH2 0xE3D JUMPI PUSH2 0xE3C PUSH2 0x109A JUMP JUMPDEST JUMPDEST PUSH2 0xE46 DUP3 PUSH2 0x10DD JUMP JUMPDEST SWAP1 POP PUSH1 0x20 DUP2 ADD SWAP1 POP SWAP2 SWAP1 POP JUMP JUMPDEST PUSH1 0x0 DUP2 MLOAD SWAP1 POP SWAP2 SWAP1 POP JUMP JUMPDEST PUSH1 0x0 DUP3 DUP3 MSTORE PUSH1 0x20 DUP3 ADD SWAP1 POP SWAP3 SWAP2 POP POP JUMP JUMPDEST PUSH1 0x0 PUSH2 0xE7A DUP3 PUSH2 0xF15 JUMP JUMPDEST SWAP2 POP PUSH2 0xE85 DUP4 PUSH2 0xF15 JUMP JUMPDEST SWAP3 POP DUP3 PUSH32 0xFFFFFFFFFFFFFFFFFFFFFFFFFFFFFFFFFFFFFFFFFFFFFFFFFFFFFFFFFFFFFFFF SUB DUP3 GT ISZERO PUSH2 0xEBA JUMPI PUSH2 0xEB9 PUSH2 0x100D JUMP JUMPDEST JUMPDEST DUP3 DUP3 ADD SWAP1 POP SWAP3 SWAP2 POP POP JUMP JUMPDEST PUSH1 0x0 PUSH2 0xED0 DUP3 PUSH2 0xEF5 JUMP JUMPDEST SWAP1 POP SWAP2 SWAP1 POP JUMP JUMPDEST PUSH1 0x0 PUSH2 0xEE2 DUP3 PUSH2 0xEF5 JUMP JUMPDEST SWAP1 POP SWAP2 SWAP1 POP JUMP JUMPDEST PUSH1 0x0 DUP2 ISZERO ISZERO SWAP1 POP SWAP2 SWAP1 POP JUMP JUMPDEST PUSH1 0x0 PUSH20 0xFFFFFFFFFFFFFFFFFFFFFFFFFFFFFFFFFFFFFFFF DUP3 AND SWAP1 POP SWAP2 SWAP1 POP JUMP JUMPDEST PUSH1 0x0 DUP2 SWAP1 POP SWAP2 SWAP1 POP JUMP JUMPDEST DUP3 DUP2 DUP4 CALLDATACOPY PUSH1 0x0 DUP4 DUP4 ADD MSTORE POP POP POP JUMP JUMPDEST PUSH1 0x0 JUMPDEST DUP4 DUP2 LT ISZERO PUSH2 0xF4C JUMPI DUP1 DUP3 ADD MLOAD DUP2 DUP5 ADD MSTORE PUSH1 0x20 DUP2 ADD SWAP1 POP PUSH2 0xF31 JUMP JUMPDEST DUP4 DUP2 GT ISZERO PUSH2 0xF5B JUMPI PUSH1 0x0 DUP5 DUP5 ADD MSTORE JUMPDEST POP POP POP POP JUMP JUMPDEST PUSH1 0x0 PUSH1 0x2 DUP3 DIV SWAP1 POP PUSH1 0x1 DUP3 AND DUP1 PUSH2 0xF79 JUMPI PUSH1 0x7F DUP3 AND SWAP2 POP JUMPDEST PUSH1 0x20 DUP3 LT DUP2 EQ ISZERO PUSH2 0xF8D JUMPI PUSH2 0xF8C PUSH2 0x103C JUMP JUMPDEST JUMPDEST POP SWAP2 SWAP1 POP JUMP JUMPDEST PUSH2 0xF9C DUP3 PUSH2 0x10DD JUMP JUMPDEST DUP2 ADD DUP2 DUP2 LT PUSH8 0xFFFFFFFFFFFFFFFF DUP3 GT OR ISZERO PUSH2 0xFBB JUMPI PUSH2 0xFBA PUSH2 0x109A JUMP JUMPDEST JUMPDEST DUP1 PUSH1 0x40 MSTORE POP POP POP JUMP JUMPDEST PUSH1 0x0 PUSH2 0xFCF DUP3 PUSH2 0xF15 JUMP JUMPDEST SWAP2 POP PUSH32 0xFFFFFFFFFFFFFFFFFFFFFFFFFFFFFFFFFFFFFFFFFFFFFFFFFFFFFFFFFFFFFFFF DUP3 EQ ISZERO PUSH2 0x1002 JUMPI PUSH2 0x1001 PUSH2 0x100D JUMP JUMPDEST JUMPDEST PUSH1 0x1 DUP3 ADD SWAP1 POP SWAP2 SWAP1 POP JUMP JUMPDEST PUSH32 0x4E487B7100000000000000000000000000000000000000000000000000000000 PUSH1 0x0 MSTORE PUSH1 0x11 PUSH1 0x4 MSTORE PUSH1 0x24 PUSH1 0x0 REVERT JUMPDEST PUSH32 0x4E487B7100000000000000000000000000000000000000000000000000000000 PUSH1 0x0 MSTORE PUSH1 0x22 PUSH1 0x4 MSTORE PUSH1 0x24 PUSH1 0x0 REVERT JUMPDEST PUSH32 0x4E487B7100000000000000000000000000000000000000000000000000000000 PUSH1 0x0 MSTORE PUSH1 0x32 PUSH1 0x4 MSTORE PUSH1 0x24 PUSH1 0x0 REVERT JUMPDEST PUSH32 0x4E487B7100000000000000000000000000000000000000000000000000000000 PUSH1 0x0 MSTORE PUSH1 0x41 PUSH1 0x4 MSTORE PUSH1 0x24 PUSH1 0x0 REVERT JUMPDEST PUSH1 0x0 DUP1 REVERT JUMPDEST PUSH1 0x0 DUP1 REVERT JUMPDEST PUSH1 0x0 DUP1 REVERT JUMPDEST PUSH1 0x0 DUP1 REVERT JUMPDEST PUSH1 0x0 PUSH1 0x1F NOT PUSH1 0x1F DUP4 ADD AND SWAP1 POP SWAP2 SWAP1 POP JUMP JUMPDEST PUSH32 0x6F6E6C79206F776E65722069732061626C6520746F20616464206B6964730000 PUSH1 0x0 DUP3 ADD MSTORE POP JUMP JUMPDEST PUSH32 0x796F7520617265206E6F742061626C6520746F20776974686472617720617420 PUSH1 0x0 DUP3 ADD MSTORE PUSH32 0x746869732074696D650000000000000000000000000000000000000000000000 PUSH1 0x20 DUP3 ADD MSTORE POP JUMP JUMPDEST PUSH32 0x596F75206D75737420626520746865206B696420746F20776974686472617700 PUSH1 0x0 DUP3 ADD MSTORE POP JUMP JUMPDEST PUSH32 0x556E61626C6520746F2077697468647261772079657421000000000000000000 PUSH1 0x0 DUP3 ADD MSTORE POP JUMP JUMPDEST PUSH2 0x11C1 DUP2 PUSH2 0xEC5 JUMP JUMPDEST DUP2 EQ PUSH2 0x11CC JUMPI PUSH1 0x0 DUP1 REVERT JUMPDEST POP JUMP JUMPDEST PUSH2 0x11D8 DUP2 PUSH2 0xED7 JUMP JUMPDEST DUP2 EQ PUSH2 0x11E3 JUMPI PUSH1 0x0 DUP1 REVERT JUMPDEST POP JUMP JUMPDEST PUSH2 0x11EF DUP2 PUSH2 0xEE9 JUMP JUMPDEST DUP2 EQ PUSH2 0x11FA JUMPI PUSH1 0x0 DUP1 REVERT JUMPDEST POP JUMP JUMPDEST PUSH2 0x1206 DUP2 PUSH2 0xF15 JUMP JUMPDEST DUP2 EQ PUSH2 0x1211 JUMPI PUSH1 0x0 DUP1 REVERT JUMPDEST POP JUMP INVALID LOG2 PUSH5 0x6970667358 0x22 SLT KECCAK256 0xE0 SSTORE SWAP9 0xB7 POP 0xC4 0xAE 0xE0 0xAF DELEGATECALL 0xEF 0xD0 0xBA SWAP14 0xDF SMOD 0x4B RETURN EXP SIGNEXTEND ISZERO 0x26 0xFB SWAP14 SHL 0xC7 0xD2 PUSH12 0x83DFC3AF64736F6C63430008 SMOD STOP CALLER "
				},
				"gasEstimates": {
					"creation": {
						"codeDepositCost": "936400",
						"executionCost": "25241",
						"totalCost": "961641"
					},
					"external": {
						"ableToWithdraw(address)": "infinite",
						"addKid(address,string,string,uint256,uint256,bool)": "infinite",
						"balanceOf()": "361",
						"deposit(address)": "infinite",
						"kids(uint256)": "infinite",
						"withdraw(address)": "infinite"
					},
					"internal": {
						"addToKidsBalance(address)": "infinite",
						"getIndex(address)": "infinite"
					}
				},
				"methodIdentifiers": {
					"ableToWithdraw(address)": "daa6b869",
					"addKid(address,string,string,uint256,uint256,bool)": "31d575c5",
					"balanceOf()": "722713f7",
					"deposit(address)": "f340fa01",
					"kids(uint256)": "7285fd3a",
					"withdraw(address)": "51cff8d9"
				}
			},
			"storageLayout": {
				"storage": [
					{
						"astId": 3,
						"contract": "contracts/CryptoKids.sol:CryptoKids",
						"label": "owner",
						"offset": 0,
						"slot": "0",
						"type": "t_address"
					},
					{
						"astId": 29,
						"contract": "contracts/CryptoKids.sol:CryptoKids",
						"label": "kids",
						"offset": 0,
						"slot": "1",
						"type": "t_array(t_struct(Kid)25_storage)dyn_storage"
					}
				],
				"types": {
					"t_address": {
						"encoding": "inplace",
						"label": "address",
						"numberOfBytes": "20"
					},
					"t_address_payable": {
						"encoding": "inplace",
						"label": "address payable",
						"numberOfBytes": "20"
					},
					"t_array(t_struct(Kid)25_storage)dyn_storage": {
						"base": "t_struct(Kid)25_storage",
						"encoding": "dynamic_array",
						"label": "struct CryptoKids.Kid[]",
						"numberOfBytes": "32"
					},
					"t_bool": {
						"encoding": "inplace",
						"label": "bool",
						"numberOfBytes": "1"
					},
					"t_string_storage": {
						"encoding": "bytes",
						"label": "string",
						"numberOfBytes": "32"
					},
					"t_struct(Kid)25_storage": {
						"encoding": "inplace",
						"label": "struct CryptoKids.Kid",
						"members": [
							{
								"astId": 14,
								"contract": "contracts/CryptoKids.sol:CryptoKids",
								"label": "walletAddress",
								"offset": 0,
								"slot": "0",
								"type": "t_address_payable"
							},
							{
								"astId": 16,
								"contract": "contracts/CryptoKids.sol:CryptoKids",
								"label": "firstName",
								"offset": 0,
								"slot": "1",
								"type": "t_string_storage"
							},
							{
								"astId": 18,
								"contract": "contracts/CryptoKids.sol:CryptoKids",
								"label": "lastName",
								"offset": 0,
								"slot": "2",
								"type": "t_string_storage"
							},
							{
								"astId": 20,
								"contract": "contracts/CryptoKids.sol:CryptoKids",
								"label": "releaseTime",
								"offset": 0,
								"slot": "3",
								"type": "t_uint256"
							},
							{
								"astId": 22,
								"contract": "contracts/CryptoKids.sol:CryptoKids",
								"label": "amount",
								"offset": 0,
								"slot": "4",
								"type": "t_uint256"
							},
							{
								"astId": 24,
								"contract": "contracts/CryptoKids.sol:CryptoKids",
								"label": "canWithdraw",
								"offset": 0,
								"slot": "5",
								"type": "t_bool"
							}
						],
						"numberOfBytes": "192"
					},
					"t_uint256": {
						"encoding": "inplace",
						"label": "uint256",
						"numberOfBytes": "32"
					}
				}
			},
			"userdoc": {
				"kind": "user",
				"methods": {},
				"version": 1
			}
		}
	}
}